:100000000C942A000C94BF000C94D9000C94470067
:100010000C9460070C9437070C945D000C940E0749
:100020000C9447000C94E5060C94BC060C949306C3
:100030000C9447000C943C080C9447000C94470027
:100040000C9447000C9447000C9447000C94470014
:100050000C94470011241FBECFE5D8E0DEBFCDBF12
:1000600011E0A0E6B0E0E2E0F6E302C005900D92F8
:10007000AC34B107D9F711E0ACE4B1E001C01D9296
:10008000AB38B107E1F70E94F3000C94FF1A0C940F
:10009000000080914C0190914D01019690934D018B
:1000A00080934C01089580915001909151010196E7
:1000B000909351018093500108951F920F920FB6B3
:1000C0000F921124EF92FF920F931F932F933F9360
:1000D0004F935F936F937F938F939F93AF93BF9350
:1000E00026B537B5609150017091510188B786955A
:1000F000869580FF04C037FD02C06F5F7F4FCB0144
:10010000A0E0B0E0DC019927882740E050E0822B96
:10011000932BA42BB52B2091520130915301409188
:100120005401509155017C018D01E21AF30A040B30
:10013000150BE0925601F09257010093580110936D
:1001400059018093520190935301A0935401B093AD
:10015000550181E080935A01BF91AF919F918F919A
:100160007F916F915F914F913F912F911F910F91CF
:10017000FF90EF900F900FBE0F901F9018951F9259
:100180000F920FB60F9211248F939F9380914E017F
:1001900091E0892780934E0180914E01882311F0D0
:1001A00010924F019F918F910F900FBE0F901F9053
:1001B00018951F920F920FB60F9211248F939F9351
:1001C00080914F0191E0892780934F0180914F01E9
:1001D000882311F010924E019F918F910F900FBEC6
:1001E0000F901F9018952F923F924F925F926F92AF
:1001F0007F928F929F92AF92BF92CF92DF92EF92B7
:10020000FF920F931F93DF93CF93CDB7DEB7E397A2
:100210000FB6F894DEBF0FBECDBF81E060E041E0D5
:100220000E94590381E061E041E00E94590381E0AE
:1002300062E041E00E94590381E063E041E00E94F6
:10024000590383E062E040E00E94590383E063E0E9
:1002500040E00E94590383E064E040E00E945903BB
:1002600083E062E041E00E941A0483E063E041E041
:100270000E941A0483E064E041E00E941A04DE0157
:100280001596EFE1F1E08AE001900D928150E1F7DF
:10029000CE0105960E94DB0480E090E061E070E012
:1002A00049E450E00E94730680E090E061E070E075
:1002B0000E94E805DE011F96E5E1F1E08AE0019089
:1002C0000D928150E1F7CE010F960E94DB048EB5AE
:1002D00080688EBD8EB580648EBD81E090E060E068
:1002E00070E043E550E00E94730681E090E060E03A
:1002F00070E00E94E80589B7806289BF85B78A608F
:1003000085BF85B78A7F85BF8AB7806C8ABF8BB768
:10031000806C8BBFDE015996EBE0F1E08AE0019042
:100320000D928150E1F7CE0149960E94890781E044
:1003300090E090935C0180935B0192E090935D016B
:1003400010925E0111E010935F0106E000936001DE
:1003500085E08093610184E08093620110936301E2
:100360009093640180E1809365018BE591E00E94A8
:100370007F111B830C83CE0103960E94DB02D09871
:10038000D89878948BE591E060E040E020E630E09A
:100390000E942E118BE591E061E040E022E730E021
:1003A0000E942E1180E49FE128EC30E0F9013197A2
:1003B000F1F70197D9F78BE591E00E94E41083E80B
:1003C00090E00E94FB07AA24BB24EE24FF2480E0D7
:1003D00090E077246624639463E2862E912C8C0E41
:1003E0009D1E51E1252E312C01C0C20140904C01CF
:1003F00050904D019201281B390BA20EB31EE20E44
:10040000F31E1A82198280E0BE016F5F7F4F0E9447
:100410003D0369817A8180E090E028EC30E040E0A3
:1004200050E00E94C5172FEF33E040E050E00E94FB
:10043000F817690183E064E00E94B50300E0892BAE
:1004400029F401E010924E0110924F0134EFA316EF
:1004500031E0B30618F07624AA24BB24772019F4DF
:1004600040E050E00AC080914E01882321F440E032
:1004700050E0002311F041E050E081E060E00E9494
:100480001A04772019F440E050E00AC080914F012F
:10049000882321F440E050E0002311F041E050E0D7
:1004A00081E061E00E941A0410E088E7C816D104D8
:1004B00008F011E081E062E0412F0E941A0481E01F
:1004C00063E0412F0E941A04ADB7BEB718970FB66C
:1004D000F894BEBF0FBEADBFEDB7FEB73196129612
:1004E0009C928E9211973382228225E930E03583E7
:1004F0002483D782C6820E941A188DB79EB70896A9
:100500000FB6F8949EBF0FBE8DBF8BE591E060E003
:1005100040E094010E942E11112319F026EA30E0E8
:1005200015C0002319F027EB30E010C080914E0178
:10053000882319F028EC30E009C080914F0188230E
:1005400019F429ED30E002C02AEE30E08BE591E0AD
:1005500061E040E00E942E1194EFE91691E0F90667
:1005600008F443CFADB7BEB71A970FB6F894BEBF25
:100570000FBEADBFEDB7FEB7319612969C928E922C
:100580001197338222822BEF30E035832483D78288
:10059000C682108711860E941A188DB79EB70A96D8
:1005A0000FB6F8949EBF0FBE8DBFC4010E94FB071B
:1005B000EE24FF241ACFFC01009719F421E030E06B
:1005C00020C03E983F98808180FD3E9A869580FDB0
:1005D0003F9A3D98389839983A983B983C9830988B
:1005E00031983298918190FD309A892F869580FDBF
:1005F000319A892F8695869580FD329A379A20E028
:1006000030E0C9010895379880E090E00895982F70
:10061000883018F021E030E013C0389839983A98C3
:100620003B983C9880FD389A892F869580FD399AB1
:10063000892F8695869580FD3A9A369A20E030E09B
:10064000C901089586B182958695869583708095B7
:1006500081700895FC01009719F421E030E00BC08F
:1006600084B145B1342F20E090E0282B392B318321
:10067000208320E030E0C9010895CF93DF93EB01A0
:100680000E940703BC01009781F43699FECF2097A2
:1006900019F461E070E009C084B145B1342F20E065
:1006A00090E0282B392B39832883CB01DF91CF9120
:1006B0000895843090F5683080F5442319F0413076
:1006C00061F515C0E82FF0E0EE0FFF1FE75DFE4F6C
:1006D0000190F081E02D208181E090E002C0880F40
:1006E000991F6A95E2F780958223808313C0E82FD3
:1006F000F0E0EE0FFF1FE75DFE4F0190F081E02D6F
:10070000208181E090E002C0880F991F6A95E2F78E
:10071000282B208320E030E002C021E030E0C90136
:1007200008958430F0F4662319F06130D1F40BC0E1
:10073000E82FF0E0EE0FFF1FE75DFE4F0190F08124
:10074000E02D10820BC0E82FF0E0EE0FFF1FE75DF9
:10075000FE4F0190F081E02D8FEF808320E030E0AC
:1007600002C021E030E0C9010895843008F5683006
:10077000F8F4813039F0813040F0823049F0833034
:10078000B9F409C0E6E3F0E008C0E9E3F0E005C031
:10079000E3E3F0E002C0E0E3F0E08081282F30E006
:1007A00002C0359527956A95E2F72170307002C036
:1007B00020E030E0C9010895843088F4813049F0A8
:1007C000813028F0823039F0833049F406C089B393
:1007D000089586B3089583B3089580B3089580E0A3
:1007E0000895843018F5683008F5813039F081308B
:1007F00040F0823049F08330C9F409C0E8E3F0E00A
:1008000008C0EBE3F0E005C0E5E3F0E002C0E2E39E
:10081000F0E0208181E090E002C0880F991F6A9586
:10082000E2F72827208320E030E002C021E030E01A
:10083000C9010895843080F5683070F5813039F051
:10084000813040F0823049F0833031F509C0E8E36F
:10085000F0E008C0EBE3F0E005C0E5E3F0E002C043
:10086000E2E3F0E0442359F4208181E090E002C00B
:10087000880F991F6A95E2F78095282309C0208187
:1008800081E090E002C0880F991F6A95E2F7282B5B
:10089000208320E030E002C021E030E0C90108956B
:1008A0008430C0F4813039F0813040F0823049F03A
:1008B000833081F409C0E8E3F0E008C0EBE3F0E046
:1008C00005C0E5E3F0E002C0E2E3F0E0608320E091
:1008D00030E002C021E030E0C901089581E090E0FD
:1008E000089581E090E0089581E090E0089581E02E
:1008F00090E0089581E090E0089581E090E008950F
:1009000081E090E0089581E090E0089580E008950E
:1009100081E090E0089581E090E0089581E090E02A
:10092000089581E090E0089581E090E0089581E0ED
:1009300090E0089581E090E008950895089581E0A1
:1009400090E0089581E090E0089581E090E00895BE
:1009500081E090E0089581E090E0089581E090E0EA
:1009600008958330910518F58130910571F081303B
:10097000910518F00297D9F412C083B7887F83BF1E
:1009800083B76770862B83BF07C08EB5887F8EBD07
:100990008EB56770862B8EBD20E030E00AC085B52D
:1009A000887F85BD85B56770862B85BDF5CF21E035
:1009B00030E0C9010895FC01009709F494C040811A
:1009C00051814330510508F08EC022813381411599
:1009D000510529F04230510509F043C021C02130B2
:1009E000310569F02130310520F02230310589F4DC
:1009F00009C083B78F7B83BF83B7877F08C083B766
:100A00008F7B02C083B7806483BF83B7886083BF56
:100A100051C083B7806483BF83B7877F83BF40C0E3
:100A20002130310569F02130310520F022303105C7
:100A300089F409C085B58F7B85BD85B5877F08C0E2
:100A400085B58F7B02C085B5806485BD85B588601E
:100A500085BD3EC085B5806485BD85B5877F85BD74
:100A60001FC08FB58E7F8FBD8FB58D7F8FBD8EB52B
:100A7000877F8EBD8EB58F7E8EBD2130310549F0CA
:100A80002130310568F02230310539F48FB58160AD
:100A90008FBD8EB588608EBD03C08FB581608FBD60
:100AA0004130510561F04130510520F0423051058F
:100AB000D1F40EC0868182BF80858CBF0DC0868137
:100AC00097819DBD8CBD808591859BBD8ABD04C0ED
:100AD000868184BD808583BD64817581CA010E9441
:100AE000B1049C0102C021E030E0C90108958330C7
:100AF0009105B8F48130910551F08130910518F0DD
:100B0000029779F40AC083B7887F83BF03C08EB58C
:100B1000887F8EBD20E030E006C085B5887F85BD2A
:100B2000F9CF21E030E0C90108958330910590F4B8
:100B30008130910541F08130910518F0029751F410
:100B400007C062BF02C07DBD6CBD20E030E004C0C4
:100B500064BDFBCF21E030E0C9010895FB01833083
:100B60009105C8F461157105B1F08130910541F02E
:100B70008130910518F0029771F409C082B708C05E
:100B80008CB59DB59183808320E030E006C084B5AC
:100B900080831182F9CF21E030E0C90108958330CC
:100BA000910590F48130910541F08130910518F064
:100BB000029751F407C06CBF02C07BBD6ABD20E044
:100BC00030E004C063BDFBCF21E030E0C9010895EF
:100BD0008330910510F58130910569F081309105E0
:100BE00018F00297D1F40EC099B7672B11F481E089
:100BF0000FC082E00DC099B7672B11F080E108C0EB
:100C000084E006C099B7672B11F080E801C080E44A
:100C1000892B89BF20E030E002C021E030E0C9012B
:100C200008958330910510F58130910569F0813088
:100C3000910518F00297D1F40EC099B7672B11F403
:100C40008EEF0FC08DEF0DC099B7672B11F08FEEAF
:100C500008C08BEF06C099B7672B11F08FE701C072
:100C60008FEB892389BF20E030E002C021E030E033
:100C7000C9010895CF93DF93EC018330910568F5A6
:100C800060E070E00E941106CE0161E070E00E9419
:100C90001106C130D10551F0C130D10520F0C2306C
:100CA000D105D9F408C013BE12BE07C01FBC1EBCBC
:100CB0001DBC1CBC02C015BC14BCCC0FDD1FCC0F6E
:100CC000DD1FFE01E559FE4F11821082C359DE4F30
:100CD0001982188220E030E002C021E030E0C90132
:100CE000DF91CF910895FC018330910580F4411587
:100CF000510569F0EE0FFF1FE60FF71FEE0FFF1F04
:100D0000E559FE4F5183408320E030E002C021E0EE
:100D100030E0C90108958FB780688FBF08958FB7FD
:100D20008F778FBF08951F920F920FB60F921124E5
:100D30002F933F934F935F936F937F938F939F93E3
:100D4000AF93BF93EF93FF93E0916B01F0916C0130
:100D5000309709F00995FF91EF91BF91AF919F9165
:100D60008F917F916F915F914F913F912F910F9054
:100D70000FBE0F901F9018951F920F920FB60F92F3
:100D800011242F933F934F935F936F937F938F9390
:100D90009F93AF93BF93EF93FF93E0916D01F09119
:100DA0006E01309709F00995FF91EF91BF91AF91D6
:100DB0009F918F917F916F915F914F913F912F9173
:100DC0000F900FBE0F901F9018951F920F920FB6A5
:100DD0000F9211242F933F934F935F936F937F93C1
:100DE0008F939F93AF93BF93EF93FF93E0916F0126
:100DF000F0917001309709F00995FF91EF91BF9143
:100E0000AF919F918F917F916F915F914F913F91A2
:100E10002F910F900FBE0F901F9018951F920F9259
:100E20000FB60F9211242F933F934F935F936F93BD
:100E30007F938F939F93AF93BF93EF93FF93E09133
:100E40007101F0917201309709F00995FF91EF91CE
:100E5000BF91AF919F918F917F916F915F914F91D2
:100E60003F912F910F900FBE0F901F9018951F92DA
:100E70000F920FB60F9211242F933F934F935F93CE
:100E80006F937F938F939F93AF93BF93EF93FF9352
:100E9000E0917301F0917401309709F00995FF9189
:100EA000EF91BF91AF919F918F917F916F915F91E2
:100EB0004F913F912F910F900FBE0F901F9018955B
:100EC0001F920F920FB60F9211242F933F934F93BF
:100ED0005F936F937F938F939F93AF93BF93EF93A2
:100EE000FF93E0917501F0917601309709F0099533
:100EF000FF91EF91BF91AF919F918F917F916F91F2
:100F00005F914F913F912F910F900FBE0F901F90C7
:100F10001895CF93DF93EC010097C9F128813981AF
:100F20004A815B81211531054105510581F184E03C
:100F3000220F331F441F551F8A95D1F760E072E1DD
:100F40008AE790E00E94F81721503040832F8F707D
:100F500080BD29B92C813D819E8193709295907FAF
:100F600088858170880F880F880F982B9068822F52
:100F70008370880F982B90BD2730310511F4529A59
:100F800001C05298539A549A20E030E002C021E008
:100F900030E0C901DF91CF91089553985498579844
:100FA00056985598109278011092770180E090E061
:100FB00008955D9BFECF8CB980E090E00895FC0120
:100FC000009719F421E030E006C05F9BFECF8CB1A2
:100FD000808320E030E0C9010895FC01009739F0DA
:100FE0005F9B05C08CB1808320E030E002C021E02F
:100FF00030E0C9010895009719F421E030E00BC0FA
:10100000FC0104C05D9BFECF8CB9319680818823A2
:10101000C9F720E030E0C90108950097D9F06115C3
:101020007105C1F0A0E0B0E0615070400AC05F9B64
:10103000FECF2CB1241741F0FC01EA0FFB1F2083E7
:101040001196A617B70798F3A80FB91F1C9220E0B6
:1010500030E002C021E030E0C9010895009719F4A2
:1010600021E030E007C09093780180937701579A90
:1010700020E030E0C90108951F920F920FB60F9241
:1010800011242F933F934F935F936F937F938F938D
:101090009F93AF93BF93EF93FF938CB1E091770150
:1010A000F0917801309709F00995FF91EF91BF9188
:1010B000AF919F918F917F916F915F914F913F91F0
:1010C0002F910F900FBE0F901F901895FB01DA0122
:1010D0008230910581F08330910518F40197C1F4B5
:1010E00006C08330910559F0049791F40CC081E05B
:1010F000808383E00BC083E0808385E007C083E0CA
:10110000808384E003C083E0808387E08C9308952C
:1011100010821C92089582309105A9F083309105C8
:1011200018F4019751F506C083309105A1F004979A
:1011300021F51AC0662319F083B7806202C083B715
:101140008F7D83BF0895662319F08FB580680AC02C
:101150008FB58F7707C0662319F08FB5806202C004
:101160008FB58F7D8FBD0895662321F085B5806290
:1011700085BD089585B58F7D85BD08958230910523
:1011800071F08330910518F40197A1F406C0833003
:10119000910551F0049771F40CC06CBF0895862F2F
:1011A00090E09BBD8ABD0895862F90E099BD88BDD3
:1011B000089563BD0895FC01DB01009769F0818506
:1011C000882351F06115710539F0838594858D93DD
:1011D0009C9320E030E002C021E030E0C901089596
:1011E000FC01DB01009759F08185882341F06115EE
:1011F000710529F082858C9320E030E002C021E067
:1012000030E0C9010895FF920F931F93CF93DF93AE
:10121000EC018B016230710539F06330710541F0EA
:101220006130710549F402C040E003C041E005C0EF
:1012300041E0FF24F39402C040E0FF248885882326
:1012400039F0C8010197029718F48F2DF42E482F1A
:10125000888169810E941A048A816B814F2D0E94C6
:101260001A041C870B87DF91CF911F910F91FF907C
:101270000895CF93DF93EC010097E9F089858823E7
:10128000D1F0CE0163E070E00E9403098E819F815E
:10129000009731F48C816D8141E00E941A0408C0EE
:1012A0006FEF0E94BE088E819F8161E00E948B08D3
:1012B00020E030E002C021E030E0C901DF91CF91B1
:1012C00008950F931F93DF93CF9300D0CDB7DEB770
:1012D0008C01009749F1FC018185882329F11A824C
:1012E0001982C80160E070E00E940309F80186815C
:1012F0009781009719F48481658110C0BE016F5FEA
:101300007F4FAE014E5F5F4F0E946608F8018681F5
:10131000978160E00E948B0889816A8140E00E9489
:101320001A0420E030E002C021E030E0C9010F9053
:101330000F90CF91DF911F910F9108950F931F93FD
:10134000DF93CF9300D0CDB7DEB78C01009769F162
:10135000FC018185882349F11A821982C8010E9403
:101360006109F801868197810097C9F0BE016F5F1E
:101370007F4FAE014E5F5F4F0E946608F801868185
:10138000978160E00E948B08F8018681978160E078
:101390000E94BE0889816A8140E00E941A04F80117
:1013A0001286118620E030E002C021E030E0C90161
:1013B0000F900F90CF91DF911F910F9108950F9390
:1013C0001F93DF93CF9300D0CDB7DEB78C01198286
:1013D0001A82FC0186819781009741F440E0828562
:1013E000811141E0F8018481658115C0BE016F5F04
:1013F0007F4FAE014E5F5F4F0E946608F8019285F5
:1014000026813781992351F4C90160E00E948B083D
:1014100089816A8140E00E941A0411C08FEF989F71
:10142000C001112464E670E00E94E417C9010E9423
:10143000BE08F8018681978161E00E948B080F90B9
:101440000F90CF91DF911F910F910895CF93DF936C
:10145000EC01009771F08985882359F0CE0162E094
:1014600070E00E940309CE010E94DF0920E030E015
:1014700002C021E030E0C901DF91CF910895CF9300
:10148000DF93EC01009771F08985882359F0CE0134
:1014900061E070E00E940309CE010E94DF0920E0B4
:1014A00030E002C021E030E0C901DF91CF91089522
:1014B000FC01009789F08185882371F06230710505
:1014C00058F4672B21F4CF010E943F0A03C0CF01DB
:1014D0000E94260A9C0102C021E030E0C901089563
:1014E000FC01009769F08185882351F0653608F08A
:1014F00064E66287CF010E94DF0920E030E002C08D
:1015000021E030E0C90108950F931F93DF93CF933B
:1015100000D0CDB7DEB78C01009709F485C0FC017F
:101520002081243008F080C08281843008F07CC0A3
:1015300086819781059708F077C061811A821982A8
:10154000822F41E00E945903F8018281638141E0CA
:101550000E945903F8018081618140E00E941A04D1
:10156000F8018281638140E00E941A04F8018681BB
:101570009781009779F48481843008F055C06581A3
:1015800041E00E945903F8018481658140E00E9496
:101590001A043BC0BE016F5F7F4FAE014E5F5F4FCD
:1015A0000E94660889816A8141E00E94590389810D
:1015B0006A8140E00E941A04F801268137812430B4
:1015C000310538F42230310560F421303105C9F499
:1015D00004C024303105A9F411C08BE483BF1CBEC4
:1015E00010C08FB581608FBD8EB588608EBD8EB501
:1015F00082608EBD8EB581608EBD03C08CE485BDDA
:1016000013BCC90160E00E948B08F801128681E0DA
:101610008187C80160E070E00E940309C8010E9450
:10162000DF0920E030E002C021E030E0C9010F9086
:101630000F90CF91DF911F910F910895CF92DF927C
:10164000EF92FF920F931F93DF93CF9300D000D0C0
:10165000CDB7DEB78C016B01009709F469C0611545
:10166000710509F465C08FEFFB018083EE245EC035
:10167000F80161816F0D808141E00E941A04F394AA
:10168000F4E0FF16A9F7F80161816E0D808140E05A
:101690000E941A04FF24F80163816F0D82810E9469
:1016A000B503892BC1F51A82198212C01C821B82D4
:1016B00005C08B819C8101969C838B838B819C814F
:1016C00080549640B0F389819A8101969A838983E8
:1016D00089819A81449750F3F80163816F0D82816B
:1016E0000E94B503892BB9F4F80163816F0D8281E3
:1016F0000E94B503892BC1F38E2D90E0880F991FAE
:10170000880F991F080F191F0F0D111DF8018481F3
:10171000F601808308C0F394F4E0FF1609F0BBCF14
:10172000E394EF1619F420E030E004C0FF24A0CFCA
:1017300021E030E0C9010F900F900F900F90CF91F2
:10174000DF911F910F91FF90EF90DF90CF90089560
:101750000F931F93CF93DF938C01EB01009779F0E8
:101760006115710561F0C801BE010E941E0B892B35
:1017700031F488818F3FB9F320E030E002C021E0EE
:1017800030E0C901DF91CF911F910F9108951F9310
:10179000CF93DF93EC010097A9F18881843090F515
:1017A0008A81843078F5898190E005975CF58B819A
:1017B00090E005973CF510E06981610F888141E078
:1017C0000E945903892BF1F46981610F888141E0FE
:1017D0000E941A041F5F143079F710E06B81610FCB
:1017E0008A8140E00E945903892B61F46B81610F6B
:1017F0008A8141E00E941A041F5F143079F720E0CB
:1018000030E002C021E030E0C901DF91CF911F91AB
:10181000089581E090E0089581E090E0089581E0EE
:1018200090E0089581E090E0089581E090E00895CF
:1018300081E090E0089581E090E0089581E090E0FB
:101840000895CF92DF92FF920F931F93CF93DF9370
:10185000EC01F62E6A0189010E947704892B41F47C
:101860008881880F0E947D04892B29F00E947A04C8
:1018700021E030E018C08F2D0E947D04892BB1F744
:10188000C0E0D0E009C0F601EC0FFD1F80810E948E
:101890007D04892B59F72196C017D107A0F30E9428
:1018A0007A0420E030E0C901DF91CF911F910F91C0
:1018B000FF90DF90CF900895DC01AB010097F9F025
:1018C00013968C9113978823D1F061157105B9F0A7
:1018D00020E030E002C02F5F3F4FFA01E20FF31F1C
:1018E00080818823C1F72115310519F420E030E00B
:1018F00008C0CD0160E40E94210C9C0102C021E0DF
:1019000030E0C9010895DF93CF930F92CDB7DEB7D2
:10191000FC016983009789F08381882371F0CF01EE
:1019200060E4AE014F5F5F4F21E030E00E94210C88
:101930009C0185E88A95F1F702C021E030E0C901F9
:101940000F90CF91DF9108954F925F926F927F92A7
:101950009F92AF92BF92CF92DF92EF92FF920F933E
:101960001F93DF93CF93CDB7DEB766970FB6F8948A
:10197000DEBF0FBECDBF5C01009709F46DC0FC0156
:101980008381882309F468C04115510561057105FB
:1019900029F4C50160E30E94830C5CC077FF16C088
:1019A0008DE28B87EE24FF248701E41AF50A060BEB
:1019B000170B992493943E010894611C711C6301D8
:1019C0008BE0482E512C4C0E5D1E1CC07A018B0101
:1019D0009924F1CFC801B7012AE030E040E050E09F
:1019E0000E94F817605DF60161936F01C801B701AD
:1019F0002AE030E040E050E00E94F817C901DA0127
:101A00007C018D012C2D2619E114F104010511052D
:101A100049F4322F992DBE01655F7F4FAE014F5FB4
:101A20005F4F0EC0C414D504A9F6F3CF2150FB01BB
:101A3000E90FF11DDA01A20FB11D8C9180839F5F28
:101A40002223A1F7390DFB01E30FF11D1082C5011F
:101A50000E945C0C9C0102C021E030E0C901669646
:101A60000FB6F894DEBF0FBECDBFCF91DF911F91AF
:101A70000F91FF90EF90DF90CF90BF90AF909F902D
:101A80007F906F905F904F900895DF93CF930F9268
:101A9000CDB7DEB76983009719F421E030E00CC0C0
:101AA00060E0AE014F5F5F4F21E030E00E94210C0B
:101AB0009C0185E88A95F1F7C9010F90CF91DF91DC
:101AC0000895FC01009769F08381882351F0662313
:101AD00011F06CE101C068E1CF010E94450D9C014D
:101AE00002C021E030E0C9010895FC01009781F0B7
:101AF0008381882369F08481662311F0816001C0AD
:101B00008E7F8483CF0164810E94450D9C0102C0B9
:101B100021E030E0C9010895FC01009781F0838144
:101B2000882369F08481662311F0826001C08D7F73
:101B30008483CF0164810E94450D9C0102C021E095
:101B400030E0C9010895FC01009781F0838188236A
:101B500069F08481662311F0846001C08B7F8483E7
:101B6000CF0164810E94450D9C0102C021E030E05C
:101B7000C9010895CF93DF93EC01009791F08B8119
:101B8000882379F0CE0162E00E94450D892B49F44B
:101B900080EA9FE00197F1F71E821F8220E030E08B
:101BA00002C021E030E0C901DF91CF910895CF93C9
:101BB000DF93EC01009791F08B81882379F0CE01BF
:101BC00061E00E94450D892B49F480EA9FE001976E
:101BD000F1F71E821F8220E030E002C021E030E0F9
:101BE000C901DF91CF9108950F931F93CF93DF9396
:101BF000EC01162F042F009701F18B818823E9F067
:101C000089816817D0F46A814617B8F4123049F018
:101C1000133031F0113011F060E003C060E401C016
:101C2000605C600F6068CE010E94450D892B29F42D
:101C30001E830F8320E030E002C021E030E0C901C4
:101C4000DF91CF911F910F9108950F931F93CF9321
:101C5000DF93EC0189010E94F40D892B19F021E03A
:101C600030E005C0CE01B8010E945C0C9C01C901A6
:101C7000DF91CF911F910F910895EF92FF920F93F3
:101C8000CF93DF93EC01009709F45CC0888187FD56
:101C900059C09981992309F455C08A81882309F490
:101CA00051C0953008F04EC01B8284EF91E028ECC3
:101CB00030E0F9013197F1F70197D9F78981823046
:101CC00010F008E301C000E3CE01602F0E94450D33
:101CD000892B09F037C080E197E20197F1F7CE0137
:101CE000602F0E94450D90E9E92E91E0F92EC70181
:101CF0000197F1F7CE01602F0E94450DC7010197B2
:101D0000F1F788E08C83CE0168E00E94450DCE019A
:101D100061E00E94450D80EA9FE00197F1F786E0BF
:101D20008D83CE0166E00E94450D8CE08C83CE0150
:101D30006CE00E94450D1E821F8281E08B8320E0B3
:101D400030E002C021E030E0C901DF91CF910F9176
:101D5000FF90EF900895EF92FF920F931F93DF9300
:101D6000CF93CDB7DEB728970FB6F894DEBF0FBE7E
:101D7000CDBF8C017A010097A1F1FC0183818823FA
:101D800081F14115510569F1683058F5660F660F0C
:101D9000660F6064C8010E94450D892B11F520E093
:101DA00030E0AE014F5F5F4FFA01E20FF31FD70142
:101DB000A20FB31F8C918F7180832F5F3F4F28300C
:101DC000310591F7C80160E428E030E00E94210C61
:101DD000892B39F4C80160E040E00E94F40D9C01B9
:101DE00002C021E030E0C90128960FB6F894DEBFAA
:101DF0000FBECDBFCF91DF911F910F91FF90EF905C
:101E00000895EF92FF920F931F93CF93DF937C017E
:101E1000C0E0D0E0062F10E0F70163816C0FA8014D
:101E20000C2E02C0559547950A94E2F741708281C5
:101E30000E941A042196C430D10571F7F7018481FC
:101E4000678141E00E941A0415E0812F8A95F1F71D
:101E5000F7018481678140E00E941A041A95F1F726
:101E6000DF91CF911F910F91FF90EF900895EF9226
:101E7000FF920F931F93CF93DF93EC01F62E88818F
:101E80009981019739F500E010E0E62EFF246B817F
:101E9000600FA701002E02C0559547950A94E2F7FE
:101EA00041708A810E941A040F5F1F4F083011058C
:101EB00071F78C816F8141E00E941A0415E0812F37
:101EC0008A95F1F78C816F8140E00E941A041A957F
:101ED000F1F70BC062956F70CE010E94010F8FE089
:101EE000F822CE016F2D0E94010F85E88A95F1F747
:101EF000DF91CF911F910F91FF90EF9008951F9365
:101F0000CF93DF93EC01162F009779F08B85882310
:101F100061F08C816D8141E00E941A04CE01612F35
:101F20000E94370F20E030E002C021E030E0C9011C
:101F3000DF91CF911F9108954F925F926F927F92A0
:101F40008F929F92AF92BF92CF92DF92EF92FF92C9
:101F50000F931F93DF93CF93CDB7DEB72A970FB6BA
:101F6000F894DEBF0FBECDBF4C017A018B01009704
:101F700009F460C0FC018385882309F45BC0411526
:101F800051056105710531F4C40160E30E947F0FC2
:101F90009C0152C077FF16C0C4016DE20E947F0F02
:101FA000AA24BB246501AE18BF08C00AD10A3E01AD
:101FB0000894611C711C73018BE0482E512C4C0E4F
:101FC0005D1E1BC05A016B01F2CFC601B5012AE0AC
:101FD00030E040E050E00E94F817605DF701619347
:101FE0007F01C601B5012AE030E040E050E00E94E8
:101FF000F817C901DA015C016D011E2D1619A11433
:10200000B104C104D10469F0E414F504F1F609C087
:102010001150F701E10FF11DC40160810E947F0F93
:1020200004C07E010894E11CF11C112389F720E013
:1020300030E002C021E030E0C9012A960FB6F894E2
:10204000DEBF0FBECDBFCF91DF911F910F91FF90EB
:10205000EF90DF90CF90BF90AF909F908F907F9048
:102060006F905F904F9008950F931F93CF93DF93DE
:10207000EC01009799F08B85882381F0611571053B
:1020800069F08B0103C0CE010E947F0FF8016191BE
:102090008F016623C1F720E030E002C021E030E08C
:1020A000C901DF91CF911F910F9108951F93CF9395
:1020B000DF93EC01162F009719F421E030E00BC0FC
:1020C0008C816D8140E00E941A04CE01612F0E9434
:1020D000370F20E030E0C901DF91CF911F910895C3
:1020E000FC01009769F08385882351F0662311F085
:1020F0006CE101C068E1CF010E9456109C0102C052
:1021000021E030E0C9010895FC01009781F083854A
:10211000882369F08485662311F0816001C08E7F79
:102120008487CF0164850E9456109C0102C021E083
:1021300030E0C9010895FC01009781F08385882370
:1021400069F08485662311F0826001C08D7F8487E9
:10215000CF0164850E9456109C0102C021E030E04E
:10216000C9010895FC01009781F08385882369F0F7
:102170008485662311F0846001C08B7F8487CF0142
:1021800064850E9456109C0102C021E030E0C90124
:102190000895CF93DF93EC01009781F08B8588231E
:1021A00069F0CE0162E00E94561080EA9FE001973C
:1021B000F1F71E861F8620E030E002C021E030E00B
:1021C000C901DF91CF910895CF93DF93EC01009780
:1021D00081F08B85882369F0CE0161E00E94561062
:1021E00080EA9FE00197F1F71E861F8620E030E02D
:1021F00002C021E030E0C901DF91CF9108950F9333
:102200001F93CF93DF93EC01162F042F0097F1F06B
:102210008B858823D9F089856817C0F46A854617AD
:10222000A8F4123049F0133031F0113011F060E0B1
:1022300003C060E401C0605C600F6068CE010E9472
:1022400056101E870F8720E030E002C021E030E00A
:10225000C901DF91CF911F910F9108950F931F93A3
:10226000CF93DF93EC0189010E94FF10892B19F0B5
:1022700021E030E005C0CE01B8010E9434109C017D
:10228000C901DF91CF911F910F910895EF92FF92B5
:102290000F931F93CF93DF938C017A01009729F15D
:1022A000FC018385882309F141155105F1F068305F
:1022B000E0F4660F660F660F6064C8010E94561056
:1022C000C0E0D0E0F701EC0FFD1F60816F71C80125
:1022D0000E947F0F2196C830D105A1F7C80160E0A8
:1022E00040E00E94FF109C0102C021E030E0C901E3
:1022F000DF91CF911F910F91FF90EF9008950F9371
:102300001F93CF93DF93EC01009709F4C3C08A8138
:10231000843008F0BFC08C81843008F0BBC0998540
:10232000992309F4B7C08A85882309F4B3C095308E
:1023300008F0B0C088819981019711F014E001C0C4
:1023400018E08B8190E0810F911D099708F0A2C0E1
:1023500000E06B81600F8A8141E00E9459036B812C
:10236000600F8A8140E00E941A040F5F011788F312
:102370008C816D8141E00E9459038C816F8141E025
:102380000E9459038C816D8140E00E941A048C8167
:102390006F8140E00E941A048885882351F08C8167
:1023A0006E8141E00E9459038C816E8140E00E9461
:1023B0001A0484EF91E028EC30E0F9013197F1F74D
:1023C0000197D9F788819981892BE9F4CE0163E0DF
:1023D0000E94010F80E197E20197F1F7CE0163E0DF
:1023E0000E94010F0CE211E0C8010197F1F7CE0144
:1023F00063E00E94010FC8010197F1F7CE0162E08E
:102400000E94010F15C0CE0160E30E94370F80E1EA
:1024100097E20197F1F7CE0160E30E94370F0CE2DB
:1024200011E0C8010197F1F7CE0160E30E94370F78
:10243000C8010197F1F788819981019711F460E350
:1024400001C060E28985823008F06860CE010E9498
:10245000561088E08C87CE0168E00E945610CE01AD
:1024600061E00E94561080EA9FE00197F1F786E054
:102470008D87CE0166E00E9456108CE08C87CE01DD
:102480006CE00E9456101E861F8681E08B8720E03C
:1024900030E002C021E030E0C901DF91CF911F910F
:1024A0000F910895FC0180819181009719F00197A7
:1024B000F1F40FC06485758580E090E028EE33E08C
:1024C00040E050E00E94C5170E94F8173BBD2ABDAE
:1024D00008956485758580E090E028EE33E040E063
:1024E00050E00E94C5170E94F81739BD28BD089515
:1024F000FF920F931F93CF93DF93EC01009721F18D
:102500008985882309F1F884F616F0F06B870C8131
:102510001D8170E080E090E02E813F81201B310B17
:1025200040E050E00E94C5172F2D30E040E050E021
:102530000E94F817020F131F1D870C87CE010E94FF
:10254000521220E030E002C021E030E0C901DF910A
:10255000CF911F910F91FF9008950F931F93CF93E9
:10256000DF93EC019B01009761F18985882349F194
:102570006C817D812617370738F08E819F81B901E4
:102580008217930708F4BC017D876C870C811D813D
:10259000601B710B80E090E0288530E040E050E067
:1025A0000E94C5172E813F81201B310B40E050E077
:1025B0000E94F8172B87CE010E94521220E030E0D3
:1025C00002C021E030E0C901DF91CF911F910F914E
:1025D0000895FC01DB01009759F08185882341F0C3
:1025E0006115710529F083858C9320E030E002C0ED
:1025F00021E030E0C9010895FC010097B9F0818520
:102600008823A1F080819181009719F48FB58068AB
:1026100004C0019719F48FB580628FBD81E0828775
:10262000CF010E94521220E030E002C021E030E0F1
:10263000C9010895FF920F931F93CF93DF930BE788
:1026400011E0FF24F801C081D181209719F18A851A
:10265000882301F18A816B8141E00E941A046C8514
:102660007D8580E090E020E43FE140E050E00E9482
:10267000C51720EA3FE040E050E00E94F817C9018A
:10268000232B11F00197F1F78A816B8140E00E94C2
:102690001A04F3940E5F1F4FF1E00B381F0791F6F9
:1026A00020E030E0FF2011F421E030E0C901DF91AB
:1026B000CF911F910F91FF900895CF93DF93EC017D
:1026C0000097F1F089858823D9F088819981009756
:1026D00031F48FB58F778FBD83E065E00AC0019735
:1026E00031F48FB58F7D8FBD83E064E002C08A81B5
:1026F0006B8140E00E941A041A8620E030E002C09C
:1027000021E030E0C901DF91CF910895CF93DF93AD
:10271000EC010097A1F18985882389F1CE010E94FF
:102720005D13888199810297B9F4ABE7B1E0E0E0ED
:10273000F0E08D919C9111978C179D0739F4EE0F65
:10274000FF1FE558FE4F1182108215C03196129678
:10275000E830F10571F70FC080917901882319F0F5
:1027600081508093790180917901882321F41FBCE5
:102770001EBC10927A01198620E030E002C021E0F0
:1027800030E0C901DF91CF910895CF92DF92FF929F
:102790000F931F93CF93DF93EC01009709F483C04D
:1027A000C880D98083E0C816D10408F07CC0F884C2
:1027B000FF2009F478C00C811D812E813F81021712
:1027C000130708F070C019861A866F2D66956B87FF
:1027D00070E080E090E0201B310B40E050E00E9470
:1027E000C5172F2D30E040E050E00E94F817020F8F
:1027F000131F1D870C8782E0C816D10419F58A8142
:10280000843008F050C06B8141E00E9459038A81F6
:102810006B8140E00E941A04ABE7B1E0E0E0F0E039
:102820008D919C911197892B39F4EE0FFF1FE5587C
:10283000FE4FD183C0832EC031961296E830F10549
:1028400079F731C080917A01882369F482E08FBDE5
:102850008AE18EBD8FE19EE497BD86BD1DBC1CBC88
:1028600081E080937A01CD2841F483E065E041E086
:102870000E9459038FB5806807C083E064E041E09F
:102880000E9459038FB580628FBD809179018F5F5F
:102890008093790181E089878A87CE010E94521254
:1028A00020E030E002C021E030E0C901DF91CF91AB
:1028B0001F910F91FF90DF90CF900895843080F4A6
:1028C000683070F490E04130510509F091E0492FF3
:1028D0000E941A04009711F081E090E09C0102C070
:1028E00021E030E0C9010895843080F4683070F44C
:1028F00090E04130510509F491E0492F0E941A04FB
:10290000009711F081E090E09C0102C021E030E0EE
:10291000C9010895FF920F931F93CF93DF93EC01AA
:10292000009751F18C81843038F58A819B81009722
:1029300011F407E003C00197F9F404E08D818830B9
:10294000D8F490E0800F911D0997B4F4FF2488819A
:102950009981892B11F0FF24F39410E06D81610FB0
:102960008C814F2D0E941A04892B31F41F5F1017A0
:10297000A8F320E030E002C021E030E0C901DF919F
:10298000CF911F910F91FF900895DF92EF92FF92E8
:102990000F931F93CF93DF938C01009799F16A30C7
:1029A00088F5FC0182819381009741F4E62FF0E0E5
:1029B000EF5CFE4F608197E0D92E04C0019711F5BE
:1029C00084E0D82EF80180819181019709F4609507
:1029D000C0E0D0E0E62EFF24F80165816C0FA7016E
:1029E0000C2E02C0559547950A94E2F741708481F8
:1029F0000E941A04892B31F42196CD1568F320E04A
:102A000030E002C021E030E0C901DF91CF911F9199
:102A10000F91FF90EF90DF9008950F931F93CF9346
:102A2000DF93EC01009749F18C81843030F58A8185
:102A30009B81009711F407E003C00197F1F404E0D3
:102A40008D818830D0F490E0800F911D0997ACF40F
:102A500010E06D81610F8C8141E00E945903892B48
:102A600061F41F5F1017A8F3CE010E948A1400972B
:102A700011F081E090E09C0102C021E030E0C9014A
:102A8000DF91CF911F910F910895FC01009761F0A4
:102A90008389882349F06330710530F47687658730
:102AA000148A20E030E002C021E030E0C90108953E
:102AB000FC01009769F08389882351F06115710545
:102AC00011F461E070E0728B618B20E030E002C0B5
:102AD00021E030E0C9010895EF92FF920F931F9318
:102AE000CF93DF93EC01009769F18B89882351F133
:102AF0006115710539F18F8598897C0100E010E03E
:102B00008D859E85029721F4EE0CFF1C001F111F7E
:102B10009B0140E050E0C801B7010E94C5179B012E
:102B2000AC0160E67AEE80E090E00E94F817C901FF
:102B3000DA010097A105B10529F03A8B298B20E035
:102B400030E002C021E030E0C901DF91CF911F9158
:102B50000F91FF90EF900895CF93DF93FC01EB016D
:102B6000009789F08389882371F06115710559F008
:102B700086899789A08DB18D88839983AA83BB8329
:102B800020E030E002C021E030E0C901DF91CF91C8
:102B90000895FC01009751F08389882339F0168A43
:102BA000178A108E118E20E030E002C021E030E064
:102BB000C9010895FC01DB01009799F083898823FE
:102BC00081F06115710569F08585968527853089C5
:102BD000029711F4220F331F2D933C9320E030E035
:102BE00002C021E030E0C90108951F93CF93DF9325
:102BF000EC01162F462F4170888169810E941A04CA
:102C0000412F469541708A816B810E941A04412FA1
:102C10004695469541708C816D810E941A04412F22
:102C200046954695469541708E816F810E941A04A3
:102C30001D8A112311F081E08D8BDF91CF911F91BF
:102C400008950F931F93CF93DF93EC01009709F43E
:102C500052C08B89882309F44EC06230710508F098
:102C60004AC08D859E85029711F044E001C048E07E
:102C70008C890E891F89288D398D672B61F490E02E
:102C80000196642F70E00E94E4178C8B0F5F1F4F3A
:102C90002F4F3F4F0DC090E0840F911D0197642F7F
:102CA00070E00E94E4178C8B0150104020403040AF
:102CB0000E8B1F8B288F398FEC898D859E85009711
:102CC00021F0F0E0029761F406C0F0E0E370F070EC
:102CD000E55CFE4F09C0E770F070E15CFE4F04C098
:102CE000E370F070E95BFE4F6081CE010E94F51544
:102CF00020E030E002C021E030E0C901DF91CF9157
:102D00001F910F910895AF92BF92CF92DF92EF92F1
:102D1000FF920F931F93CF93DF938C016B017A0186
:102D2000009719F1FC0183898823F9F0423051059D
:102D3000E0F4C0E0D0E020EDA22E27E0B22E0FC0DC
:102D4000C801B7010E942116F8018189928904C047
:102D5000F5013197F1F701970097D1F72196CC153E
:102D6000DD0570F320E030E002C021E030E0C90171
:102D7000DF91CF911F910F91FF90EF90DF90CF9057
:102D8000BF90AF900895CF92DF92EF92FF920F9392
:102D90001F93CF93DF93EC016A01009721F18B8998
:102DA000882309F18F8598897C0100E010E08D85EA
:102DB0009E85029721F4EE0CFF1C001F111F9B0142
:102DC00040E050E0C801B7010E94C51728E631E095
:102DD00040E050E00E94F817CE01B901A6010E9420
:102DE00083169C0102C021E030E0C901DF91CF9140
:102DF0001F910F91FF90EF90DF90CF900895CF93A8
:102E0000DF93EC010097C1F08B898823A9F0CE01F4
:102E100060E00E94F5158C85882351F088856985CE
:102E200040E00E941A048A856B8540E00E941A04E3
:102E30001D8A20E030E002C021E030E0C901DF91CE
:102E4000CF910895CF93DF93EC01009779F18B89AF
:102E5000882361F18C85882351F08885698541E05C
:102E60000E941A048A856B8541E00E941A04EC894D
:102E70008D859E85009721F0F0E0029761F406C0F1
:102E8000F0E0E370F070E55CFE4F09C0E770F070B1
:102E9000E15CFE4F04C0E370F070E95BFE4F6081BF
:102EA000CE010E94F51520E030E002C021E030E0C4
:102EB000C901DF91CF910895CF93DF93EC01009783
:102EC00009F45DC02881243008F059C08A8184301B
:102ED00008F055C08C81843008F051C08E81843058
:102EE00008F04DC08F859889892B09F448C0822F3E
:102EF000698141E00E9459038A816B8141E00E940F
:102F000059038C816D8141E00E9459038E816F814C
:102F100041E00E9459038C858823D1F09885943034
:102F200070F58A85843058F5892F698541E00E94C3
:102F300059038A856B8541E00E945903888569851C
:102F400041E00E941A048A856B8541E00E941A04C0
:102F500089899A89892B21F481E090E09A8B898B69
:102F60001C8A1E8A1F8A188E198E1D8ACE0160E067
:102F70000E94F51581E08B8B20E030E002C021E05B
:102F800030E0C901DF91CF910895629FD001739F16
:102F9000F001829FE00DF11D649FE00DF11D929FF5
:102FA000F00D839FF00D749FF00D659FF00D992734
:102FB000729FB00DE11DF91F639FB00DE11DF91F58
:102FC000BD01CF0111240895AA1BBB1B51E107C00D
:102FD000AA1FBB1FA617B70710F0A61BB70B881FA9
:102FE000991F5A95A9F780959095BC01CD01089538
:102FF000A1E21A2EAA1BBB1BFD010DC0AA1FBB1FFD
:10300000EE1FFF1FA217B307E407F50720F0A21B6E
:10301000B30BE40BF50B661F771F881F991F1A94DB
:1030200069F760957095809590959B01AC01BD0105
:10303000CF010895AEE0B0E0E0E2F8E10C94D61ADA
:103040000D891E898F89988D97FF02C080E090E8D6
:1030500001979E838D831A83098386E08C839E016A
:10306000255E3F4FCE010196698D7A8DA9010E94A0
:103070004B184D815E8157FD0AC02F81388542175C
:1030800053070CF49A01020F131FF80110822E96B9
:10309000E4E00C94F21AABE0B0E0E1E5F8E10C9466
:1030A000C81A3C012B015A01FC0117821682838148
:1030B00081FD03C06FEF7FEFC6C19AE0892E1E012C
:1030C0000894211C311CF3012381F20123FD859119
:1030D00023FF81912F01882309F4B2C1853239F48D
:1030E00023FD859123FF81912F01853229F490E002
:1030F000B3010E943E1AE7CF982FFF24EE249924B3
:10310000FFE1FF15D0F09B3269F09C3228F4903239
:1031100059F0933291F40EC09D3249F0903369F426
:1031200041E024C052E0F52A84E0F82A28C098E063
:10313000F92A25C0E0E1FE2A22C0F7FC29C0892F28
:1031400080538A3070F4F6FE05C0989C902C1124B0
:10315000980E15C0E89CE02C1124E80EF0E2FF2A3E
:103160000EC09E3229F4F6FC6BC140E4F42A07C07D
:103170009C3619F450E8F52A02C0983649F4F20159
:1031800023FD959123FF91912F01992309F0B8CF49
:10319000892F8554833018F08052833038F444E00E
:1031A00050E0A40EB51E5FE359830FC0933631F093
:1031B000933779F0933509F056C020C0F50180812E
:1031C000898342E050E0A40EB51E610101E010E0E9
:1031D00012C0F501C080D180F6FC03C06FEF7FEF15
:1031E00002C0692D70E042E050E0A40EB51EC60199
:1031F0000E94331A8C015FE7F52214C0F501C080EC
:10320000D180F6FC03C06FEF7FEF02C0692D70E044
:1032100042E050E0A40EB51EC6010E94281A8C019F
:1032200050E8F52AF3FE07C01AC080E290E0B3012F
:103230000E943E1AEA948E2D90E008171907A8F311
:103240000EC0F601F7FC8591F7FE81916F0190E0C9
:10325000B3010E943E1AE110EA940150104001159A
:10326000110579F7EAC0943611F0993669F5F7FE41
:1032700008C0F501208131814281538184E090E0D2
:103280000AC0F501808191819C01442737FD40955A
:10329000542F82E090E0A80EB91E9FE6F92257FF56
:1032A00009C050954095309521953F4F4F4F5F4F46
:1032B000E0E8FE2ACA01B901A1012AE030E00E943B
:1032C0006A1AD82ED21840C0953729F41F2D1F7EB8
:1032D0002AE030E01DC01F2D197F9F3661F0903726
:1032E00020F4983509F0ACC00FC0903739F098370A
:1032F00009F0A6C004C028E030E00AC0106114FD47
:10330000146020E130E004C014FD166020E132E0DA
:1033100017FF08C0F501608171818281938144E0CB
:1033200050E008C0F50180819181BC0180E090E00F
:1033300042E050E0A40EB51EA1010E946A1AD82EE8
:10334000D2188FE7F82EF122F6FE0BC05EEFF522C1
:10335000D91438F4F4FE07C0F2FC05C08FEEF82251
:1033600002C01D2D01C0192DF4FE0DC0FE01ED0D92
:10337000F11D8081803319F499EEF92208C01F5F96
:10338000F2FE05C003C08F2D867809F01F5F0F2D58
:10339000F3FC14C0F0FE0FC01E1510F09D2C0BC0E6
:1033A0009D2C9E0C911A1E2D06C080E290E0B30168
:1033B0000E943E1A1F5F1E15C0F304C01E1510F4B4
:1033C000E11A01C0EE2404FF0FC080E390E0B301D6
:1033D0000E943E1A02FF1DC001FD03C088E790E075
:1033E0000EC088E590E00BC0802F867891F001FF39
:1033F00002C08BE201C080E2F7FC8DE290E0B301F5
:103400000E943E1A06C080E390E0B3010E943E1A7B
:103410009A94D914C0F3DA94F101ED0DF11D808175
:1034200090E0B3010E943E1ADD20A9F706C080E2B9
:1034300090E0B3010E943E1AEA94EE20C1F743CE19
:10344000F30166817781CB012B96E2E10C94E41ABB
:10345000FC010590615070400110D8F7809590955F
:103460008E0F9F1F0895FC01615070400190011064
:10347000D8F7809590958E0F9F1F08950F931F93F7
:10348000CF93DF938C01EB018B8181FF1BC082FF07
:103490000DC02E813F818C819D812817390764F4EE
:1034A000E881F9810193F983E88306C0E885F9850D
:1034B000802F0995892B31F48E819F8101969F83FE
:1034C0008E8302C00FEF1FEFC801DF91CF911F91D4
:1034D0000F910895FA01AA27283051F1203181F186
:1034E000E8946F936E7F6E5F7F4F8F4F9F4FAF4F0C
:1034F000B1E03ED0B4E03CD0670F781F891F9A1F1F
:10350000A11D680F791F8A1F911DA11D6A0F711DD2
:10351000811D911DA11D20D009F468943F912AE0DE
:10352000269F11243019305D3193DEF6CF010895C6
:10353000462F4770405D4193B3E00FD0C9F7F6CFF7
:10354000462F4F70405D4A3318F0495D31FD4052BF
:10355000419302D0A9F7EACFB4E0A6959795879555
:1035600077956795BA95C9F7009761057105089534
:103570009B01AC010A2E06945795479537952795E0
:10358000BA95C9F7620F731F841F951FA01D089578
:103590002F923F924F925F926F927F928F929F9263
:1035A000AF92BF92CF92DF92EF92FF920F931F9351
:1035B000CF93DF93CDB7DEB7CA1BDB0B0FB6F89402
:1035C000DEBF0FBECDBF09942A88398848885F8442
:1035D0006E847D848C849B84AA84B984C884DF80B3
:1035E000EE80FD800C811B81AA81B981CE0FD11D97
:1035F0000FB6F894DEBF0FBECDBFED010895F8946D
:02360000FFCFFA
:1036020056656869636C652044617368626F6172B4
:1036120064002020496E697469616C697A696E6719
:103622002E2E0044617368626F617264207265615C
:1036320064790D0A005350443A20253375206B6D8E
:103642002F68202020002121204F564552535045FB
:1036520045442021212000202048415A4152442043
:103662004F4E2020202020003C3C204C4546542038
:103672005455524E2020202000202020202020209F
:1036820020202020202020202000202020524947D6
:103692004854205455524E203E3E005350443D253E
:1036A20075204F56533D25750D0A008025000003F5
:1036B2000000000000010000000300000000000004
:1036C200000100050000004D003A003700340031CF
:1036D200003F065B4F666D7D077F6F0102040801A4
:0C36E200030206040C080903060C090092
:00000001FF
