:100000000C942A000C9451070C9447000C94470060
:100010000C94AC0C0C94830C0C946A060C945A0C43
:100020000C9447000C94310C0C94080C0C94DF0BCE
:100030000C9447000C94880D0C9447000C944700D6
:100040000C9447000C9447000C9447000C94470014
:100050000C94470011241FBECFE5D8E0DEBFCDBF12
:1000600012E0A0E6B0E0EAE9F0E402C005900D92EB
:10007000AA32B107D9F712E0AAE2B2E001C01D929C
:10008000A239B107E1F70E9453000C944B200C9465
:10009000000080912A0290912B02019690932B02EE
:1000A00080932A0208952F923F924F925F926F920F
:1000B0007F928F929F92AF92BF92CF92DF92EF92F8
:1000C000FF920F931F93DF93CF93CDB7DEB7A09727
:1000D0000FB6F894DEBF0FBECDBF81E060E040E018
:1000E0000E94A50881E061E040E00E94A50881E04F
:1000F00060E041E00E94660981E061E041E00E9429
:10010000660981E062E041E00E94A50881E063E0C9
:1001100041E00E94A50881E062E040E00E9466099B
:1001200081E063E040E00E94660981E064E041E034
:100130000E94A50881E065E041E00E94A50881E0F9
:1001400066E041E00E94A50881E064E040E00E9492
:10015000660981E065E040E00E94660981E066E0B2
:1001600040E00E94660983E063E040E00E94A50849
:1001700083E063E041E00E94660983E067E041E0DC
:100180000E94A508DE011396E9EAF0E08AE00190FA
:100190000D928150E1F7CE0103960E94270A80E07C
:1001A00090E061E070E049E450E00E94BF0B80E025
:1001B00090E061E070E00E94340BDE011D96EFE9F3
:1001C000F0E08AE001900D928150E1F7CE010D96AA
:1001D0000E94270A8EB580688EBD8EB580648EBD64
:1001E00081E090E060E070E040E656E00E94BF0BE6
:1001F00081E090E060E070E00E94340B89B780629B
:1002000089BF85B7826085BF85B78E7F85BF85B77B
:10021000836085BF8AB780648ABF8BB780648BBFD9
:10022000DE015796E5E9F0E08AE001900D928150F9
:10023000E1F7CE0147960E94D50C81E090E09093C3
:1002400083028093820292E090938402109285024E
:1002500011E01093860206E00093870285E0809308
:10026000880284E08093890210938A0290938B0223
:1002700080E180938C0282E892E00E94CB16198381
:100280000A83CE0101960E9427088AB3807F8ABB29
:100290008BB3807F8BBB78948FEF0E94B10782E88D
:1002A00092E060E040E020E630E00E947A1682E8CA
:1002B00092E061E040E022E730E00E947A1680E3BD
:1002C00095E728EC30E0F9013197F1F70197D9F77C
:1002D00080E00E94B10782E892E00E94301683E835
:1002E00090E00E94470D82E090E090933B02809363
:1002F0003A0280E090E044245524EE24FF24662452
:10030000772488249924AA24BB24CC24DD2400E06B
:1003100010E001C0C10120902A0230902B0291010F
:10032000281B390B420E531EE20EF31E620E731E83
:10033000820E931EA20EB31EC20ED31E020F131FF7
:100340000E9481070E94410580912F02882321F09D
:1003500010922F020E94A1020E94E00532E3431690
:10036000510420F00E94DB074424552484E6E8165B
:10037000F10480F00E94DD0680915002882341F450
:100380008091570290915802892B11F00E943706F4
:10039000EE24FF249AEF6916710420F00E9468078A
:1003A000662477242AEF8216910420F00E94AF027F
:1003B0008824992431E0023C130700F18091600207
:1003C00091E08927809360028823B1F080915D02DB
:1003D000882341F480915E02882321F480915F029A
:1003E000882351F081E00E94270280E49CE9019774
:1003F000F1F780E00E94270200E010E024EFA2164F
:1004000021E0B20620F00E946905AA24BB2438E846
:10041000C31633E1D30620F00E943502CC24DD243C
:1004200080915702909158028837910508F472CF55
:1004300081E00E94270284EF91E0E8ECF0E0319740
:10044000F1F70197D1F780E00E94270263CF88235C
:1004500029F08BE485BD8FE783BD089515BC83E04B
:1004600067E040E00E94660908950F931F93DF93B1
:10047000CF93CDB7DEB7C054D0400FB6F894DEBFEF
:100480000FBECDBF8DB79EB744970FB6F8949EBFF1
:100490000FBE8DBFEDB7FEB731968E010F5F1F4FB8
:1004A000ADB7BEB712961C930E93119780E490E0FF
:1004B0009383828383EB90E09583848380915702BA
:1004C000909158029783868380915B0290915C02A1
:1004D0009187808780913002909131029387828743
:1004E0008091320290913302958784878091340203
:1004F00090913502A0913602B09137028687978796
:10050000A08BB18B8091380290913902938B828BB2
:100510000E94661D8DB79EB744960FB6F8949EBF95
:100520000FBE8DBFC8010E94470DC05CDF4F0FB6E4
:10053000F894DEBF0FBECDBFCF91DF911F910F9119
:10054000089580912C0290912D02019665E070E053
:100550000E94301D90932D0280932C020895AF923B
:10056000BF92CF92DF92EF92FF920F931F93DF9390
:10057000CF93CDB7DEB7A2970FB6F894DEBF0FBE0C
:10058000CDBF80912C0290912D028230910509F40B
:1005900035C18330910530F4009761F0019709F07F
:1005A0004DC2F2C08330910509F48EC1049709F061
:1005B00045C2F4C12DB73EB72A5030400FB6F8946B
:1005C0003EBF0FBE2DBFEDB7FEB73196CE010196EF
:1005D000ADB7BEB712969C938E93119701E110E0D0
:1005E0001383028383EE90E0958384838091570286
:1005F000909158029783868380915B0290915C0270
:10060000918780870E94661D80916102EDB7FEB7D9
:100610003A960FB6F894FEBF0FBEEDBF81FF13C030
:1006200000D000D000D0EDB7FEB73196CE01429693
:10063000ADB7BEB712969C938E9311971383028326
:1006400083EF90E099C083FF13C000D000D000D0AA
:10065000EDB7FEB73196CE014296ADB7BEB7129652
:100660009C938E9311971383028384E091E084C05E
:1006700082FF13C000D000D000D0EDB7FEB7319696
:10068000CE014296ADB7BEB712969C938E9311974A
:100690001383028385E191E06FC080FF13C000D017
:1006A00000D000D0EDB7FEB73196CE014296ADB77F
:1006B000BEB712969C938E9311971383028386E2A2
:1006C00091E05AC080915F02882399F000D000D059
:1006D00000D0EDB7FEB73196CE014296ADB7BEB7AA
:1006E00012969C938E9311971383028387E391E074
:1006F00043C080915D02882399F000D000D000D0E3
:10070000EDB7FEB73196CE014296ADB7BEB71296A1
:100710009C938E9311971383028388E491E02CC0FD
:1007200080915E029E012E5E3F4F882399F000D09B
:1007300000D000D0EDB7FEB73196ADB7BEB7129678
:100740003C932E93119781E190E09383828389E516
:1007500091E012C000D000D000D0EDB7FEB73196C6
:10076000ADB7BEB712963C932E93119781E190E0FE
:10077000938382838AE691E0958384830E94661D39
:10078000EDB7FEB7369655C12DB73EB7285030406D
:100790000FB6F8943EBF0FBE2DBFEDB7FEB7319632
:1007A000CE010196ADB7BEB712969C938E9311976A
:1007B00001E110E0138302838BE791E0958384834A
:1007C00080915B0290915C02978386830E94661DF4
:1007D000EDB7FEB73196CE014296ADB7BEB71296D1
:1007E0009C938E931197138302838BE891E09583FA
:1007F000848380913202909133025EC0C0903402B3
:10080000D0903502E0903602F09037022DB73EB717
:100810002A5030400FB6F8943EBF0FBE2DBF0DB723
:100820001EB70F5F1F4FCE010196ADB7BEB7129630
:100830009C938E93119791E1A92EB12CF801B3826C
:10084000A2828CE991E095838483C701B60128EEEA
:1008500033E040E050E00E94441DD80117963C93DD
:100860002E931697C701B60128EE33E040E050E022
:100870000E94441D24E630E040E050E00E94441D08
:10088000F801318720870E94661D0F900F90EDB709
:10089000FEB73196CE014296ADB7BEB712969C9385
:1008A0008E931197B382A2828EEA91E0958384831E
:1008B0008091300290913102978386830E94661D59
:1008C000EDB7FEB73896B5C02DB73EB72A503040C9
:1008D0000FB6F8943EBF0FBE2DBF0DB71EB70F5F0A
:1008E0001F4FCE010196ADB7BEB712969C938E9363
:1008F000119781E1E82EF12CF801F382E28280EC7D
:1009000091E09583848360914202709143028091CB
:1009100044029091450228EE33E040E050E00E940E
:10092000441DD80116962D933D934D935C931997D2
:100930000E94661D0DB71EB70F5F1F4FCE01429676
:10094000EDB7FEB792838183D8011396FC92EE92A5
:1009500012978FEC91E015969C938E93149760916B
:100960003E0270913F02809140029091410220E44A
:1009700032E44FE050E00E94441DF80126833783A3
:10098000408751870E94661D2DB73EB7265F3F4FB7
:100990000FB6F8943EBF0FBE2DBF50C02091550238
:1009A000309156028DB79EB70A970FB6F8949EBF46
:1009B0000FBE8DBFEDB7FEB73196CE010196ADB734
:1009C000BEB712969C938E93119701E110E01383AA
:1009D00002838EED91E09583848337832683809113
:1009E000570290915802918780870E94661DEDB74B
:1009F000FEB73196CE014296ADB7BEB712969C9324
:100A00008E9311971383028382EF91E09583848301
:100A100080915B0290915C02978386838091300283
:100A200090913102918780870E94661DEDB7FEB7D5
:100A30003A960FB6F894FEBF0FBEEDBF82E892E083
:100A400060E040E09E012F5F3F4F0E947A1682E8EF
:100A500092E061E040E09E012E5E3F4F0E947A16D8
:100A6000A2960FB6F894DEBF0FBECDBFCF91DF9137
:100A70001F910F91FF90EF90DF90CF90BF90AF90BC
:100A8000089583E063E00E94010990912E0288237B
:100A900021F4953038F49F5F03C0992319F09150E9
:100AA00090932E0280912E02853049F480910602A7
:100AB000813071F41092060280932F0208958823EA
:100AC00039F480910602882319F481E080930602AC
:100AD00008950F931F93DF93CF9300D0CDB7DEB768
:100AE00080E08E010F5F1F4FB8010E948908698165
:100AF0007A8180E090E024E630E040E050E00E941F
:100B0000111D2FEF33E040E050E00E94441D309370
:100B100031022093300281E0B8010E948908698186
:100B20007A8180E090E02AEA30E040E050E00E94E4
:100B3000111D2FEF33E040E050E00E94441D285D7E
:100B40003F4F309333022093320282E0B8010E947B
:100B5000890869817A8180E090E020E83EE340E006
:100B600050E00E94111D2FEF33E040E050E00E9462
:100B7000441D209334023093350240933602509343
:100B8000370283E0B8010E94890869817A8180E098
:100B900090E024E630E040E050E00E94111D2FEF8D
:100BA00033E040E050E00E94441D3093390220932E
:100BB00038020F900F90CF91DF911F910F91089500
:100BC00080913A0290913B0282309105B1F08330DE
:100BD000910530F4009759F0019709F047C00AC019
:100BE00083309105C1F0049709F040C032C081E024
:100BF00090E025C082E090E022C080915B0290915D
:100C00005C02855F914090F110923D0210923C028F
:100C100083E090E014C080915B0290915C028C5262
:100C2000914090F480913C0290913D020196909306
:100C30003D0280933C020597C8F084E090E09093D9
:100C40003B0280933A02089510923D0210923C02BA
:100C5000089580915B0290915C02855F914030F035
:100C600083E090E090933B0280933A020895809154
:100C70003E0290913F02A0914002B09141028C50FF
:100C80009E4FAF4FBF4F80933E0290933F02A09381
:100C90004002B09341028091420290914302A091A0
:100CA0004402B09145028C509E4FAF4FBF4F80938E
:100CB000420290934302A0934402B09345020895E8
:100CC000809146029091470201969093470280934B
:100CD000460208951F920F920FB60F921124EF92C1
:100CE000FF920F931F932F933F934F935F936F93B5
:100CF0007F938F939F93AF93BF9326B537B5609142
:100D000046027091470288B78695869580FF04C099
:100D100037FD02C06F5F7F4FCB01A0E0B0E0DC0188
:100D20009927882740E050E0822B932BA42BB52BEA
:100D3000209148023091490240914A0250914B0261
:100D40007C018D01E21AF30A040B150BE0924C02B0
:100D5000F0924D0200934E0210934F02809348028E
:100D600090934902A0934A02B0934B0280935102A0
:100D700090935202A0935302B093540281E0809367
:100D8000500280915502909156020196909356021E
:100D900080935502BF91AF919F918F917F916F91F9
:100DA0005F914F913F912F911F910F91FF90EF9085
:100DB0000F900FBE0F901F901895EF92FF920F9318
:100DC0001F93CF93DF93F894C0915502D0915602B0
:100DD0001092560210925502789403C00E94370672
:100DE00021972097D9F780914602909147022CB520
:100DF0003DB5E0905102F0905202009153021091E3
:100E00005402A0E0B0E0DC019927882740E050E0E0
:100E1000822B932BA42BB52B8E199F09A00BB10B02
:100E20008954984EA140B04028F010925802109278
:100E3000570230C080915002882361F11092500215
:100E400080914C0290914D02A0914E02B0914F02C0
:100E50000097A105B105F1F020914C0230914D02AF
:100E600040914E0250914F0263E0220F331F441F06
:100E7000551F6A95D1F760E477E78BE190E00E9417
:100E8000441D2B3F310510F020E030E03093580234
:100E900020935702DF91CF911F910F91FF90EF9018
:100EA00008951F920F920FB60F9211248F939F9364
:100EB0008091590290915A02019690935A02809320
:100EC00059029F918F910F900FBE0F901F90189510
:100ED000F8948091590290915A0210925A021092FD
:100EE0005902789428E730E0AC01429FC001439F4B
:100EF000900D529F900D112490935C0280935B02A1
:100F00000895CF93DF9381E060E00E940109EC0136
:100F100081E061E00E94010920E0892B09F421E0D1
:100F2000CD2B61F4222321F081E080935F0212C077
:100F300010925F0281E080935D020EC0222341F097
:100F400010925F0210925D0281E080935E0206C003
:100F500010925F0210925D0210925E02DF91CF91BB
:100F600008950F931F93CF93DF9380936102C7E09F
:100F7000D0E0082F10E0A8010C2E02C0569547952E
:100F80000A94E2F7417081E062E00E94660981E024
:100F900063E041E00E94660981E063E040E00E9476
:100FA000660921978FEFCF3FD80729F7DF91CF91BF
:100FB0001F910F91089520E08091300290913102AD
:100FC0000A9708F421E080913802909139020A973B
:100FD00040F480915B0290915C02855F914008F043
:100FE00022608091340290913502A0913602B09136
:100FF0003702805E9E42A040B040895B9B40A0408B
:10100000B04008F0246080913202909133028F3614
:10101000910508F0286080915D02882321F4809179
:101020005F02882321F0809160028111206280910B
:101030005E02882321F480915F02882321F0809151
:10104000600281112064822F0E94B1070895FC0183
:10105000009719F421E030E020C03E983F9880814D
:1010600080FD3E9A869580FD3F9A3D983898399844
:101070003A983B983C98309831983298918190FDFD
:10108000309A892F869580FD319A892F869586958D
:1010900080FD329A379A20E030E0C90108953798F0
:1010A00080E090E00895982F883018F021E030E03B
:1010B00013C0389839983A983B983C9880FD389AF4
:1010C000892F869580FD399A892F8695869580FD92
:1010D0003A9A369A20E030E0C901089586B18295A7
:1010E000869586958370809581700895FC010097A0
:1010F00019F421E030E00BC084B145B1342F20E079
:1011000090E0282B392B3183208320E030E0C90187
:101110000895CF93DF93EB010E945308BC01009721
:1011200081F43699FECF209719F461E070E009C090
:1011300084B145B1342F20E090E0282B392B39833E
:101140002883CB01DF91CF910895843090F56830EA
:1011500080F5442319F0413061F515C0E82FF0E027
:10116000EE0FFF1FE95FFD4F0190F081E02D208120
:1011700081E090E002C0880F991F6A95E2F78095A0
:101180008223808313C0E82FF0E0EE0FFF1FE95F9A
:10119000FD4F0190F081E02D208181E090E002C0C0
:1011A000880F991F6A95E2F7282B208320E030E012
:1011B00002C021E030E0C90108958430F0F46623D4
:1011C00019F06130D1F40BC0E82FF0E0EE0FFF1FF3
:1011D000E95FFD4F0190F081E02D10820BC0E82FF8
:1011E000F0E0EE0FFF1FE95FFD4F0190F081E02D71
:1011F0008FEF808320E030E002C021E030E0C901C1
:101200000895843008F56830F8F4813039F0813081
:1012100040F0823049F08330B9F409C0E6E3F0E0F1
:1012200008C0E9E3F0E005C0E3E3F0E002C0E0E37A
:10123000F0E08081282F30E002C0359527956A952F
:10124000E2F72170307002C020E030E0C90108955B
:10125000843088F4813049F0813028F0823039F0D0
:10126000833049F406C089B3089586B3089583B3E3
:10127000089580B3089580E00895843018F56830AB
:1012800008F5813039F0813040F0823049F0833008
:10129000C9F409C0E8E3F0E008C0EBE3F0E005C002
:1012A000E5E3F0E002C0E2E3F0E0208181E090E0DD
:1012B00002C0880F991F6A95E2F72827208320E053
:1012C00030E002C021E030E0C9010895843080F5AB
:1012D000683070F5813039F0813040F0823049F06B
:1012E000833031F509C0E8E3F0E008C0EBE3F0E05B
:1012F00005C0E5E3F0E002C0E2E3F0E0442359F486
:10130000208181E090E002C0880F991F6A95E2F782
:101310008095282309C0208181E090E002C0880FD9
:10132000991F6A95E2F7282B208320E030E002C065
:1013300021E030E0C90108958430C0F4813039F0F3
:10134000813040F0823049F0833081F409C0E8E315
:10135000F0E008C0EBE3F0E005C0E5E3F0E002C038
:10136000E2E3F0E0608320E030E002C021E030E022
:10137000C901089581E090E0089581E090E008952A
:1013800081E090E0089581E090E0089581E090E0B0
:10139000089581E090E0089581E090E0089581E073
:1013A00090E0089580E0089581E090E0089581E064
:1013B00090E0089581E090E0089581E090E0089544
:1013C00081E090E0089581E090E0089581E090E070
:1013D00008950895089581E090E0089581E090E0F7
:1013E000089581E090E0089581E090E0089581E023
:1013F00090E0089581E090E008958330910518F51C
:101400008130910571F08130910518F00297D9F47F
:1014100012C083B7887F83BF83B76770862B83BF73
:1014200007C08EB5887F8EBD8EB56770862B8EBD4A
:1014300020E030E00AC085B5887F85BD85B567703E
:10144000862B85BDF5CF21E030E0C9010895FC0170
:10145000009709F494C0408151814330510508F050
:101460008EC0228133814115510529F0423051054A
:1014700009F043C021C02130310569F02130310528
:1014800020F02230310589F409C083B78F7B83BFF8
:1014900083B7877F08C083B78F7B02C083B7806420
:1014A00083BF83B7886083BF51C083B7806483BF25
:1014B00083B7877F83BF40C02130310569F0213079
:1014C000310520F02230310589F409C085B58F7BC4
:1014D00085BD85B5877F08C085B58F7B02C085B582
:1014E000806485BD85B5886085BD3EC085B5806456
:1014F00085BD85B5877F85BD1FC08FB58E7F8FBDAC
:101500008FB58D7F8FBD8EB5877F8EBD8EB58F7E5B
:101510008EBD2130310549F02130310568F022308F
:10152000310539F48FB581608FBD8EB588608EBD71
:1015300003C08FB581608FBD4130510561F04130EE
:10154000510520F042305105D1F40EC0868182BF92
:1015500080858CBF0DC0868197819DBD8CBD8085A7
:1015600091859BBD8ABD04C0868184BD808583BD75
:1015700064817581CA010E94FD099C0102C021E0BD
:1015800030E0C901089583309105B8F481309105A8
:1015900051F08130910518F0029779F40AC083B7B1
:1015A000887F83BF03C08EB5887F8EBD20E030E08A
:1015B00006C085B5887F85BDF9CF21E030E0C9013F
:1015C00008958330910590F48130910541F0813088
:1015D000910518F0029751F407C062BF02C07DBDAB
:1015E0006CBD20E030E004C064BDFBCF21E030E002
:1015F000C9010895FB0183309105C8F46115710597
:10160000B1F08130910541F08130910518F00297D9
:1016100071F409C082B708C08CB59DB591838083F1
:1016200020E030E006C084B580831182F9CF21E04C
:1016300030E0C90108958330910590F4813091051F
:1016400041F08130910518F0029751F407C06CBF4A
:1016500002C07BBD6ABD20E030E004C063BDFBCFAB
:1016600021E030E0C90108958330910510F5813003
:10167000910569F08130910518F00297D1F40EC000
:1016800099B7672B11F481E00FC082E00DC099B7C4
:10169000672B11F080E108C084E006C099B7672B82
:1016A00011F080E801C080E4892B89BF20E030E0A0
:1016B00002C021E030E0C90108958330910510F5A2
:1016C0008130910569F08130910518F00297D1F4CD
:1016D0000EC099B7672B11F48EEF0FC08DEF0DC0C0
:1016E00099B7672B11F08FEE08C08BEF06C099B742
:1016F000672B11F08FE701C08FEB892389BF20E0B2
:1017000030E002C021E030E0C9010895CF93DF93BB
:10171000EC018330910568F560E070E00E945D0B9C
:10172000CE0161E070E00E945D0BC130D10551F047
:10173000C130D10520F0C230D105D9F408C013BEA4
:1017400012BE07C01FBC1EBC1DBC1CBC02C015BC09
:1017500014BCCC0FDD1FCC0FDD1FFE01EE59FD4F79
:1017600011821082CC59DD4F1982188220E030E0BE
:1017700002C021E030E0C901DF91CF910895FC0162
:101780008330910580F44115510569F0EE0FFF1F7C
:10179000E60FF71FEE0FFF1FEE59FD4F51834083F9
:1017A00020E030E002C021E030E0C90108958FB7A9
:1017B00080688FBF08958FB78F778FBF08951F926E
:1017C0000F920FB60F9211242F933F934F935F9375
:1017D0006F937F938F939F93AF93BF93EF93FF93F9
:1017E000E0916202F0916302309709F00995FF9150
:1017F000EF91BF91AF919F918F917F916F915F9189
:101800004F913F912F910F900FBE0F901F90189501
:101810001F920F920FB60F9211242F933F934F9365
:101820005F936F937F938F939F93AF93BF93EF9348
:10183000FF93E0916402F0916502309709F00995F9
:10184000FF91EF91BF91AF919F918F917F916F9198
:101850005F914F913F912F910F900FBE0F901F906E
:1018600018951F920F920FB60F9211242F933F934A
:101870004F935F936F937F938F939F93AF93BF9398
:10188000EF93FF93E0916602F0916702309709F0C1
:101890000995FF91EF91BF91AF919F918F917F91AA
:1018A0006F915F914F913F912F910F900FBE0F90CD
:1018B0001F9018951F920F920FB60F9211242F931D
:1018C0003F934F935F936F937F938F939F93AF93C8
:1018D000BF93EF93FF93E0916802F0916902309714
:1018E00009F00995FF91EF91BF91AF919F918F9171
:1018F0007F916F915F914F913F912F910F900FBE0C
:101900000F901F9018951F920F920FB60F921124EF
:101910002F933F934F935F936F937F938F939F93F7
:10192000AF93BF93EF93FF93E0916A02F0916B0244
:10193000309709F00995FF91EF91BF91AF919F9179
:101940008F917F916F915F914F913F912F910F9068
:101950000FBE0F901F9018951F920F920FB60F9207
:1019600011242F933F934F935F936F937F938F93A4
:101970009F93AF93BF93EF93FF93E0916C02F0912D
:101980006D02309709F00995FF91EF91BF91AF91EA
:101990009F918F917F916F915F914F913F912F9187
:1019A0000F900FBE0F901F901895CF93DF93EC010F
:1019B0000097C9F1288139814A815B812115310560
:1019C0004105510581F184E0220F331F441F551F4B
:1019D0008A95D1F760E072E18AE790E00E94441DA9
:1019E00021503040832F8F7080BD29B92C813D81DB
:1019F0009E8193709295907F88858170880F880F63
:101A0000880F982B9068822F8370880F982B90BD39
:101A10002730310511F4529A01C05298539A549AC2
:101A200020E030E002C021E030E0C901DF91CF9139
:101A300008955398549857985698559810926F0255
:101A400010926E0280E090E008955D9BFECF8CB90D
:101A500080E090E00895FC01009719F421E030E067
:101A600006C05F9BFECF8CB1808320E030E0C901CF
:101A70000895FC01009739F05F9B05C08CB180830D
:101A800020E030E002C021E030E0C9010895009775
:101A900019F421E030E00BC0FC0104C05D9BFECFD7
:101AA0008CB9319680818823C9F720E030E0C901E4
:101AB00008950097D9F061157105C1F0A0E0B0E07C
:101AC000615070400AC05F9BFECF2CB1241741F0DB
:101AD000FC01EA0FFB1F20831196A617B70798F3A6
:101AE000A80FB91F1C9220E030E002C021E030E0D6
:101AF000C9010895009719F421E030E007C09093E0
:101B00006F0280936E02579A20E030E0C901089579
:101B10001F920F920FB60F9211242F933F934F9362
:101B20005F936F937F938F939F93AF93BF93EF9345
:101B3000FF938CB1E0916E02F0916F02309709F043
:101B40000995FF91EF91BF91AF919F918F917F91F7
:101B50006F915F914F913F912F910F900FBE0F901A
:101B60001F901895FB01DA018230910581F08330D6
:101B7000910518F40197C1F406C08330910559F01E
:101B8000049791F40CC081E0808383E00BC083E074
:101B9000808385E007C083E0808384E003C083E026
:101BA000808387E08C93089510821C920895823080
:101BB0009105A9F08330910518F4019751F506C0FD
:101BC00083309105A1F0049721F51AC0662319F01E
:101BD00083B7806202C083B78F7D83BF0895662379
:101BE00019F08FB580680AC08FB58F7707C066235C
:101BF00019F08FB5806202C08FB58F7D8FBD0895BB
:101C0000662321F085B5806285BD089585B58F7DF9
:101C100085BD08958230910571F08330910518F4E7
:101C20000197A1F406C08330910551F0049771F437
:101C30000CC06CBF0895862F90E09BBD8ABD0895AF
:101C4000862F90E099BD88BD089563BD0895FC017D
:101C5000DB01009769F08185882351F061157105DA
:101C600039F0838594858D939C9320E030E002C009
:101C700021E030E0C9010895FC01DB01009759F033
:101C80008185882341F06115710529F082858C9347
:101C900020E030E002C021E030E0C9010895FF9269
:101CA0000F931F93CF93DF93EC018B01623071058B
:101CB00039F06330710541F06130710549F402C0BB
:101CC00040E003C041E005C041E0FF24F39402C0BE
:101CD00040E0FF248885882339F0C80101970297E6
:101CE00018F48F2DF42E482F888169810E9466098F
:101CF0008A816B814F2D0E9466091C870B87DF91BB
:101D0000CF911F910F91FF900895CF93DF93EC0136
:101D10000097E9F089858823D1F0CE0163E070E077
:101D20000E944F0E8E819F81009731F48C816D81CE
:101D300041E00E94660908C06FEF0E940A0E8E8182
:101D40009F8161E00E94D70D20E030E002C021E0D9
:101D500030E0C901DF91CF9108950F931F93DF9376
:101D6000CF9300D0CDB7DEB78C01009749F1FC01CD
:101D70008185882329F11A821982C80160E070E008
:101D80000E944F0EF80186819781009719F4848193
:101D9000658110C0BE016F5F7F4FAE014E5F5F4F28
:101DA0000E94B20DF8018681978160E00E94D70DF4
:101DB00089816A8140E00E94660920E030E002C02B
:101DC00021E030E0C9010F900F90CF91DF911F917A
:101DD0000F9108950F931F93DF93CF9300D0CDB74A
:101DE000DEB78C01009769F1FC018185882349F1F8
:101DF0001A821982C8010E94AD0EF801868197816E
:101E00000097C9F0BE016F5F7F4FAE014E5F5F4F1D
:101E10000E94B20DF8018681978160E00E94D70D83
:101E2000F8018681978160E00E940A0E89816A81AB
:101E300040E00E946609F8011286118620E030E039
:101E400002C021E030E0C9010F900F90CF91DF91E7
:101E50001F910F9108950F931F93DF93CF9300D09D
:101E6000CDB7DEB78C0119821A82FC018681978179
:101E7000009741F440E08285811141E0F8018481BE
:101E8000658115C0BE016F5F7F4FAE014E5F5F4F32
:101E90000E94B20DF801928526813781992351F471
:101EA000C90160E00E94D70D89816A8140E00E94EB
:101EB000660911C08FEF989FC001112464E670E09D
:101EC0000E94301DC9010E940A0EF8018681978187
:101ED00061E00E94D70D0F900F90CF91DF911F917D
:101EE0000F910895CF93DF93EC01009771F08985EE
:101EF000882359F0CE0162E070E00E944F0ECE01BF
:101F00000E942B0F20E030E002C021E030E0C90148
:101F1000DF91CF910895CF93DF93EC01009771F09B
:101F20008985882359F0CE0161E070E00E944F0E50
:101F3000CE010E942B0F20E030E002C021E030E013
:101F4000C901DF91CF910895FC01009789F0818547
:101F5000882371F06230710558F4672B21F4CF01AA
:101F60000E948B0F03C0CF010E94720F9C0102C020
:101F700021E030E0C9010895FC01009769F08185F6
:101F8000882351F0653608F064E66287CF010E942D
:101F90002B0F20E030E002C021E030E0C9010895BD
:101FA0000F931F93DF93CF9300D0CDB7DEB78C0193
:101FB000009709F485C0FC012081243008F080C01E
:101FC0008281843008F07CC086819781059708F073
:101FD00077C061811A821982822F41E00E94A50890
:101FE000F8018281638141E00E94A508F8018081A7
:101FF000618140E00E946609F8018281638140E0CE
:102000000E946609F80186819781009779F484819E
:10201000843008F055C0658141E00E94A508F801B0
:102020008481658140E00E9466093BC0BE016F5F0C
:102030007F4FAE014E5F5F4F0E94B20D89816A8172
:1020400041E00E94A50889816A8140E00E946609FA
:10205000F801268137812430310538F422303105EA
:1020600060F421303105C9F404C024303105A9F4ED
:1020700011C08BE483BF1CBE10C08FB581608FBDC3
:102080008EB588608EBD8EB582608EBD8EB5816046
:102090008EBD03C08CE485BD13BCC90160E00E9405
:1020A000D70DF801128681E08187C80160E070E0F9
:1020B0000E944F0EC8010E942B0F20E030E002C0AA
:1020C00021E030E0C9010F900F90CF91DF911F9177
:1020D0000F910895CF92DF92EF92FF920F931F938B
:1020E000DF93CF9300D000D0CDB7DEB78C016B016A
:1020F000009709F469C06115710509F465C08FEF97
:10210000FB018083EE245EC0F80161816F0D808148
:1021100041E00E946609F394F4E0FF16A9F7F80184
:1021200061816E0D808140E00E946609FF24F80104
:1021300063816F0D82810E940109892BC1F51A828A
:10214000198212C01C821B8205C08B819C81019662
:102150009C838B838B819C8180549640B0F38981D2
:102160009A8101969A83898389819A81449750F351
:10217000F80163816F0D82810E940109892BB9F4F6
:10218000F80163816F0D82810E940109892BC1F3DF
:102190008E2D90E0880F991F880F991F080F191F27
:1021A0000F0D111DF8018481F601808308C0F3949E
:1021B000F4E0FF1609F0BBCFE394EF1619F420E02A
:1021C00030E004C0FF24A0CF21E030E0C9010F902F
:1021D0000F900F900F90CF91DF911F910F91FF9073
:1021E000EF90DF90CF9008950F931F93CF93DF93DD
:1021F0008C01EB01009779F06115710561F0C80160
:10220000BE010E946A10892B31F488818F3FB9F397
:1022100020E030E002C021E030E0C901DF91CF9141
:102220001F910F9108951F93CF93DF93EC010097B7
:10223000A9F18881843090F58A81843078F589818C
:1022400090E005975CF58B8190E005973CF510E0F8
:102250006981610F888141E00E94A508892BF1F412
:102260006981610F888141E00E9466091F5F143017
:1022700079F710E06B81610F8A8140E00E94A50828
:10228000892B61F46B81610F8A8141E00E946609AC
:102290001F5F143079F720E030E002C021E030E029
:1022A000C901DF91CF911F91089581E090E00895D9
:1022B00081E090E0089581E090E0089581E090E071
:1022C000089581E090E0089581E090E0089581E034
:1022D00090E0089581E090E00895CF92DF92FF9220
:1022E0000F931F93CF93DF93EC01F62E6A018901C0
:1022F0000E94C309892B41F48881880F0E94C90973
:10230000892B29F00E94C60921E030E018C08F2DEA
:102310000E94C909892BB1F7C0E0D0E009C0F601DD
:10232000EC0FFD1F80810E94C909892B59F7219666
:10233000C017D107A0F30E94C60920E030E0C90110
:10234000DF91CF911F910F91FF90DF90CF90089573
:10235000DC01AB010097F9F013968C911397882359
:10236000D1F061157105B9F020E030E002C02F5FB7
:102370003F4FFA01E20FF31F80818823C1F7211537
:10238000310519F420E030E008C0CD0160E40E947E
:102390006D119C0102C021E030E0C9010895DF9376
:1023A000CF930F92CDB7DEB7FC016983009789F018
:1023B0008381882371F0CF0160E4AE014F5F5F4FEE
:1023C00021E030E00E946D119C0185E88A95F1F7CB
:1023D00002C021E030E0C9010F90CF91DF91089554
:1023E0004F925F926F927F929F92AF92BF92CF92E5
:1023F000DF92EF92FF920F931F93DF93CF93CDB7AE
:10240000DEB766970FB6F894DEBF0FBECDBF5C0196
:10241000009709F46DC0FC018381882309F468C02A
:10242000411551056105710529F4C50160E30E945C
:10243000CF115CC077FF16C08DE28B87EE24FF249E
:102440008701E41AF50A060B170B992493943E01B1
:102450000894611C711C63018BE0482E512C4C0EBA
:102460005D1E1CC07A018B019924F1CFC801B70110
:102470002AE030E040E050E00E94441D605DF6013B
:1024800061936F01C801B7012AE030E040E050E0FD
:102490000E94441DC901DA017C018D012C2D2619F1
:1024A000E114F1040105110549F4322F992DBE0103
:1024B000655F7F4FAE014F5F5F4F0EC0C414D50400
:1024C000A9F6F3CF2150FB01E90FF11DDA01A20FAC
:1024D000B11D8C9180839F5F2223A1F7390DFB01F1
:1024E000E30FF11D1082C5010E94A8119C0102C0DA
:1024F00021E030E0C90166960FB6F894DEBF0FBE4A
:10250000CDBFCF91DF911F910F91FF90EF90DF90A2
:10251000CF90BF90AF909F907F906F905F904F90C3
:102520000895DF93CF930F92CDB7DEB769830097FD
:1025300019F421E030E00CC060E0AE014F5F5F4F66
:1025400021E030E00E946D119C0185E88A95F1F749
:10255000C9010F90CF91DF910895FC01009769F0B8
:102560008381882351F0662311F06CE101C068E19A
:10257000CF010E9491129C0102C021E030E0C9010C
:102580000895FC01009781F08381882369F084819C
:10259000662311F0816001C08E7F8483CF01648146
:1025A0000E9491129C0102C021E030E0C90108950F
:1025B000FC01009781F08381882369F08481662380
:1025C00011F0826001C08D7F8483CF0164810E94FD
:1025D00091129C0102C021E030E0C9010895FC0184
:1025E000009781F08381882369F08481662311F04C
:1025F000846001C08B7F8483CF0164810E9491122B
:102600009C0102C021E030E0C9010895CF93DF931F
:10261000EC01009791F08B81882379F0CE0162E084
:102620000E949112892B49F480EA9FE00197F1F70B
:102630001E821F8220E030E002C021E030E0C901AC
:10264000DF91CF910895CF93DF93EC01009791F044
:102650008B81882379F0CE0161E00E949112892B51
:1026600049F480EA9FE00197F1F71E821F8220E083
:1026700030E002C021E030E0C901DF91CF91089540
:102680000F931F93CF93DF93EC01162F042F009726
:1026900001F18B818823E9F089816817D0F46A8180
:1026A0004617B8F4123049F0133031F0113011F000
:1026B00060E003C060E401C0605C600F6068CE0150
:1026C0000E949112892B29F41E830F8320E030E0B1
:1026D00002C021E030E0C901DF91CF911F910F913D
:1026E00008950F931F93CF93DF93EC0189010E940C
:1026F0004013892B19F021E030E005C0CE01B8016C
:102700000E94A8119C01C901DF91CF911F910F91E7
:102710000895EF92FF920F93CF93DF93EC01009710
:1027200009F45CC0888187FD59C09981992309F417
:1027300055C08A81882309F451C0953008F04EC0F5
:102740001B8284EF91E028EC30E0F9013197F1F73A
:102750000197D9F78981823010F008E301C000E3C6
:10276000CE01602F0E949112892B09F037C080E1C1
:1027700097E20197F1F7CE01602F0E94911290E944
:10278000E92E91E0F92EC7010197F1F7CE01602FF4
:102790000E949112C7010197F1F788E08C83CE0166
:1027A00068E00E949112CE0161E00E94911280EADD
:1027B0009FE00197F1F786E08D83CE0166E00E94ED
:1027C00091128CE08C83CE016CE00E9491121E82EB
:1027D0001F8281E08B8320E030E002C021E030E006
:1027E000C901DF91CF910F91FF90EF900895EF9283
:1027F000FF920F931F93DF93CF93CDB7DEB7289748
:102800000FB6F894DEBF0FBECDBF8C017A010097E2
:10281000A1F1FC018381882381F14115510569F102
:10282000683058F5660F660F660F6064C8010E9435
:102830009112892B11F520E030E0AE014F5F5F4F20
:10284000FA01E20FF31FD701A20FB31F8C918F7112
:1028500080832F5F3F4F2830310591F7C80160E436
:1028600028E030E00E946D11892B39F4C80160E046
:1028700040E00E9440139C0102C021E030E0C90109
:1028800028960FB6F894DEBF0FBECDBFCF91DF9173
:102890001F910F91FF90EF900895EF92FF920F9389
:1028A0001F93CF93DF937C01C0E0D0E0062F10E0B0
:1028B000F70163816C0FA8010C2E02C05595479556
:1028C0000A94E2F7417082810E9466092196C43021
:1028D000D10571F7F7018481678141E00E946609A3
:1028E00015E0812F8A95F1F7F7018481678140E037
:1028F0000E9466091A95F1F7DF91CF911F910F9110
:10290000FF90EF900895EF92FF920F931F93CF9354
:10291000DF93EC01F62E88819981019739F500E06B
:1029200010E0E62EFF246B81600FA701002E02C08D
:10293000559547950A94E2F741708A810E9466098D
:102940000F5F1F4F0830110571F78C816F8141E0D7
:102950000E94660915E0812F8A95F1F78C816F81BD
:1029600040E00E9466091A95F1F70BC062956F70FE
:10297000CE010E944D148FE0F822CE016F2D0E94EF
:102980004D1485E88A95F1F7DF91CF911F910F9152
:10299000FF90EF9008951F93CF93DF93EC01162FD4
:1029A000009779F08B85882361F08C816D8141E0FF
:1029B0000E946609CE01612F0E94831420E030E05E
:1029C00002C021E030E0C901DF91CF911F9108954D
:1029D0004F925F926F927F928F929F92AF92BF922F
:1029E000CF92DF92EF92FF920F931F93DF93CF93DB
:1029F000CDB7DEB72A970FB6F894DEBF0FBECDBFB6
:102A00004C017A018B01009709F460C0FC018385B9
:102A1000882309F45BC0411551056105710531F446
:102A2000C40160E30E94CB149C0152C077FF16C022
:102A3000C4016DE20E94CB14AA24BB246501AE1828
:102A4000BF08C00AD10A3E010894611C711C7301C1
:102A50008BE0482E512C4C0E5D1E1BC05A016B01A1
:102A6000F2CFC601B5012AE030E040E050E00E941C
:102A7000441D605DF70161937F01C601B5012AE045
:102A800030E040E050E00E94441DC901DA015C01E1
:102A90006D011E2D1619A114B104C104D10469F0F1
:102AA000E414F504F1F609C01150F701E10FF11D2E
:102AB000C40160810E94CB1404C07E010894E11C13
:102AC000F11C112389F720E030E002C021E030E062
:102AD000C9012A960FB6F894DEBF0FBECDBFCF91C5
:102AE000DF911F910F91FF90EF90DF90CF90BF90FB
:102AF000AF909F908F907F906F905F904F900895D0
:102B00000F931F93CF93DF93EC01009799F08B8580
:102B1000882381F06115710569F08B0103C0CE0136
:102B20000E94CB14F80161918F016623C1F720E068
:102B300030E002C021E030E0C901DF91CF911F9168
:102B40000F9108951F93CF93DF93EC01162F0097F9
:102B500019F421E030E00BC08C816D8140E00E94CF
:102B60006609CE01612F0E94831420E030E0C90184
:102B7000DF91CF911F910895FC01009769F0838543
:102B8000882351F0662311F06CE101C068E1CF01A8
:102B90000E94A2159C0102C021E030E0C901089505
:102BA000FC01009781F08385882369F08485662382
:102BB00011F0816001C08E7F8487CF0164850E94FF
:102BC000A2159C0102C021E030E0C9010895FC017A
:102BD000009781F08385882369F08485662311F04E
:102BE000826001C08D7F8487CF0164850E94A21519
:102BF0009C0102C021E030E0C9010895FC0100976A
:102C000081F08385882369F08485662311F08460D0
:102C100001C08B7F8487CF0164850E94A2159C012F
:102C200002C021E030E0C9010895CF93DF93EC01A9
:102C3000009781F08B85882369F0CE0162E00E94C5
:102C4000A21580EA9FE00197F1F71E861F8620E01B
:102C500030E002C021E030E0C901DF91CF9108955A
:102C6000CF93DF93EC01009781F08B85882369F087
:102C7000CE0161E00E94A21580EA9FE00197F1F782
:102C80001E861F8620E030E002C021E030E0C9014E
:102C9000DF91CF9108950F931F93CF93DF93EC01B2
:102CA000162F042F0097F1F08B858823D9F08985A2
:102CB0006817C0F46A854617A8F4123049F013303B
:102CC00031F0113011F060E003C060E401C0605CDD
:102CD000600F6068CE010E94A2151E870F8720E05A
:102CE00030E002C021E030E0C901DF91CF911F91B7
:102CF0000F9108950F931F93CF93DF93EC018901F8
:102D00000E944B16892B19F021E030E005C0CE015E
:102D1000B8010E9480159C01C901DF91CF911F91DC
:102D20000F910895EF92FF920F931F93CF93DF932C
:102D30008C017A01009729F1FC018385882309F130
:102D400041155105F1F06830E0F4660F660F660F2B
:102D50006064C8010E94A215C0E0D0E0F701EC0F4A
:102D6000FD1F60816F71C8010E94CB142196C8308D
:102D7000D105A1F7C80160E040E00E944B169C011C
:102D800002C021E030E0C901DF91CF911F910F9186
:102D9000FF90EF9008950F931F93CF93DF93EC0173
:102DA000009709F4C3C08A81843008F0BFC08C81C9
:102DB000843008F0BBC09985992309F4B7C08A858F
:102DC000882309F4B3C0953008F0B0C08881998198
:102DD000019711F014E001C018E08B8190E0810FA1
:102DE000911D099708F0A2C000E06B81600F8A81F5
:102DF00041E00E94A5086B81600F8A8140E00E943B
:102E000066090F5F011788F38C816D8141E00E9494
:102E1000A5088C816F8141E00E94A5088C816D819D
:102E200040E00E9466098C816F8140E00E94660943
:102E30008885882351F08C816E8141E00E94A5082D
:102E40008C816E8140E00E94660984EF91E028EC5D
:102E500030E0F9013197F1F70197D9F7888199812D
:102E6000892BE9F4CE0163E00E944D1480E197E2E2
:102E70000197F1F7CE0163E00E944D140CE211E0DE
:102E8000C8010197F1F7CE0163E00E944D14C8011B
:102E90000197F1F7CE0162E00E944D1415C0CE01FA
:102EA00060E30E94831480E197E20197F1F7CE017D
:102EB00060E30E9483140CE211E0C8010197F1F76E
:102EC000CE0160E30E948314C8010197F1F7888165
:102ED0009981019711F460E301C060E28985823035
:102EE00008F06860CE010E94A21588E08C87CE01B0
:102EF00068E00E94A215CE0161E00E94A21580EA5E
:102F00009FE00197F1F786E08D87CE0166E00E9491
:102F1000A2158CE08C87CE016CE00E94A2151E8663
:102F20001F8681E08B8720E030E002C021E030E0A6
:102F3000C901DF91CF911F910F910895FC0180810C
:102F40009181009719F00197F1F40FC064857585A0
:102F500080E090E028EE33E040E050E00E94111D58
:102F60000E94441D3BBD2ABD08956485758580E09F
:102F700090E028EE33E040E050E00E94111D0E94F6
:102F8000441D39BD28BD0895FF920F931F93CF9321
:102F9000DF93EC01009721F18985882309F1F884FA
:102FA000F616F0F06B870C811D8170E080E090E0F8
:102FB0002E813F81201B310B40E050E00E94111D0B
:102FC0002F2D30E040E050E00E94441D020F131FFF
:102FD0001D870C87CE010E949E1720E030E002C0C2
:102FE00021E030E0C901DF91CF911F910F91FF9057
:102FF00008950F931F93CF93DF93EC019B010097EC
:1030000061F18985882349F16C817D812617370715
:1030100038F08E819F81B9018217930708F4BC01B3
:103020007D876C870C811D81601B710B80E090E0B7
:10303000288530E040E050E00E94111D2E813F8144
:10304000201B310B40E050E00E94441D2B87CE0135
:103050000E949E1720E030E002C021E030E0C9016C
:10306000DF91CF911F910F910895FC01DB01009733
:1030700059F08185882341F06115710529F0838518
:103080008C9320E030E002C021E030E0C9010895D7
:10309000FC010097B9F081858823A1F0808191819E
:1030A000009719F48FB5806804C0019719F48FB5A3
:1030B00080628FBD81E08287CF010E949E1720E051
:1030C00030E002C021E030E0C9010895FF920F9383
:1030D0001F93CF93DF9302E712E0FF24F801C08132
:1030E000D181209719F18A85882301F18A816B812A
:1030F00041E00E9466096C857D8580E090E020E4D7
:103100003FE140E050E00E94111D20EA3FE040E036
:1031100050E00E94441DC901232B11F00197F1F7E3
:103120008A816B8140E00E946609F3940E5F1F4F15
:10313000F2E002381F0791F620E030E0FF2011F4A2
:1031400021E030E0C901DF91CF911F910F91FF90F5
:103150000895CF93DF93EC010097F1F089858823E0
:10316000D9F088819981009731F48FB58F778FBD21
:1031700083E065E00AC0019731F48FB58F7D8FBD84
:1031800083E064E002C08A816B8140E00E946609AE
:103190001A8620E030E002C021E030E0C901DF9172
:1031A000CF910895CF93DF93EC010097A1F189852A
:1031B000882389F1CE010E94A918888199810297FC
:1031C000B9F4A2E7B2E0E0E0F0E08D919C911197B4
:1031D0008C179D0739F4EE0FFF1FEE58FD4F11823B
:1031E000108215C031961296E830F10571F70FC0C4
:1031F00080917002882319F0815080937002809131
:103200007002882321F41FBC1EBC10927102198623
:1032100020E030E002C021E030E0C901DF91CF9131
:103220000895CF92DF92FF920F931F93CF93DF9376
:10323000EC01009709F483C0C880D98083E0C816E8
:10324000D10408F07CC0F884FF2009F478C00C8118
:103250001D812E813F810217130708F070C0198667
:103260001A866F2D66956B8770E080E090E0201BDA
:10327000310B40E050E00E94111D2F2D30E040E066
:1032800050E00E94441D020F131F1D870C8782E02F
:10329000C816D10419F58A81843008F050C06B81BA
:1032A00041E00E94A5088A816B8140E00E94660986
:1032B000A2E7B2E0E0E0F0E08D919C911197892BBC
:1032C00039F4EE0FFF1FEE58FD4FD183C0832EC09F
:1032D00031961296E830F10579F731C0809171028C
:1032E000882369F482E08FBD8AE18EBD8FE19EE480
:1032F00097BD86BD1DBC1CBC81E080937102CD28AA
:1033000041F483E065E041E00E94A5088FB5806844
:1033100007C083E064E041E00E94A5088FB58062A9
:103320008FBD809170028F5F8093700281E08987EA
:103330008A87CE010E949E1720E030E002C021E083
:1033400030E0C901DF91CF911F910F91FF90DF9085
:10335000CF900895843080F4683070F490E041306C
:10336000510509F091E0492F0E946609009711F07C
:1033700081E090E09C0102C021E030E0C9010895A5
:10338000843080F4683070F490E04130510509F4E5
:1033900091E0492F0E946609009711F081E090E0CA
:1033A0009C0102C021E030E0C9010895FF920F9313
:1033B0001F93CF93DF93EC01009751F18C81843000
:1033C00038F58A819B81009711F407E003C00197CB
:1033D000F9F404E08D818830D8F490E0800F911DDD
:1033E0000997B4F4FF2488819981892B11F0FF2477
:1033F000F39410E06D81610F8C814F2D0E9466095E
:10340000892B31F41F5F1017A8F320E030E002C0D1
:1034100021E030E0C901DF91CF911F910F91FF9022
:103420000895DF92EF92FF920F931F93CF93DF9354
:103430008C01009799F16A3088F5FC0182819381B3
:10344000009741F4E62FF0E0E15FFD4F608197E0E7
:10345000D92E04C0019711F584E0D82EF80180819F
:103460009181019709F46095C0E0D0E0E62EFF2439
:10347000F80165816C0FA7010C2E02C05595479588
:103480000A94E2F7417084810E946609892B31F425
:103490002196CD1568F320E030E002C021E030E055
:1034A000C901DF91CF911F910F91FF90EF90DF90B5
:1034B00008950F931F93CF93DF93EC01009749F189
:1034C0008C81843030F58A819B81009711F407E06C
:1034D00003C00197F1F404E08D818830D0F490E0CE
:1034E000800F911D0997ACF410E06D81610F8C8104
:1034F00041E00E94A508892B61F41F5F1017A8F313
:10350000CE010E94D619009711F081E090E09C0155
:1035100002C021E030E0C901DF91CF911F910F91EE
:103520000895FC01009761F08389882349F0633096
:10353000710530F476876587148A20E030E002C098
:1035400021E030E0C9010895FC01009769F083890A
:10355000882351F06115710511F461E070E0728B00
:10356000618B20E030E002C021E030E0C901089525
:10357000EF92FF920F931F93CF93DF93EC0100978D
:1035800069F18B89882351F16115710539F18F85B6
:1035900098897C0100E010E08D859E85029721F4DA
:1035A000EE0CFF1C001F111F9B0140E050E0C80102
:1035B000B7010E94111D9B01AC0160E67AEE80E02C
:1035C00090E00E94441DC901DA010097A105B105F0
:1035D00029F03A8B298B20E030E002C021E030E076
:1035E000C901DF91CF911F910F91FF90EF90089546
:1035F000CF93DF93FC01EB01009789F08389882347
:1036000071F06115710559F086899789A08DB18D8A
:1036100088839983AA83BB8320E030E002C021E045
:1036200030E0C901DF91CF910895FC01009751F07E
:103630008389882339F0168A178A108E118E20E02C
:1036400030E002C021E030E0C9010895FC01DB0157
:10365000009799F08389882381F06115710569F0DD
:103660008585968527853089029711F4220F331FAF
:103670002D933C9320E030E002C021E030E0C9010E
:1036800008951F93CF93DF93EC01162F462F4170BF
:10369000888169810E946609412F469541708A811F
:1036A0006B810E946609412F4695469541708C8139
:1036B0006D810E946609412F469546954695417059
:1036C0008E816F810E9466091D8A112311F081E0AD
:1036D0008D8BDF91CF911F9108950F931F93CF93FF
:1036E000DF93EC01009709F452C08B89882309F419
:1036F0004EC06230710508F04AC08D859E850297E4
:1037000011F044E001C048E08C890E891F89288DA2
:10371000398D672B61F490E00196642F70E00E9470
:10372000301D8C8B0F5F1F4F2F4F3F4F0DC090E010
:10373000840F911D0197642F70E00E94301D8C8BC7
:1037400001501040204030400E8B1F8B288F398F46
:10375000EC898D859E85009721F0F0E0029761F459
:1037600006C0F0E0E370F070E75EFD4F09C0E7705F
:10377000F070E35EFD4F04C0E370F070EB5DFD4F51
:103780006081CE010E94411B20E030E002C021E0B8
:1037900030E0C901DF91CF911F910F910895AF9251
:1037A000BF92CF92DF92EF92FF920F931F93CF932E
:1037B000DF938C016B017A01009719F1FC01838979
:1037C0008823F9F042305105E0F4C0E0D0E020ED6C
:1037D000A22E27E0B22E0FC0C801B7010E946D1BB8
:1037E000F8018189928904C0F5013197F1F70197B9
:1037F0000097D1F72196CC15DD0570F320E030E07D
:1038000002C021E030E0C901DF91CF911F910F91FB
:10381000FF90EF90DF90CF90BF90AF900895CF9240
:10382000DF92EF92FF920F931F93CF93DF93EC0100
:103830006A01009721F18B89882309F18F85988986
:103840007C0100E010E08D859E85029721F4EE0C4E
:10385000FF1C001F111F9B0140E050E0C801B70191
:103860000E94111D28E631E040E050E00E94441D16
:10387000CE01B901A6010E94CF1B9C0102C021E02C
:1038800030E0C901DF91CF911F910F91FF90EF9030
:10389000DF90CF900895CF93DF93EC010097C1F0B4
:1038A0008B898823A9F0CE0160E00E94411B8C85A2
:1038B000882351F08885698540E00E9466098A85E1
:1038C0006B8540E00E9466091D8A20E030E002C05E
:1038D00021E030E0C901DF91CF910895CF93DF93CC
:1038E000EC01009779F18B89882361F18C8588231D
:1038F00051F08885698541E00E9466098A856B855B
:1039000041E00E946609EC898D859E85009721F033
:10391000F0E0029761F406C0F0E0E370F070E75E5B
:10392000FD4F09C0E770F070E35EFD4F04C0E37027
:10393000F070EB5DFD4F6081CE010E94411B20E0E5
:1039400030E002C021E030E0C901DF91CF9108955D
:10395000CF93DF93EC01009709F45DC028812430F8
:1039600008F059C08A81843008F055C08C818430B9
:1039700008F051C08E81843008F04DC08F85988941
:10398000892B09F448C0822F698141E00E94A50873
:103990008A816B8141E00E94A5088C816D8141E0A4
:1039A0000E94A5088E816F8141E00E94A5088C8548
:1039B0008823D1F09885943070F58A85843058F545
:1039C000892F698541E00E94A5088A856B8541E0C1
:1039D0000E94A5088885698541E00E9466098A855C
:1039E0006B8541E00E94660989899A89892B21F4B7
:1039F00081E090E09A8B898B1C8A1E8A1F8A188E20
:103A0000198E1D8ACE0160E00E94411B81E08B8BE4
:103A100020E030E002C021E030E0C901DF91CF9129
:103A20000895629FD001739FF001829FE00DF11D08
:103A3000649FE00DF11D929FF00D839FF00D749F28
:103A4000F00D659FF00D9927729FB00DE11DF91FD4
:103A5000639FB00DE11DF91FBD01CF011124089531
:103A6000AA1BBB1B51E107C0AA1FBB1FA617B707A4
:103A700010F0A61BB70B881F991F5A95A9F78095C0
:103A80009095BC01CD010895A1E21A2EAA1BBB1B83
:103A9000FD010DC0AA1FBB1FEE1FFF1FA217B3071A
:103AA000E407F50720F0A21BB30BE40BF50B661F30
:103AB000771F881F991F1A9469F7609570958095F4
:103AC00090959B01AC01BD01CF010895AEE0B0E03F
:103AD000ECE6FDE10C9422200D891E898F89988DDA
:103AE00097FF02C080E090E801979E838D831A8340
:103AF000098386E08C839E01255E3F4FCE010196AF
:103B0000698D7A8DA9010E94971D4D815E8157FDB7
:103B10000AC02F813885421753070CF49A01020F0F
:103B2000131FF80110822E96E4E00C943E20ABE0C7
:103B3000B0E0EDE9FDE10C9414203C012B015A01A9
:103B4000FC0117821682838181FD03C06FEF7FEF36
:103B5000C6C19AE0892E1E010894211C311CF30174
:103B60002381F20123FD859123FF81912F01882379
:103B700009F4B2C1853239F423FD859123FF819187
:103B80002F01853229F490E0B3010E948A1FE7CF0C
:103B9000982FFF24EE249924FFE1FF15D0F09B32EB
:103BA00069F09C3228F4903259F0933291F40EC0AF
:103BB0009D3249F0903369F441E024C052E0F52A87
:103BC00084E0F82A28C098E0F92A25C0E0E1FE2A1E
:103BD00022C0F7FC29C0892F80538A3070F4F6FE8A
:103BE00005C0989C902C1124980E15C0E89CE02CE0
:103BF0001124E80EF0E2FF2A0EC09E3229F4F6FCF2
:103C00006BC140E4F42A07C09C3619F450E8F52A49
:103C100002C0983649F4F20123FD959123FF91915A
:103C20002F01992309F0B8CF892F8554833018F0DC
:103C30008052833038F444E050E0A40EB51E5FE3B8
:103C400059830FC0933631F0933779F0933509F0EB
:103C500056C020C0F5018081898342E050E0A40E67
:103C6000B51E610101E010E012C0F501C080D180F5
:103C7000F6FC03C06FEF7FEF02C0692D70E042E0F9
:103C800050E0A40EB51EC6010E947F1F8C015FE7A5
:103C9000F52214C0F501C080D180F6FC03C06FEF9F
:103CA0007FEF02C0692D70E042E050E0A40EB51E27
:103CB000C6010E94741F8C0150E8F52AF3FE07C06C
:103CC0001AC080E290E0B3010E948A1FEA948E2D10
:103CD00090E008171907A8F30EC0F601F7FC8591CC
:103CE000F7FE81916F0190E0B3010E948A1FE110FD
:103CF000EA94015010400115110579F7EAC0943695
:103D000011F0993669F5F7FE08C0F501208131817F
:103D10004281538184E090E00AC0F5018081918165
:103D20009C01442737FD4095542F82E090E0A80E77
:103D3000B91E9FE6F92257FF09C05095409530956E
:103D400021953F4F4F4F5F4FE0E8FE2ACA01B9016E
:103D5000A1012AE030E00E94B61FD82ED21840C040
:103D6000953729F41F2D1F7E2AE030E01DC01F2D3E
:103D7000197F9F3661F0903720F4983509F0ACC078
:103D80000FC0903739F0983709F0A6C004C028E07A
:103D900030E00AC0106114FD146020E130E004C07E
:103DA00014FD166020E132E017FF08C0F5016081C4
:103DB00071818281938144E050E008C0F5018081E7
:103DC0009181BC0180E090E042E050E0A40EB51E7D
:103DD000A1010E94B61FD82ED2188FE7F82EF1222B
:103DE000F6FE0BC05EEFF522D91438F4F4FE07C0DE
:103DF000F2FC05C08FEEF82202C01D2D01C0192D66
:103E0000F4FE0DC0FE01ED0DF11D8081803319F42B
:103E100099EEF92208C01F5FF2FE05C003C08F2D86
:103E2000867809F01F5F0F2DF3FC14C0F0FE0FC061
:103E30001E1510F09D2C0BC09D2C9E0C911A1E2D52
:103E400006C080E290E0B3010E948A1F1F5F1E152A
:103E5000C0F304C01E1510F4E11A01C0EE2404FFE3
:103E60000FC080E390E0B3010E948A1F02FF1DC0D3
:103E700001FD03C088E790E00EC088E590E00BC02C
:103E8000802F867891F001FF02C08BE201C080E2B2
:103E9000F7FC8DE290E0B3010E948A1F06C080E328
:103EA00090E0B3010E948A1F9A94D914C0F3DA9467
:103EB000F101ED0DF11D808190E0B3010E948A1F98
:103EC000DD20A9F706C080E290E0B3010E948A1FBE
:103ED000EA94EE20C1F743CEF30166817781CB01EE
:103EE0002B96E2E10C943020FC010590615070406B
:103EF0000110D8F7809590958E0F9F1F0895FC01B3
:103F00006150704001900110D8F7809590958E0F08
:103F10009F1F08950F931F93CF93DF938C01EB01A5
:103F20008B8181FF1BC082FF0DC02E813F818C8160
:103F30009D812817390764F4E881F9810193F98399
:103F4000E88306C0E885F985802F0995892B31F42F
:103F50008E819F8101969F838E8302C00FEF1FEF9A
:103F6000C801DF91CF911F910F910895FA01AA27FF
:103F7000283051F1203181F1E8946F936E7F6E5FAC
:103F80007F4F8F4F9F4FAF4FB1E03ED0B4E03CD05A
:103F9000670F781F891F9A1FA11D680F791F8A1F3D
:103FA000911DA11D6A0F711D811D911DA11D20D0A4
:103FB00009F468943F912AE0269F11243019305D5E
:103FC0003193DEF6CF010895462F4770405D41934F
:103FD000B3E00FD0C9F7F6CF462F4F70405D4A339C
:103FE00018F0495D31FD4052419302D0A9F7EACF64
:103FF000B4E0A6959795879577956795BA95C9F793
:1040000000976105710508959B01AC010A2E069485
:104010005795479537952795BA95C9F7620F731F3E
:10402000841F951FA01D08952F923F924F925F927B
:104030006F927F928F929F92AF92BF92CF92DF92B8
:10404000EF92FF920F931F93CF93DF93CDB7DEB71D
:10405000CA1BDB0B0FB6F894DEBF0FBECDBF0994B1
:104060002A88398848885F846E847D848C849B8408
:10407000AA84B984C884DF80EE80FD800C811B8116
:10408000AA81B981CE0FD11D0FB6F894DEBF0FBE45
:0A409000CDBFED010895F894FFCFB5
:10409A0056656869636C652044617368626F617212
:1040AA006400202042756C6220436865636B2E2E83
:1040BA002E200044617368626F61726420726561C8
:1040CA0064790D0A00802500000300000000000149
:1040DA0000000003000000000000000100050000CD
:1040EA00004D005350443D25752052504D3D2575D5
:1040FA00204655454C3D257520434F4F4C3D25756F
:10410A0020424154543D256C75204F494C3D25753C
:10411A000D0A005350443A2533752052504D3A2522
:10412A003475002121204F494C20505245535320C9
:10413A0021212000212120434F4F4C414E54202160
:10414A002120202000212120424154544552592047
:10415A0021212020200020204C4F57204655454C35
:10416A0020202020202000202048415A415244206B
:10417A004F4E2020202020003C3C204C4546542015
:10418A005455524E202020200020202052494748D2
:10419A0054205455524E203E3E00202020202020FC
:1041AA00202020202020202020200052504D3A207C
:1041BA002025347520202020202000434F4F4C3AE0
:1041CA0020253375204320202020200042415454CA
:1041DA003A2532752E257556202020202000465576
:1041EA00454C3A2025337520252520202020200003
:1041FA00545249503A25356C75206D202020004FC5
:10420A00444F3A2025356C75206B6D20200050559F
:10421A004C5345533A253475205350443A25337547
:10422A00200052504D3A253475204655454C3A25C2
:10423A00337525252000013A003700340031003F4C
:10424A00065B4F666D7D077F6F010204080103025A
:0A425A0006040C080903060C090015
:00000001FF
