:100000000C942A000C94C6000C9447000C944700F2
:100010000C94B80C0C948F0C0C9453000C94660C3C
:100020000C9447000C943D0C0C94140C0C94EB0BAA
:100030000C9447000C94940D0C9447000C944700CA
:100040000C9447000C9447000C9447000C94470014
:100050000C94470011241FBECFE5D8E0DEBFCDBF12
:1000600012E0A0E6B0E0E2EBF0E402C005900D92F1
:10007000AA32B107D9F712E0AAE2B2E001C01D929C
:10008000A239B107E1F70E941F010C9457200C948C
:1000900000008091360290913702019690933702CA
:1000A0008093360208951F920F920FB60F9211247B
:1000B000EF92FF920F931F932F933F934F935F9372
:1000C0006F937F938F939F93AF93BF9326B537B56D
:1000D000609136027091370288B78695869580FFC9
:1000E00004C037FD02C06F5F7F4FCB01A0E0B0E0DE
:1000F000DC019927882740E050E0822B932BA42B2A
:10010000B52B20915E0230915F02409160025091C8
:1001100061027C018D01E21AF30A040B150BE092D7
:100120005002F092510200935202109353028093B6
:100130005E0290935F02A0936002B093610280938D
:100140004C0290934D02A0934E02B0934F0281E077
:1001500080932F0280914A0290914B0201969093D6
:100160004B0280934A02BF91AF919F918F917F91F3
:100170006F915F914F913F912F911F910F91FF9040
:10018000EF900F900FBE0F901F9018951F920F9237
:100190000FB60F9211248F939F9380915C029091E0
:1001A0005D02019690935D0280935C029F918F9116
:1001B0000F900FBE0F901F90189580912C02909178
:1001C0002D02019690932D0280932C0208950F9397
:1001D0001F93CF93DF9380933802C7E0D0E0082FBE
:1001E00010E0A8010C2E02C0569547950A94E2F73C
:1001F000417081E062E00E94720981E063E041E0C9
:100200000E94720981E063E040E00E947209219738
:100210008FEFCF3FD80729F7DF91CF911F910F9133
:100220000895882329F08BE485BD8FE783BD089569
:1002300015BC83E067E040E00E94720908952F92A8
:100240003F924F925F926F927F928F929F92AF9266
:10025000BF92CF92DF92EF92FF920F931F93DF93A3
:10026000CF93CDB7DEB7CC58D0400FB6F894DEBFF1
:100270000FBECDBF81E060E040E00E94B10881E0A8
:1002800061E040E00E94B10881E060E041E00E944E
:10029000720981E061E041E00E94720981E062E060
:1002A00041E00E94B10881E063E041E00E94B108B2
:1002B00081E062E040E00E94720981E063E040E09A
:1002C0000E94720981E064E041E00E94B10881E08F
:1002D00065E041E00E94B10881E066E041E00E94F3
:1002E000B10881E064E040E00E94720981E065E0CD
:1002F00040E00E94720981E066E040E00E947209DD
:1003000083E063E040E00E94B10883E063E041E005
:100310000E94720983E067E041E00E94B108DE01BB
:100320001596ECEFF1E08AE001900D928150E1F733
:10033000CE0105960E94330A80E090E061E070E013
:100340004DED50E00E94CB0B80E090E061E070E06A
:100350000E94400BDE011F96E2EFF1E08AE001907F
:100360000D928150E1F7CE010F960E94330A8EB5AF
:1003700080688EBD8EB580648EBD81E090E060E0C7
:1003800070E049E450E00E94CB0B81E090E060E037
:1003900070E00E94400B89B7806289BF85B7826098
:1003A00085BF85B78E7F85BF85B7836085BF8AB7D8
:1003B00080648ABF8BB780648BBFDE015996E8EEFC
:1003C000F1E08AE001900D928150E1F7CE0149966B
:1003D0000E94E10C81E090E09093630280936202BE
:1003E00092E0909364021092650211E0109366020D
:1003F00006E00093670285E08093680284E08093C2
:10040000690210936A0290936B0280E180936C0200
:1004100082E692E00E94D7161B830C83CE010396DE
:100420000E9433088AB3807F8ABB8BB3807F8BBBEB
:1004300078948FEF0E94E70082E692E060E040E06F
:1004400020E630E00E94861682E692E061E040E01D
:1004500022E730E00E94861680E395E728EC30E042
:10046000F9013197F1F70197D9F780E00E94E70091
:1004700082E692E00E943C1683E890E00E94530DD1
:1004800082E090E090932B0280932A0280E090E03B
:10049000C557DF4F19821882CB58D0406624772485
:1004A000C757DF4F19821882C958D040CC24DD24A9
:1004B00022243324C957DF4F19821882C758D040ED
:1004C00044245524F4E38F2E912C8C0E9D1E06C0DF
:1004D000CB57DF4F88819981C558D04020912C029D
:1004E00030912D02CB57DF4F39832883C558D04038
:1004F000281B390BC557DF4F48815981CB58D04055
:10050000420F531FC557DF4F59834883CB58D04004
:10051000620E731EC757DF4FA881B981C958D040FA
:10052000A20FB31FC757DF4FB983A883C958D04064
:10053000C20ED31E220E331EC957DF4FE881F98148
:10054000C758D040E20FF31FC957DF4FF983E88344
:10055000C758D040420E531E81E060E00E940D0952
:100560008C0181E061E00E940D0920E0892B09F4F3
:1005700021E0012B61F4222321F081E080933502F8
:1005800012C01092350281E0809333020EC0222304
:1005900041F0109235021092330281E080933402D0
:1005A00006C010923502109233021092340283E09A
:1005B00063E00E940D0990913902882321F495305F
:1005C00038F49F5F03C0992319F09150909339023A
:1005D00080913902853049F480910602813071F4AE
:1005E0001092060280932E0209C0882339F480916C
:1005F0000602882319F481E08093060280912E027E
:10060000882379F010922E0280913A0290913B0259
:10061000019665E070E00E943C1D90933B02809340
:100620003A0280912A0290912B0282309105A9F022
:100630008330910530F4009751F0019709F040C0E4
:1006400009C083309105A9F00497D1F52CC081E051
:1006500090E032C082E090E02FC080913C02909107
:100660003D02855F914060F110923F0210923E0280
:1006700021C080913C0290913D028C52914070F4D7
:1006800080913E0290913F02019690933F028093A9
:100690003E020597A8F084E090E00EC010923F0261
:1006A00010923E020DC080913C0290913D02855F08
:1006B000914030F083E090E090932B0280932A02E7
:1006C000C557DF4F48815981CB58D040423351053F
:1006D00008F451C020E080914002909141020A97B5
:1006E00008F421E080914202909143020A9740F47D
:1006F00080913C0290913D02855F914008F022601C
:100700008091440290914502A0914602B091470227
:10071000805E9E42A040B040895B9B40A040B040BC
:1007200008F0246080914802909149028F3691052B
:1007300008F0286080913302882321F480913502EB
:10074000882321F08091320281112062809134024D
:10075000882321F480913502882321F08091320290
:1007600081112064822F0E94E700C557DF4F198254
:100770001882CB58D040F4E66F16710408F4C3C059
:10078000F89420914A0230914B0210924B02109241
:100790004A0278942AC08091540290915502A09107
:1007A0005602B09157028C509E4FAF4FBF4F80936F
:1007B000540290935502A0935602B0935702809131
:1007C000580290915902A0915A02B0915B028C504C
:1007D0009E4FAF4FBF4F8093580290935902A09302
:1007E0005A02B0935B02215030402115310599F631
:1007F00080913602909137022CB53DB5E0904C02C5
:10080000F0904D0200914E0210914F02A0E0B0E036
:10081000DC019927882740E050E0822B932BA42B02
:10082000B52B8E199F09A00BB10B8954984EA1408E
:10083000B04028F0109231021092300230C0809106
:100840002F02882361F110922F0280915002909123
:100850005102A0915202B09153020097A105B10537
:10086000F1F020915002309151024091520250918A
:10087000530273E0220F331F441F551F7A95D1F79F
:1008800060E477E78BE190E00E94501D2B3F31053B
:1008900010F020E030E0309331022093300280915C
:1008A0002F02882371F58091300290913102892BBB
:1008B00041F18091540290915502A0915602B0915D
:1008C00057028C509E4FAF4FBF4F8093540290936E
:1008D0005502A0935602B09357028091580290910E
:1008E0005902A0915A02B0915B028C509E4FAF4FBB
:1008F000BF4F8093580290935902A0935A02B0932D
:100900005B0266247724C757DF4F48815981C95855
:10091000D0404A3F5105F0F0F89480915C029091EC
:100920005D0210925D0210925C02789428E730E03C
:10093000DC01A29FC001A39F900DB29F900D1124D6
:1009400090933D0280933C02C757DF4F1982188273
:10095000C958D040BAEFCB16D10408F46BC28091CD
:100960003A0290913B028230910509F427C183300D
:10097000910530F4009761F0019709F049C2E5C094
:100980008330910509F484C1049709F041C2EEC196
:10099000EDB7FEB73A970FB6F894FEBF0FBEEDBFA6
:1009A000319623E230E02C0F3D1FADB7BEB7129653
:1009B0003C932E93119701E110E01383028345E9E4
:1009C00050E05583448380913002909131029783A7
:1009D000868380913C0290913D02918780870E949E
:1009E000721D80913802ADB7BEB71A960FB6F89453
:1009F000BEBF0FBEADBF81FF11C000D000D000D080
:100A0000EDB7FEB73196ADB7BEB712969C928E92F7
:100A100011971383028325EA30E012C083FF19C0C7
:100A200000D000D000D0EDB7FEB73196ADB7BEB75D
:100A300012969C928E9211971383028326EB30E0DC
:100A4000358324830E94721D4DB75EB74A5F5F4FA6
:100A5000DAC182FF11C000D000D000D0EDB7FEB7E0
:100A60003196ADB7BEB712969C928E9211971383B2
:100A7000028327EC30E0E4CF80FF11C000D000D02B
:100A800000D0EDB7FEB73196ADB7BEB712969C92C7
:100A90008E9211971383028328ED30E0D1CF80919D
:100AA0003502882389F000D000D000D0EDB7FEB722
:100AB0003196ADB7BEB712969C928E921197138362
:100AC000028329EE30E0BCCF80913302882399F075
:100AD00000D000D000D0EDB7FEB73196ADB7BEB7AD
:100AE00012969C928E92119781E190E0938382837B
:100AF0002AEF30E0A5CF80913402882399F000D00E
:100B000000D000D0EDB7FEB73196ADB7BEB71296A4
:100B10009C928E92119781E190E0938382832BE0E7
:100B200031E08ECF00D000D000D0EDB7FEB73196C7
:100B3000ADB7BEB712969C928E92119781E190E06C
:100B4000938382832CE131E07BCF8DB79EB70897EA
:100B50000FB6F8949EBF0FBE8DBFEDB7FEB73196AE
:100B600023E230E02C0F3D1FADB7BEB712963C9389
:100B70002E93119701E110E0138302834DE251E0BF
:100B80005583448380913C0290913D0297838683F4
:100B90000E94721DEDB7FEB73196ADB7BEB7129683
:100BA0009C928E921197138302832DE331E035835B
:100BB0002483809148029091490261C0C090440210
:100BC000D0904502E0904602F09047028DB79EB764
:100BD0000A970FB6F8949EBF0FBE8DBF0DB71EB714
:100BE0000F5F1F4FE3E2F0E0EC0FFD1FADB7BEB7A4
:100BF0001296FC93EE93119761E1A62EB12CD801C9
:100C00001396BC92AE921297EEE4F1E01596FC9327
:100C1000EE931497C701B60128EE33E040E050E0B0
:100C20000E94501DD80117963C932E931697C7012A
:100C3000B60128EE33E040E050E00E94501D24E66B
:100C400030E040E050E00E94501DF80131872087DD
:100C50000E94721D0F900F90EDB7FEB73196ADB7A1
:100C6000BEB712969C928E921197B382A28220E612
:100C700031E0358324838091400290914102978333
:100C800086830E94721D4DB75EB7485F5F4FBBC041
:100C90008DB79EB70A970FB6F8949EBF0FBE8DBF53
:100CA0000DB71EB70F5F1F4FE3E2F0E0EC0FFD1F23
:100CB000ADB7BEB71296FC93EE93119751E1E52EB6
:100CC000F12CD8011396FC92EE921297E2E7F1E034
:100CD0001596FC93EE931497609158027091590207
:100CE00080915A0290915B0228EE33E040E050E0A0
:100CF0000E94501DD80116962D933D934D935C9301
:100D000019970E94721D0DB71EB70F5F1F4FEDB7E9
:100D1000FEB792828182D8011396FC92EE921297CE
:100D2000E1E8F1E01596FC93EE931497609154027C
:100D300070915502809156029091570220E432E45E
:100D40004FE050E00E94501DD80116962D933D9320
:100D50004D935C9319970E94721DEDB7FEB73A96BA
:100D60000FB6F894FEBF0FBEEDBF52C080914A028D
:100D700090914B022DB73EB72A5030400FB6F894F1
:100D80003EBF0FBE2DBFEDB7FEB7319623E230E078
:100D90002C0F3D1FADB7BEB712963C932E93119703
:100DA00001E110E01383028340E951E0558344835D
:100DB000978386838091300290913102918780875A
:100DC0000E94721DEDB7FEB73196ADB7BEB7129651
:100DD0009C928E9211971383028324EA31E035832B
:100DE000248380913C0290913D0297838683809179
:100DF000400290914102918780870E94721D4DB7F9
:100E00005EB7465F5F4F0FB6F8945EBF0FBE4DBF33
:100E100082E692E060E040E09E012D5D3F4F0E943F
:100E2000861682E692E061E040E094010E94861618
:100E3000CC24DD2452EC451651E0550600F180919A
:100E4000320291E08927809332028823B1F08091A9
:100E50003302882341F480913402882321F4809165
:100E60003502882351F081E00E94110180E49CE961
:100E70000197F1F780E00E9411014424552484EF8A
:100E8000281681E0380608F470C080E0BE016F5F6C
:100E90007F4F0E94950869817A8180E090E024E686
:100EA00030E040E050E00E941D1D2FEF33E040E0B5
:100EB00050E00E94501D309341022093400281E097
:100EC000BE016F5F7F4F0E94950869817A8180E043
:100ED00090E02AEA30E040E050E00E941D1D2FEF34
:100EE00033E040E050E00E94501D285D3F4F3093BA
:100EF00049022093480282E0BE016F5F7F4F0E944B
:100F0000950869817A8180E090E020E83EE340E046
:100F100050E00E941D1D2FEF33E040E050E00E94A2
:100F2000501D209344023093450240934602509353
:100F3000470283E0BE016F5F7F4F0E949508698181
:100F40007A8180E090E024E630E040E050E00E94CA
:100F50001D1D2FEF33E040E050E00E94501D309304
:100F600043022093420222243324C957DF4FA88131
:100F7000B981C758D040A858B34108F45DC02DB717
:100F80003EB7245130400FB6F8943EBF0FBE2DBF80
:100F9000EDB7FEB7319625E430E02C0F3D1FADB71D
:100FA000BEB712963C932E93119780E490E0938302
:100FB000828348EB51E055834483809130029091C5
:100FC00031029783868380913C0290913D02918704
:100FD000808780914002909141029387828780911F
:100FE00048029091490295878487809144029091AC
:100FF0004502A0914602B091470286879787A08B51
:10100000B18B8091420290914302938B828B0E941C
:10101000721D8DB79EB744960FB6F8949EBF0FBE53
:101020008DBFCE018B5B9F4F0E94530DC957DF4F81
:1010300019821882C758D0408091300290913102B5
:101040008837910508F444CA81E00E94110184EFB9
:1010500091E0E8ECF0E03197F1F70197D1F780E00B
:101060000E94110135CAFC01009719F421E030E01B
:1010700020C03E983F98808180FD3E9A869580FDF5
:101080003F9A3D98389839983A983B983C983098D0
:1010900031983298918190FD309A892F869580FD04
:1010A000319A892F8695869580FD329A379A20E06D
:1010B00030E0C9010895379880E090E00895982FB6
:1010C000883018F021E030E013C0389839983A9809
:1010D0003B983C9880FD389A892F869580FD399AF7
:1010E000892F8695869580FD3A9A369A20E030E0E1
:1010F000C901089586B182958695869583708095FD
:1011000081700895FC01009719F421E030E00BC0D4
:1011100084B145B1342F20E090E0282B392B318366
:10112000208320E030E0C9010895CF93DF93EB01E5
:101130000E945F08BC01009781F43699FECF20978A
:1011400019F461E070E009C084B145B1342F20E0AA
:1011500090E0282B392B39832883CB01DF91CF9165
:101160000895843090F5683080F5442319F04130BB
:1011700061F515C0E82FF0E0EE0FFF1FE95FFD4FAE
:101180000190F081E02D208181E090E002C0880F85
:10119000991F6A95E2F780958223808313C0E82F18
:1011A000F0E0EE0FFF1FE95FFD4F0190F081E02DB1
:1011B000208181E090E002C0880F991F6A95E2F7D4
:1011C000282B208320E030E002C021E030E0C9017C
:1011D00008958430F0F4662319F06130D1F40BC027
:1011E000E82FF0E0EE0FFF1FE95FFD4F0190F08167
:1011F000E02D10820BC0E82FF0E0EE0FFF1FE95F3B
:10120000FD4F0190F081E02D8FEF808320E030E0F2
:1012100002C021E030E0C9010895843008F568304B
:10122000F8F4813039F0813040F0823049F0833079
:10123000B9F409C0E6E3F0E008C0E9E3F0E005C076
:10124000E3E3F0E002C0E0E3F0E08081282F30E04B
:1012500002C0359527956A95E2F72170307002C07B
:1012600020E030E0C9010895843088F4813049F0ED
:10127000813028F0823039F0833049F406C089B3D8
:10128000089586B3089583B3089580B3089580E0E8
:101290000895843018F5683008F5813039F08130D0
:1012A00040F0823049F08330C9F409C0E8E3F0E04F
:1012B00008C0EBE3F0E005C0E5E3F0E002C0E2E3E4
:1012C000F0E0208181E090E002C0880F991F6A95CC
:1012D000E2F72827208320E030E002C021E030E060
:1012E000C9010895843080F5683070F5813039F097
:1012F000813040F0823049F0833031F509C0E8E3B5
:10130000F0E008C0EBE3F0E005C0E5E3F0E002C088
:10131000E2E3F0E0442359F4208181E090E002C050
:10132000880F991F6A95E2F78095282309C02081CC
:1013300081E090E002C0880F991F6A95E2F7282BA0
:10134000208320E030E002C021E030E0C9010895B0
:101350008430C0F4813039F0813040F0823049F07F
:10136000833081F409C0E8E3F0E008C0EBE3F0E08B
:1013700005C0E5E3F0E002C0E2E3F0E0608320E0D6
:1013800030E002C021E030E0C901089581E090E042
:10139000089581E090E0089581E090E0089581E073
:1013A00090E0089581E090E0089581E090E0089554
:1013B00081E090E0089581E090E0089580E0089554
:1013C00081E090E0089581E090E0089581E090E070
:1013D000089581E090E0089581E090E0089581E033
:1013E00090E0089581E090E008950895089581E0E7
:1013F00090E0089581E090E0089581E090E0089504
:1014000081E090E0089581E090E0089581E090E02F
:1014100008958330910518F58130910571F0813080
:10142000910518F00297D9F412C083B7887F83BF63
:1014300083B76770862B83BF07C08EB5887F8EBD4C
:101440008EB56770862B8EBD20E030E00AC085B572
:10145000887F85BD85B56770862B85BDF5CF21E07A
:1014600030E0C9010895FC01009709F494C040815F
:1014700051814330510508F08EC0228133814115DE
:10148000510529F04230510509F043C021C02130F7
:10149000310569F02130310520F02230310589F421
:1014A00009C083B78F7B83BF83B7877F08C083B7AB
:1014B0008F7B02C083B7806483BF83B7886083BF9C
:1014C00051C083B7806483BF83B7877F83BF40C029
:1014D0002130310569F02130310520F0223031050D
:1014E00089F409C085B58F7B85BD85B5877F08C028
:1014F00085B58F7B02C085B5806485BD85B5886064
:1015000085BD3EC085B5806485BD85B5877F85BDB9
:101510001FC08FB58E7F8FBD8FB58D7F8FBD8EB570
:10152000877F8EBD8EB58F7E8EBD2130310549F00F
:101530002130310568F02230310539F48FB58160F2
:101540008FBD8EB588608EBD03C08FB581608FBDA5
:101550004130510561F04130510520F042305105D4
:10156000D1F40EC0868182BF80858CBF0DC086817C
:1015700097819DBD8CBD808591859BBD8ABD04C032
:10158000868184BD808583BD64817581CA010E9486
:10159000090A9C0102C021E030E0C90108958330AE
:1015A0009105B8F48130910551F08130910518F022
:1015B000029779F40AC083B7887F83BF03C08EB5D2
:1015C000887F8EBD20E030E006C085B5887F85BD70
:1015D000F9CF21E030E0C90108958330910590F4FE
:1015E0008130910541F08130910518F0029751F456
:1015F00007C062BF02C07DBD6CBD20E030E004C00A
:1016000064BDFBCF21E030E0C9010895FB018330C8
:101610009105C8F461157105B1F08130910541F073
:101620008130910518F0029771F409C082B708C0A3
:101630008CB59DB59183808320E030E006C084B5F1
:1016400080831182F9CF21E030E0C9010895833011
:10165000910590F48130910541F08130910518F0A9
:10166000029751F407C06CBF02C07BBD6ABD20E089
:1016700030E004C063BDFBCF21E030E0C901089534
:101680008330910510F58130910569F08130910525
:1016900018F00297D1F40EC099B7672B11F481E0CE
:1016A0000FC082E00DC099B7672B11F080E108C030
:1016B00084E006C099B7672B11F080E801C080E490
:1016C000892B89BF20E030E002C021E030E0C90171
:1016D00008958330910510F58130910569F08130CE
:1016E000910518F00297D1F40EC099B7672B11F449
:1016F0008EEF0FC08DEF0DC099B7672B11F08FEEF5
:1017000008C08BEF06C099B7672B11F08FE701C0B7
:101710008FEB892389BF20E030E002C021E030E078
:10172000C9010895CF93DF93EC018330910568F5EB
:1017300060E070E00E94690BCE0161E070E00E9401
:10174000690BC130D10551F0C130D10520F0C23054
:10175000D105D9F408C013BE12BE07C01FBC1EBC01
:101760001DBC1CBC02C015BC14BCCC0FDD1FCC0FB3
:10177000DD1FFE01EE58FD4F11821082CC58DD4F67
:101780001982188220E030E002C021E030E0C90177
:10179000DF91CF910895FC018330910580F44115CC
:1017A000510569F0EE0FFF1FE60FF71FEE0FFF1F49
:1017B000EE58FD4F5183408320E030E002C021E02D
:1017C00030E0C90108958FB780688FBF08958FB743
:1017D0008F778FBF08951F920F920FB60F9211242B
:1017E0002F933F934F935F936F937F938F939F9329
:1017F000AF93BF93EF93FF93E0917202F091730266
:10180000309709F00995FF91EF91BF91AF919F91AA
:101810008F917F916F915F914F913F912F910F9099
:101820000FBE0F901F9018951F920F920FB60F9238
:1018300011242F933F934F935F936F937F938F93D5
:101840009F93AF93BF93EF93FF93E0917402F09156
:101850007502309709F00995FF91EF91BF91AF9113
:101860009F918F917F916F915F914F913F912F91B8
:101870000F900FBE0F901F9018951F920F920FB6EA
:101880000F9211242F933F934F935F936F937F9306
:101890008F939F93AF93BF93EF93FF93E091760263
:1018A000F0917702309709F00995FF91EF91BF9180
:1018B000AF919F918F917F916F915F914F913F91E8
:1018C0002F910F900FBE0F901F9018951F920F929F
:1018D0000FB60F9211242F933F934F935F936F9303
:1018E0007F938F939F93AF93BF93EF93FF93E09179
:1018F0007802F0917902309709F00995FF91EF9104
:10190000BF91AF919F918F917F916F915F914F9117
:101910003F912F910F900FBE0F901F9018951F921F
:101920000F920FB60F9211242F933F934F935F9313
:101930006F937F938F939F93AF93BF93EF93FF9397
:10194000E0917A02F0917B02309709F00995FF91BE
:10195000EF91BF91AF919F918F917F916F915F9127
:101960004F913F912F910F900FBE0F901F901895A0
:101970001F920F920FB60F9211242F933F934F9304
:101980005F936F937F938F939F93AF93BF93EF93E7
:10199000FF93E0917C02F0917D02309709F0099568
:1019A000FF91EF91BF91AF919F918F917F916F9137
:1019B0005F914F913F912F910F900FBE0F901F900D
:1019C0001895CF93DF93EC010097C9F128813981F5
:1019D0004A815B81211531054105510581F184E082
:1019E000220F331F441F551F8A95D1F760E072E123
:1019F0008AE790E00E94501D21503040832F8F7065
:101A000080BD29B92C813D819E8193709295907FF4
:101A100088858170880F880F880F982B9068822F97
:101A20008370880F982B90BD2730310511F4529A9E
:101A300001C05298539A549A20E030E002C021E04D
:101A400030E0C901DF91CF91089553985498579889
:101A50005698559810927F0210927E0280E090E096
:101A600008955D9BFECF8CB980E090E00895FC0165
:101A7000009719F421E030E006C05F9BFECF8CB1E7
:101A8000808320E030E0C9010895FC01009739F01F
:101A90005F9B05C08CB1808320E030E002C021E074
:101AA00030E0C9010895009719F421E030E00BC03F
:101AB000FC0104C05D9BFECF8CB9319680818823E8
:101AC000C9F720E030E0C90108950097D9F0611509
:101AD0007105C1F0A0E0B0E0615070400AC05F9BAA
:101AE000FECF2CB1241741F0FC01EA0FFB1F20832D
:101AF0001196A617B70798F3A80FB91F1C9220E0FC
:101B000030E002C021E030E0C9010895009719F4E7
:101B100021E030E007C090937F0280937E02579AC5
:101B200020E030E0C90108951F920F920FB60F9286
:101B300011242F933F934F935F936F937F938F93D2
:101B40009F93AF93BF93EF93FF938CB1E0917E028D
:101B5000F0917F02309709F00995FF91EF91BF91C5
:101B6000AF919F918F917F916F915F914F913F9135
:101B70002F910F900FBE0F901F901895FB01DA0167
:101B80008230910581F08330910518F40197C1F4FA
:101B900006C08330910559F0049791F40CC081E0A0
:101BA000808383E00BC083E0808385E007C083E00F
:101BB000808384E003C083E0808387E08C93089572
:101BC00010821C92089582309105A9F0833091050E
:101BD00018F4019751F506C083309105A1F00497E0
:101BE00021F51AC0662319F083B7806202C083B75B
:101BF0008F7D83BF0895662319F08FB580680AC072
:101C00008FB58F7707C0662319F08FB5806202C049
:101C10008FB58F7D8FBD0895662321F085B58062D5
:101C200085BD089585B58F7D85BD08958230910568
:101C300071F08330910518F40197A1F406C0833048
:101C4000910551F0049771F40CC06CBF0895862F74
:101C500090E09BBD8ABD0895862F90E099BD88BD18
:101C6000089563BD0895FC01DB01009769F081854B
:101C7000882351F06115710539F0838594858D9322
:101C80009C9320E030E002C021E030E0C9010895DB
:101C9000FC01DB01009759F08185882341F0611533
:101CA000710529F082858C9320E030E002C021E0AC
:101CB00030E0C9010895FF920F931F93CF93DF93F4
:101CC000EC018B016230710539F06330710541F030
:101CD0006130710549F402C040E003C041E005C035
:101CE00041E0FF24F39402C040E0FF24888588236C
:101CF00039F0C8010197029718F48F2DF42E482F60
:101D0000888169810E9472098A816B814F2D0E94AE
:101D100072091C870B87DF91CF911F910F91FF9064
:101D20000895CF93DF93EC010097E9F0898588232C
:101D3000D1F0CE0163E070E00E945B0E8E819F8146
:101D4000009731F48C816D8141E00E94720908C0D6
:101D50006FEF0E94160E8E819F8161E00E94E30D5D
:101D600020E030E002C021E030E0C901DF91CF91F6
:101D700008950F931F93DF93CF9300D0CDB7DEB7B5
:101D80008C01009749F1FC018185882329F11A8291
:101D90001982C80160E070E00E945B0EF801868144
:101DA0009781009719F48481658110C0BE016F5F2F
:101DB0007F4FAE014E5F5F4F0E94BE0DF8018681DE
:101DC000978160E00E94E30D89816A8140E00E9472
:101DD000720920E030E002C021E030E0C9010F903C
:101DE0000F90CF91DF911F910F9108950F931F9343
:101DF000DF93CF9300D0CDB7DEB78C01009769F1A8
:101E0000FC018185882349F11A821982C8010E9448
:101E1000B90EF801868197810097C9F0BE016F5F06
:101E20007F4FAE014E5F5F4F0E94BE0DF80186816D
:101E3000978160E00E94E30DF8018681978160E060
:101E40000E94160E89816A8140E00E947209F801A1
:101E50001286118620E030E002C021E030E0C901A6
:101E60000F900F90CF91DF911F910F9108950F93D5
:101E70001F93DF93CF9300D0CDB7DEB78C011982CB
:101E80001A82FC0186819781009741F440E08285A7
:101E9000811141E0F8018481658115C0BE016F5F49
:101EA0007F4FAE014E5F5F4F0E94BE0DF8019285DD
:101EB00026813781992351F4C90160E00E94E30D26
:101EC00089816A8140E00E94720911C08FEF989F5A
:101ED000C001112464E670E00E943C1DC9010E940B
:101EE000160EF8018681978161E00E94E30D0F9044
:101EF0000F90CF91DF911F910F910895CF93DF93B2
:101F0000EC01009771F08985882359F0CE0162E0D9
:101F100070E00E945B0ECE010E94370F20E030E09F
:101F200002C021E030E0C901DF91CF910895CF9345
:101F3000DF93EC01009771F08985882359F0CE0179
:101F400061E070E00E945B0ECE010E94370F20E03E
:101F500030E002C021E030E0C901DF91CF91089567
:101F6000FC01009789F08185882371F0623071054A
:101F700058F4672B21F4CF010E94970F03C0CF01C3
:101F80000E947E0F9C0102C021E030E0C90108954B
:101F9000FC01009769F08185882351F0653608F0CF
:101FA00064E66287CF010E94370F20E030E002C074
:101FB00021E030E0C90108950F931F93DF93CF9381
:101FC00000D0CDB7DEB78C01009709F485C0FC01C5
:101FD0002081243008F080C08281843008F07CC0E9
:101FE00086819781059708F077C061811A821982EE
:101FF000822F41E00E94B108F8018281638141E0B3
:102000000E94B108F8018081618140E00E9472095C
:10201000F8018281638140E00E947209F8018681A3
:102020009781009779F48481843008F055C06581E8
:1020300041E00E94B108F8018481658140E00E947E
:1020400072093BC0BE016F5F7F4FAE014E5F5F4FB5
:102050000E94BE0D89816A8141E00E94B108898198
:102060006A8140E00E947209F8012681378124309C
:10207000310538F42230310560F421303105C9F4DE
:1020800004C024303105A9F411C08BE483BF1CBE09
:1020900010C08FB581608FBD8EB588608EBD8EB546
:1020A00082608EBD8EB581608EBD03C08CE485BD1F
:1020B00013BCC90160E00E94E30DF801128681E0C3
:1020C0008187C80160E070E00E945B0EC8010E9439
:1020D000370F20E030E002C021E030E0C9010F906E
:1020E0000F90CF91DF911F910F910895CF92DF92C2
:1020F000EF92FF920F931F93DF93CF9300D000D006
:10210000CDB7DEB78C016B01009709F469C061158A
:10211000710509F465C08FEFFB018083EE245EC07A
:10212000F80161816F0D808141E00E947209F39492
:10213000F4E0FF16A9F7F80161816E0D808140E09F
:102140000E947209FF24F80163816F0D82810E9451
:102150000D09892BC1F51A82198212C01C821B82BB
:1021600005C08B819C8101969C838B838B819C8194
:1021700080549640B0F389819A8101969A8389832D
:1021800089819A81449750F3F80163816F0D8281B0
:102190000E940D09892BB9F4F80163816F0D8281CA
:1021A0000E940D09892BC1F38E2D90E0880F991F95
:1021B000880F991F080F191F0F0D111DF801848139
:1021C000F601808308C0F394F4E0FF1609F0BBCF5A
:1021D000E394EF1619F420E030E004C0FF24A0CF10
:1021E00021E030E0C9010F900F900F900F90CF9138
:1021F000DF911F910F91FF90EF90DF90CF900895A6
:102200000F931F93CF93DF938C01EB01009779F02D
:102210006115710561F0C801BE010E947610892B1D
:1022200031F488818F3FB9F320E030E002C021E033
:1022300030E0C901DF91CF911F910F9108951F9355
:10224000CF93DF93EC010097A9F18881843090F55A
:102250008A81843078F5898190E005975CF58B81DF
:1022600090E005973CF510E06981610F888141E0BD
:102270000E94B108892BF1F46981610F888141E0E6
:102280000E9472091F5F143079F710E06B81610FB3
:102290008A8140E00E94B108892B61F46B81610F53
:1022A0008A8141E00E9472091F5F143079F720E0B3
:1022B00030E002C021E030E0C901DF91CF911F91F1
:1022C000089581E090E0089581E090E0089581E034
:1022D00090E0089581E090E0089581E090E0089515
:1022E00081E090E0089581E090E0089581E090E041
:1022F0000895CF92DF92FF920F931F93CF93DF93B6
:10230000EC01F62E6A0189010E94CF09892B41F464
:102310008881880F0E94D509892B29F00E94D20953
:1023200021E030E018C08F2D0E94D509892BB1F72C
:10233000C0E0D0E009C0F601EC0FFD1F80810E94D3
:10234000D509892B59F72196C017D107A0F30E9410
:10235000D20920E030E0C901DF91CF911F910F91A8
:10236000FF90DF90CF900895DC01AB010097F9F06A
:1023700013968C9113978823D1F061157105B9F0EC
:1023800020E030E002C02F5F3F4FFA01E20FF31F61
:1023900080818823C1F72115310519F420E030E050
:1023A00008C0CD0160E40E9479119C0102C021E0C7
:1023B00030E0C9010895DF93CF930F92CDB7DEB718
:1023C000FC016983009789F08381882371F0CF0134
:1023D00060E4AE014F5F5F4F21E030E00E94791171
:1023E0009C0185E88A95F1F702C021E030E0C9013F
:1023F0000F90CF91DF9108954F925F926F927F92ED
:102400009F92AF92BF92CF92DF92EF92FF920F9383
:102410001F93DF93CF93CDB7DEB766970FB6F894CF
:10242000DEBF0FBECDBF5C01009709F46DC0FC019B
:102430008381882309F468C0411551056105710540
:1024400029F4C50160E30E94DB115CC077FF16C070
:102450008DE28B87EE24FF248701E41AF50A060B30
:10246000170B992493943E010894611C711C63011D
:102470008BE0482E512C4C0E5D1E1CC07A018B0146
:102480009924F1CFC801B7012AE030E040E050E0E4
:102490000E94501D605DF60161936F01C801B70194
:1024A0002AE030E040E050E00E94501DC901DA010E
:1024B0007C018D012C2D2619E114F1040105110573
:1024C00049F4322F992DBE01655F7F4FAE014F5FFA
:1024D0005F4F0EC0C414D504A9F6F3CF2150FB0101
:1024E000E90FF11DDA01A20FB11D8C9180839F5F6E
:1024F0002223A1F7390DFB01E30FF11D1082C50165
:102500000E94B4119C0102C021E030E0C90166962E
:102510000FB6F894DEBF0FBECDBFCF91DF911F91F4
:102520000F91FF90EF90DF90CF90BF90AF909F9072
:102530007F906F905F904F900895DF93CF930F92AD
:10254000CDB7DEB76983009719F421E030E00CC005
:1025500060E0AE014F5F5F4F21E030E00E947911F3
:102560009C0185E88A95F1F7C9010F90CF91DF9121
:102570000895FC01009769F08381882351F0662358
:1025800011F06CE101C068E1CF010E949D129C0135
:1025900002C021E030E0C9010895FC01009781F0FC
:1025A0008381882369F08481662311F0816001C0F2
:1025B0008E7F8483CF0164810E949D129C0102C0A2
:1025C00021E030E0C9010895FC01009781F083818A
:1025D000882369F08481662311F0826001C08D7FB9
:1025E0008483CF0164810E949D129C0102C021E07E
:1025F00030E0C9010895FC01009781F083818823B0
:1026000069F08481662311F0846001C08B7F84832C
:10261000CF0164810E949D129C0102C021E030E044
:10262000C9010895CF93DF93EC01009791F08B815E
:10263000882379F0CE0162E00E949D12892B49F433
:1026400080EA9FE00197F1F71E821F8220E030E0D0
:1026500002C021E030E0C901DF91CF910895CF930E
:10266000DF93EC01009791F08B81882379F0CE0104
:1026700061E00E949D12892B49F480EA9FE0019756
:10268000F1F71E821F8220E030E002C021E030E03E
:10269000C901DF91CF9108950F931F93CF93DF93DB
:1026A000EC01162F042F009701F18B818823E9F0AC
:1026B00089816817D0F46A814617B8F4123049F05E
:1026C000133031F0113011F060E003C060E401C05C
:1026D000605C600F6068CE010E949D12892B29F416
:1026E0001E830F8320E030E002C021E030E0C9010A
:1026F000DF91CF911F910F9108950F931F93CF9367
:10270000DF93EC0189010E944C13892B19F021E021
:1027100030E005C0CE01B8010E94B4119C01C9018E
:10272000DF91CF911F910F910895EF92FF920F9338
:10273000CF93DF93EC01009709F45CC0888187FD9B
:1027400059C09981992309F455C08A81882309F4D5
:1027500051C0953008F04EC01B8284EF91E028EC08
:1027600030E0F9013197F1F70197D9F7898182308B
:1027700010F008E301C000E3CE01602F0E949D121B
:10278000892B09F037C080E197E20197F1F7CE017C
:10279000602F0E949D1290E9E92E91E0F92EC70169
:1027A0000197F1F7CE01602F0E949D12C70101979A
:1027B000F1F788E08C83CE0168E00E949D12CE0183
:1027C00061E00E949D1280EA9FE00197F1F786E0A8
:1027D0008D83CE0166E00E949D128CE08C83CE0139
:1027E0006CE00E949D121E821F8281E08B8320E09C
:1027F00030E002C021E030E0C901DF91CF910F91BC
:10280000FF90EF900895EF92FF920F931F93DF9345
:10281000CF93CDB7DEB728970FB6F894DEBF0FBEC3
:10282000CDBF8C017A010097A1F1FC01838188233F
:1028300081F14115510569F1683058F5660F660F51
:10284000660F6064C8010E949D12892B11F520E07B
:1028500030E0AE014F5F5F4FFA01E20FF31FD70187
:10286000A20FB31F8C918F7180832F5F3F4F283051
:10287000310591F7C80160E428E030E00E94791149
:10288000892B39F4C80160E040E00E944C139C01A0
:1028900002C021E030E0C90128960FB6F894DEBFEF
:1028A0000FBECDBFCF91DF911F910F91FF90EF90A1
:1028B0000895EF92FF920F931F93CF93DF937C01C4
:1028C000C0E0D0E0062F10E0F70163816C0FA80193
:1028D0000C2E02C0559547950A94E2F7417082810B
:1028E0000E9472092196C430D10571F7F7018481E5
:1028F000678141E00E94720915E0812F8A95F1F706
:10290000F7018481678140E00E9472091A95F1F70E
:10291000DF91CF911F910F91FF90EF900895EF926B
:10292000FF920F931F93CF93DF93EC01F62E8881D4
:102930009981019739F500E010E0E62EFF246B81C4
:10294000600FA701002E02C0559547950A94E2F743
:1029500041708A810E9472090F5F1F4F0830110574
:1029600071F78C816F8141E00E94720915E0812F1F
:102970008A95F1F78C816F8140E00E9472091A9567
:10298000F1F70BC062956F70CE010E9459148FE071
:10299000F822CE016F2D0E94591485E88A95F1F72F
:1029A000DF91CF911F910F91FF90EF9008951F93AA
:1029B000CF93DF93EC01162F009779F08B85882356
:1029C00061F08C816D8141E00E947209CE01612F1E
:1029D0000E948F1420E030E002C021E030E0C90105
:1029E000DF91CF911F9108954F925F926F927F92E6
:1029F0008F929F92AF92BF92CF92DF92EF92FF920F
:102A00000F931F93DF93CF93CDB7DEB72A970FB6FF
:102A1000F894DEBF0FBECDBF4C017A018B01009749
:102A200009F460C0FC018385882309F45BC041156B
:102A300051056105710531F4C40160E30E94D714AA
:102A40009C0152C077FF16C0C4016DE20E94D714EA
:102A5000AA24BB246501AE18BF08C00AD10A3E01F2
:102A60000894611C711C73018BE0482E512C4C0E94
:102A70005D1E1BC05A016B01F2CFC601B5012AE0F1
:102A800030E040E050E00E94501D605DF70161932E
:102A90007F01C601B5012AE030E040E050E00E942D
:102AA000501DC901DA015C016D011E2D1619A1141A
:102AB000B104C104D10469F0E414F504F1F609C0CD
:102AC0001150F701E10FF11DC40160810E94D7147C
:102AD00004C07E010894E11CF11C112389F720E059
:102AE00030E002C021E030E0C9012A960FB6F89428
:102AF000DEBF0FBECDBFCF91DF911F910F91FF9031
:102B0000EF90DF90CF90BF90AF909F908F907F908D
:102B10006F905F904F9008950F931F93CF93DF9323
:102B2000EC01009799F08B85882381F06115710580
:102B300069F08B0103C0CE010E94D714F8016191A6
:102B40008F016623C1F720E030E002C021E030E0D1
:102B5000C901DF91CF911F910F9108951F93CF93DA
:102B6000DF93EC01162F009719F421E030E00BC041
:102B70008C816D8140E00E947209CE01612F0E941C
:102B80008F1420E030E0C901DF91CF911F910895AB
:102B9000FC01009769F08385882351F0662311F0CA
:102BA0006CE101C068E1CF010E94AE159C0102C03A
:102BB00021E030E0C9010895FC01009781F0838590
:102BC000882369F08485662311F0816001C08E7FBF
:102BD0008487CF0164850E94AE159C0102C021E06C
:102BE00030E0C9010895FC01009781F083858823B6
:102BF00069F08485662311F0826001C08D7F84872F
:102C0000CF0164850E94AE159C0102C021E030E036
:102C1000C9010895FC01009781F08385882369F03C
:102C20008485662311F0846001C08B7F8487CF0187
:102C300064850E94AE159C0102C021E030E0C9010C
:102C40000895CF93DF93EC01009781F08B85882363
:102C500069F0CE0162E00E94AE1580EA9FE0019724
:102C6000F1F71E861F8620E030E002C021E030E050
:102C7000C901DF91CF910895CF93DF93EC010097C5
:102C800081F08B85882369F0CE0161E00E94AE154A
:102C900080EA9FE00197F1F71E861F8620E030E072
:102CA00002C021E030E0C901DF91CF9108950F9378
:102CB0001F93CF93DF93EC01162F042F0097F1F0B1
:102CC0008B858823D9F089856817C0F46A854617F3
:102CD000A8F4123049F0133031F0113011F060E0F7
:102CE00003C060E401C0605C600F6068CE010E94B8
:102CF000AE151E870F8720E030E002C021E030E0F3
:102D0000C901DF91CF911F910F9108950F931F93E8
:102D1000CF93DF93EC0189010E945716892B19F09C
:102D200021E030E005C0CE01B8010E948C159C0165
:102D3000C901DF91CF911F910F910895EF92FF92FA
:102D40000F931F93CF93DF938C017A01009729F1A2
:102D5000FC018385882309F141155105F1F06830A4
:102D6000E0F4660F660F660F6064C8010E94AE153E
:102D7000C0E0D0E0F701EC0FFD1F60816F71C8016A
:102D80000E94D7142196C830D105A1F7C80160E090
:102D900040E00E9457169C0102C021E030E0C901CA
:102DA000DF91CF911F910F91FF90EF9008950F93B6
:102DB0001F93CF93DF93EC01009709F4C3C08A817E
:102DC000843008F0BFC08C81843008F0BBC0998586
:102DD000992309F4B7C08A85882309F4B3C09530D4
:102DE00008F0B0C088819981019711F014E001C00A
:102DF00018E08B8190E0810F911D099708F0A2C027
:102E000000E06B81600F8A8141E00E94B1086B8114
:102E1000600F8A8140E00E9472090F5F011788F3FA
:102E20008C816D8141E00E94B1088C816F8141E00D
:102E30000E94B1088C816D8140E00E9472098C81F2
:102E40006F8140E00E9472098885882351F08C814F
:102E50006E8141E00E94B1088C816E8140E00E9449
:102E6000720984EF91E028EC30E0F9013197F1F735
:102E70000197D9F788819981892BE9F4CE0163E024
:102E80000E94591480E197E20197F1F7CE0163E0C7
:102E90000E9459140CE211E0C8010197F1F7CE012C
:102EA00063E00E945914C8010197F1F7CE0162E076
:102EB0000E94591415C0CE0160E30E948F1480E176
:102EC00097E20197F1F7CE0160E30E948F140CE2C4
:102ED00011E0C8010197F1F7CE0160E30E948F1461
:102EE000C8010197F1F788819981019711F460E396
:102EF00001C060E28985823008F06860CE010E94DE
:102F0000AE1588E08C87CE0168E00E94AE15CE0138
:102F100061E00E94AE1580EA9FE00197F1F786E03C
:102F20008D87CE0166E00E94AE158CE08C87CE01C5
:102F30006CE00E94AE151E861F8681E08B8720E024
:102F400030E002C021E030E0C901DF91CF911F9154
:102F50000F910895FC0180819181009719F00197EC
:102F6000F1F40FC06485758580E090E028EE33E0D1
:102F700040E050E00E941D1D0E94501D3BBD2ABD37
:102F800008956485758580E090E028EE33E040E0A8
:102F900050E00E941D1D0E94501D39BD28BD08959E
:102FA000FF920F931F93CF93DF93EC01009721F1D2
:102FB0008985882309F1F884F616F0F06B870C8177
:102FC0001D8170E080E090E02E813F81201B310B5D
:102FD00040E050E00E941D1D2F2D30E040E050E009
:102FE0000E94501D020F131F1D870C87CE010E94E7
:102FF000AA1720E030E002C021E030E0C901DF91F3
:10300000CF911F910F91FF9008950F931F93CF932E
:10301000DF93EC019B01009761F18985882349F1D9
:103020006C817D812617370738F08E819F81B90129
:103030008217930708F4BC017D876C870C811D8182
:10304000601B710B80E090E0288530E040E050E0AC
:103050000E941D1D2E813F81201B310B40E050E05E
:103060000E94501D2B87CE010E94AA1720E030E05D
:1030700002C021E030E0C901DF91CF911F910F9193
:103080000895FC01DB01009759F08185882341F008
:103090006115710529F083858C9320E030E002C032
:1030A00021E030E0C9010895FC010097B9F0818565
:1030B0008823A1F080819181009719F48FB58068F1
:1030C00004C0019719F48FB580628FBD81E08287BB
:1030D000CF010E94AA1720E030E002C021E030E0DA
:1030E000C9010895FF920F931F93CF93DF9302E8D6
:1030F00012E0FF24F801C081D181209719F18A855F
:10310000882301F18A816B8141E00E9472096C85FC
:103110007D8580E090E020E43FE140E050E00E94C7
:103120001D1D20EA3FE040E050E00E94501DC90113
:10313000232B11F00197F1F78A816B8140E00E9407
:103140007209F3940E5F1F4FF2E002391F0791F6E8
:1031500020E030E0FF2011F421E030E0C901DF91F0
:10316000CF911F910F91FF900895CF93DF93EC01C2
:103170000097F1F089858823D9F08881998100979B
:1031800031F48FB58F778FBD83E065E00AC001977A
:1031900031F48FB58F7D8FBD83E064E002C08A81FA
:1031A0006B8140E00E9472091A8620E030E002C084
:1031B00021E030E0C901DF91CF910895CF93DF93F3
:1031C000EC010097A1F18985882389F1CE010E9445
:1031D000B518888199810297B9F4A2E8B2E0E0E0DD
:1031E000F0E08D919C9111978C179D0739F4EE0FAB
:1031F000FF1FEE57FD4F1182108215C031961296B7
:10320000E830F10571F70FC080918002882319F032
:1032100081508093800280918002882321F41FBC1A
:103220001EBC10928102198620E030E002C021E02D
:1032300030E0C901DF91CF910895CF92DF92FF92E4
:103240000F931F93CF93DF93EC01009709F483C092
:10325000C880D98083E0C816D10408F07CC0F88407
:10326000FF2009F478C00C811D812E813F81021757
:10327000130708F070C019861A866F2D66956B8744
:1032800070E080E090E0201B310B40E050E00E94B5
:103290001D1D2F2D30E040E050E00E94501D020F18
:1032A000131F1D870C8782E0C816D10419F58A8187
:1032B000843008F050C06B8141E00E94B1088A81DF
:1032C0006B8140E00E947209A2E8B2E0E0E0F0E029
:1032D0008D919C911197892B39F4EE0FFF1FEE57BA
:1032E000FD4FD183C0832EC031961296E830F10590
:1032F00079F731C080918102882369F482E08FBD23
:103300008AE18EBD8FE19EE497BD86BD1DBC1CBCCD
:1033100081E080938102CD2841F483E065E041E0C3
:103320000E94B1088FB5806807C083E064E041E087
:103330000E94B1088FB580628FBD809180028F5F3F
:103340008093800281E089878A87CE010E94AA1734
:1033500020E030E002C021E030E0C901DF91CF91F0
:103360001F910F91FF90DF90CF900895843080F4EB
:10337000683070F490E04130510509F091E0492F38
:103380000E947209009711F081E090E09C0102C058
:1033900021E030E0C9010895843080F4683070F491
:1033A00090E04130510509F491E0492F0E947209E3
:1033B000009711F081E090E09C0102C021E030E034
:1033C000C9010895FF920F931F93CF93DF93EC01F0
:1033D000009751F18C81843038F58A819B81009768
:1033E00011F407E003C00197F9F404E08D818830FF
:1033F000D8F490E0800F911D0997B4F4FF248881E0
:103400009981892B11F0FF24F39410E06D81610FF5
:103410008C814F2D0E947209892B31F41F5F101788
:10342000A8F320E030E002C021E030E0C901DF91E4
:10343000CF911F910F91FF900895DF92EF92FF922D
:103440000F931F93CF93DF938C01009799F16A300C
:1034500088F5FC0182819381009741F4E62FF0E02A
:10346000E15FFD4F608197E0D92E04C0019711F50F
:1034700084E0D82EF80180819181019709F460954C
:10348000C0E0D0E0E62EFF24F80165816C0FA701B3
:103490000C2E02C0559547950A94E2F7417084813D
:1034A0000E947209892B31F42196CD1568F320E032
:1034B00030E002C021E030E0C901DF91CF911F91DF
:1034C0000F91FF90EF90DF9008950F931F93CF938C
:1034D000DF93EC01009749F18C81843030F58A81CB
:1034E0009B81009711F407E003C00197F1F404E019
:1034F0008D818830D0F490E0800F911D0997ACF455
:1035000010E06D81610F8C8141E00E94B108892B30
:1035100061F41F5F1017A8F3CE010E94E219009713
:1035200011F081E090E09C0102C021E030E0C9018F
:10353000DF91CF911F910F910895FC01009761F0E9
:103540008389882349F06330710530F47687658775
:10355000148A20E030E002C021E030E0C901089583
:10356000FC01009769F08389882351F0611571058A
:1035700011F461E070E0728B618B20E030E002C0FA
:1035800021E030E0C9010895EF92FF920F931F935D
:10359000CF93DF93EC01009769F18B89882351F178
:1035A0006115710539F18F8598897C0100E010E083
:1035B0008D859E85029721F4EE0CFF1C001F111FC4
:1035C0009B0140E050E0C801B7010E941D1D9B0116
:1035D000AC0160E67AEE80E090E00E94501DC901E7
:1035E000DA010097A105B10529F03A8B298B20E07B
:1035F00030E002C021E030E0C901DF91CF911F919E
:103600000F91FF90EF900895CF93DF93FC01EB01B2
:10361000009789F08389882371F06115710559F04D
:1036200086899789A08DB18D88839983AA83BB836E
:1036300020E030E002C021E030E0C901DF91CF910D
:103640000895FC01009751F08389882339F0168A88
:10365000178A108E118E20E030E002C021E030E0A9
:10366000C9010895FC01DB01009799F08389882343
:1036700081F06115710569F085859685278530890A
:10368000029711F4220F331F2D933C9320E030E07A
:1036900002C021E030E0C90108951F93CF93DF936A
:1036A000EC01162F462F4170888169810E947209B2
:1036B000412F469541708A816B810E947209412F8A
:1036C0004695469541708C816D810E947209412F0B
:1036D00046954695469541708E816F810E9472098C
:1036E0001D8A112311F081E08D8BDF91CF911F9105
:1036F00008950F931F93CF93DF93EC01009709F484
:1037000052C08B89882309F44EC06230710508F0DD
:103710004AC08D859E85029711F044E001C048E0C3
:103720008C890E891F89288D398D672B61F490E073
:103730000196642F70E00E943C1D8C8B0F5F1F4F21
:103740002F4F3F4F0DC090E0840F911D0197642FC4
:1037500070E00E943C1D8C8B015010402040304096
:103760000E8B1F8B288F398FEC898D859E85009756
:1037700021F0F0E0029761F406C0F0E0E370F07031
:10378000E75EFD4F09C0E770F070E35EFD4F04C0D7
:10379000E370F070EB5DFD4F6081CE010E944D1B28
:1037A00020E030E002C021E030E0C901DF91CF919C
:1037B0001F910F910895AF92BF92CF92DF92EF9237
:1037C000FF920F931F93CF93DF938C016B017A01CC
:1037D000009719F1FC0183898823F9F042305105E3
:1037E000E0F4C0E0D0E020EDA22E27E0B22E0FC022
:1037F000C801B7010E94791BF8018189928904C030
:10380000F5013197F1F701970097D1F72196CC1583
:10381000DD0570F320E030E002C021E030E0C901B6
:10382000DF91CF911F910F91FF90EF90DF90CF909C
:10383000BF90AF900895CF92DF92EF92FF920F93D7
:103840001F93CF93DF93EC016A01009721F18B89DD
:10385000882309F18F8598897C0100E010E08D852F
:103860009E85029721F4EE0CFF1C001F111F9B0187
:1038700040E050E0C801B7010E941D1D28E631E07C
:1038800040E050E00E94501DCE01B901A6010E9407
:10389000DB1B9C0102C021E030E0C901DF91CF9128
:1038A0001F910F91FF90EF90DF90CF900895CF93ED
:1038B000DF93EC010097C1F08B898823A9F0CE013A
:1038C00060E00E944D1B8C85882351F088856985B6
:1038D00040E00E9472098A856B8540E00E9472096F
:1038E0001D8A20E030E002C021E030E0C901DF9114
:1038F000CF910895CF93DF93EC01009779F18B89F5
:10390000882361F18C85882351F08885698541E0A1
:103910000E9472098A856B8541E00E947209EC89D8
:103920008D859E85009721F0F0E0029761F406C036
:10393000F0E0E370F070E75EFD4F09C0E770F070F3
:10394000E35EFD4F04C0E370F070EB5DFD4F6081FE
:10395000CE010E944D1B20E030E002C021E030E0AB
:10396000C901DF91CF910895CF93DF93EC010097C8
:1039700009F45DC02881243008F059C08A81843060
:1039800008F055C08C81843008F051C08E8184309D
:1039900008F04DC08F859889892B09F448C0822F83
:1039A000698141E00E94B1088A816B8141E00E94F7
:1039B000B1088C816D8141E00E94B1088E816F81D8
:1039C00041E00E94B1088C858823D1F0988594301D
:1039D00070F58A85843058F5892F698541E00E9409
:1039E000B1088A856B8541E00E94B10888856985A8
:1039F00041E00E9472098A856B8541E00E9472094C
:103A000089899A89892B21F481E090E09A8B898BAE
:103A10001C8A1E8A1F8A188E198E1D8ACE0160E0AC
:103A20000E944D1B81E08B8B20E030E002C021E042
:103A300030E0C901DF91CF910895629FD001739F5B
:103A4000F001829FE00DF11D649FE00DF11D929F3A
:103A5000F00D839FF00D749FF00D659FF00D992779
:103A6000729FB00DE11DF91F639FB00DE11DF91F9D
:103A7000BD01CF0111240895AA1BBB1B51E107C052
:103A8000AA1FBB1FA617B70710F0A61BB70B881FEE
:103A9000991F5A95A9F780959095BC01CD0108957D
:103AA000A1E21A2EAA1BBB1BFD010DC0AA1FBB1F42
:103AB000EE1FFF1FA217B307E407F50720F0A21BB4
:103AC000B30BE40BF50B661F771F881F991F1A9421
:103AD00069F760957095809590959B01AC01BD014B
:103AE000CF010895AEE0B0E0E8E7FDE10C942E20B0
:103AF0000D891E898F89988D97FF02C080E090E81C
:103B000001979E838D831A83098386E08C839E01AF
:103B1000255E3F4FCE010196698D7A8DA9010E94E5
:103B2000A31D4D815E8157FD0AC02F813885421744
:103B300053070CF49A01020F131FF80110822E96FE
:103B4000E4E00C944A20ABE0B0E0E9EAFDE10C943B
:103B500020203C012B015A01FC011782168283812F
:103B600081FD03C06FEF7FEFC6C19AE0892E1E0171
:103B70000894211C311CF3012381F20123FD85915E
:103B800023FF81912F01882309F4B2C1853239F4D2
:103B900023FD859123FF81912F01853229F490E047
:103BA000B3010E94961FE7CF982FFF24EE2499249B
:103BB000FFE1FF15D0F09B3269F09C3228F490327F
:103BC00059F0933291F40EC09D3249F0903369F46C
:103BD00041E024C052E0F52A84E0F82A28C098E0A9
:103BE000F92A25C0E0E1FE2A22C0F7FC29C0892F6E
:103BF00080538A3070F4F6FE05C0989C902C1124F6
:103C0000980E15C0E89CE02C1124E80EF0E2FF2A83
:103C10000EC09E3229F4F6FC6BC140E4F42A07C0C2
:103C20009C3619F450E8F52A02C0983649F4F2019E
:103C300023FD959123FF91912F01992309F0B8CF8E
:103C4000892F8554833018F08052833038F444E053
:103C500050E0A40EB51E5FE359830FC0933631F0D8
:103C6000933779F0933509F056C020C0F501808173
:103C7000898342E050E0A40EB51E610101E010E02E
:103C800012C0F501C080D180F6FC03C06FEF7FEF5A
:103C900002C0692D70E042E050E0A40EB51EC601DE
:103CA0000E948B1F8C015FE7F52214C0F501C080D4
:103CB000D180F6FC03C06FEF7FEF02C0692D70E08A
:103CC00042E050E0A40EB51EC6010E94801F8C0188
:103CD00050E8F52AF3FE07C01AC080E290E0B30175
:103CE0000E94961FEA948E2D90E008171907A8F3FA
:103CF0000EC0F601F7FC8591F7FE81916F0190E00F
:103D0000B3010E94961FE110EA9401501040011582
:103D1000110579F7EAC0943611F0993669F5F7FE86
:103D200008C0F501208131814281538184E090E017
:103D30000AC0F501808191819C01442737FD40959F
:103D4000542F82E090E0A80EB91E9FE6F92257FF9B
:103D500009C050954095309521953F4F4F4F5F4F8B
:103D6000E0E8FE2ACA01B901A1012AE030E00E9480
:103D7000C21FD82ED21840C0953729F41F2D1F7EA0
:103D80002AE030E01DC01F2D197F9F3661F090376B
:103D900020F4983509F0ACC00FC0903739F098374F
:103DA00009F0A6C004C028E030E00AC0106114FD8C
:103DB000146020E130E004C014FD166020E132E020
:103DC00017FF08C0F501608171818281938144E011
:103DD00050E008C0F50180819181BC0180E090E055
:103DE00042E050E0A40EB51EA1010E94C21FD82ED1
:103DF000D2188FE7F82EF122F6FE0BC05EEFF52207
:103E0000D91438F4F4FE07C0F2FC05C08FEEF82296
:103E100002C01D2D01C0192DF4FE0DC0FE01ED0DD7
:103E2000F11D8081803319F499EEF92208C01F5FDB
:103E3000F2FE05C003C08F2D867809F01F5F0F2D9D
:103E4000F3FC14C0F0FE0FC01E1510F09D2C0BC02B
:103E50009D2C9E0C911A1E2D06C080E290E0B301AD
:103E60000E94961F1F5F1E15C0F304C01E1510F49C
:103E7000E11A01C0EE2404FF0FC080E390E0B3011B
:103E80000E94961F02FF1DC001FD03C088E790E05D
:103E90000EC088E590E00BC0802F867891F001FF7E
:103EA00002C08BE201C080E2F7FC8DE290E0B3013A
:103EB0000E94961F06C080E390E0B3010E94961F07
:103EC0009A94D914C0F3DA94F101ED0DF11D8081BB
:103ED00090E0B3010E94961FDD20A9F706C080E2A2
:103EE00090E0B3010E94961FEA94EE20C1F743CE02
:103EF000F30166817781CB012B96E2E10C943C20A3
:103F0000FC010590615070400110D8F780959095A4
:103F10008E0F9F1F0895FC016150704001900110A9
:103F2000D8F7809590958E0F9F1F08950F931F933C
:103F3000CF93DF938C01EB018B8181FF1BC082FF4C
:103F40000DC02E813F818C819D812817390764F433
:103F5000E881F9810193F983E88306C0E885F98552
:103F6000802F0995892B31F48E819F8101969F8343
:103F70008E8302C00FEF1FEFC801DF91CF911F9119
:103F80000F910895FA01AA27283051F1203181F1CB
:103F9000E8946F936E7F6E5F7F4F8F4F9F4FAF4F51
:103FA000B1E03ED0B4E03CD0670F781F891F9A1F64
:103FB000A11D680F791F8A1F911DA11D6A0F711D18
:103FC000811D911DA11D20D009F468943F912AE024
:103FD000269F11243019305D3193DEF6CF0108950C
:103FE000462F4770405D4193B3E00FD0C9F7F6CF3D
:103FF000462F4F70405D4A3318F0495D31FD405205
:10400000419302D0A9F7EACFB4E0A695979587959A
:1040100077956795BA95C9F7009761057105089579
:104020009B01AC010A2E0694579547953795279525
:10403000BA95C9F7620F731F841F951FA01D0895BD
:104040002F923F924F925F926F927F928F929F92A8
:10405000AF92BF92CF92DF92EF92FF920F931F9396
:10406000CF93DF93CDB7DEB7CA1BDB0B0FB6F89447
:10407000DEBF0FBECDBF09942A88398848885F8487
:104080006E847D848C849B84AA84B984C884DF80F8
:10409000EE80FD800C811B81AA81B981CE0FD11DDC
:1040A0000FB6F894DEBF0FBECDBFED010895F894B2
:0240B000FFCF40
:1040B20056656869636C652044617368626F6172FA
:1040C2006400202042756C6220436865636B2E2E6B
:1040D2002E200044617368626F61726420726561B0
:1040E20064790D0A005350443A2533752052504DDD
:1040F2003A253475002121204F494C205052455316
:10410200532021212000212120434F4F4C414E5466
:1041120020212120202000212120424154544552B7
:10412200592021212020200020204C4F5720465585
:10413200454C20202020202000202048415A415276
:1041420044204F4E2020202020003C3C204C45465D
:1041520054205455524E2020202000202020524925
:10416200474854205455524E203E3E0020202020E5
:104172002020202020202020202020200052504DCE
:104182003A202025347520202020202000434F4F44
:104192004C3A202533752043202020202000424124
:1041A20054543A2532752E257556202020202000A1
:1041B2004655454C3A2025337520252520202020C0
:1041C2002000545249503A25356C75206D2020202C
:1041D200004F444F3A2025356C75206B6D2020002E
:1041E20050554C5345533A253475205350443A2583
:1041F2003375200052504D3A253475204655454CB2
:104202003A253375252520005350443D257520520B
:10421200504D3D2575204655454C3D257520434F53
:104222004F4C3D257520424154543D256C75204F1D
:10423200494C3D25750D0A00802500000300000051
:104242000000010000000300000000000000010067
:10425200050000004D00013A003700340031003FF4
:10426200065B4F666D7D077F6F0102040801030242
:0A42720006040C080903060C0900FD
:00000001FF
