:100000000C942A000C94BD000C9447000C944700FB
:100010000C94AB0A0C94820A0C9453000C94590A69
:100020000C9447000C94300A0C94070A0C94DE09D7
:100030000C9447000C94870B0C9447000C944700D9
:100040000C9447000C9447000C9447000C94470014
:100050000C94470011241FBECFE5D8E0DEBFCDBF12
:1000600011E0A0E6B0E0E8E9FCE302C005900D92E3
:10007000AE39B107D9F712E0AEE9B1E001C01D9287
:10008000A030B107E1F70E9416010C944A1E0C94AF
:1000900000008091A9019091AA0101969093AA0174
:1000A0008093A90108951F920F920FB60F92112409
:1000B000EF92FF920F931F932F933F934F935F9372
:1000C0006F937F938F939F93AF93BF9326B537B56D
:1000D0006091A9017091AA0188B78695869580FFE5
:1000E00004C037FD02C06F5F7F4FCB01A0E0B0E0DE
:1000F000DC019927882740E050E0822B932BA42B2A
:10010000B52B2091CC013091CD014091CE01509181
:10011000CF017C018D01E21AF30A040B150BE0926A
:10012000BE01F092BF010093C0011093C101809302
:10013000CC019093CD01A093CE01B093CF018093D9
:10014000BA019093BB01A093BC01B093BD0181E0C3
:100150008093A201BF91AF919F918F917F916F91F9
:100160005F914F913F912F911F910F91FF90EF90D1
:100170000F900FBE0F901F9018951F920F920FB601
:100180000F9211248F939F938091CA019091CB017C
:1001900001969093CB018093CA019F918F910F900C
:1001A0000FBE0F901F9018958091A0019091A10112
:1001B00001969093A1018093A00108950F931F933E
:1001C000CF93DF938093AB01C7E0D0E0082F10E01E
:1001D000A8010C2E02C0569547950A94E2F741708B
:1001E00081E062E00E94650781E063E041E00E94F7
:1001F000650781E063E040E00E94650721978FEF8B
:10020000CF3FD80729F7DF91CF911F910F91089524
:10021000882329F08BE485BD8FE783BD089515BC45
:1002200083E067E040E00E94650708952F923F92C7
:100230004F925F926F927F928F929F92AF92BF92F6
:10024000CF92DF92EF92FF920F931F93DF93CF93A2
:10025000CDB7DEB7CA58D0400FB6F894DEBF0FBE98
:10026000CDBF81E060E040E00E94A40681E061E053
:1002700040E00E94A40681E060E041E00E94650742
:1002800081E061E041E00E94650781E062E041E0D9
:100290000E94A40681E063E041E00E94A40681E0A0
:1002A00062E040E00E94650781E063E040E00E9478
:1002B000650781E064E041E00E94A40681E065E01A
:1002C00041E00E94A40681E066E041E00E94A406AD
:1002D00081E064E040E00E94650781E065E040E085
:1002E0000E94650781E066E040E00E94650783E0C8
:1002F00067E041E00E94A406DE011596E1E7F1E027
:100300008AE001900D928150E1F7CE0105960E949E
:10031000260880E090E061E070E044ED50E00E944B
:10032000BE0980E090E061E070E00E943309DE01E8
:100330001F96E7E6F1E08AE001900D928150E1F727
:10034000CE010F960E9426088EB580688EBD8EB5B0
:1003500080648EBD81E090E060E070E049E450E0B0
:100360000E94BE0981E090E060E070E00E943309E5
:1003700089B7806289BF85B7826085BF85B78E7F68
:1003800085BF85B7836085BF8AB780648ABF8BB716
:1003900080648BBFDE015996EDE5F1E08AE00190C3
:1003A0000D928150E1F7CE0149960E94D40A81E076
:1003B00090E09093D1018093D00192E09093D2018C
:1003C0001092D30111E01093D40106E00093D501FF
:1003D00085E08093D60184E08093D7011093D80103
:1003E0009093D90180E18093DA0180ED91E00E9441
:1003F000CA141B830C83CE0103960E9426068AB37F
:10040000807F8ABB8BB3807F8BBB78948FEF0E94F9
:10041000DE0080ED91E060E040E020E630E00E9408
:10042000791480ED91E061E040E022E730E00E9445
:10043000791480E395E728EC30E0F9013197F1F782
:100440000197D9F780E00E94DE0080ED91E00E94E4
:100450002F1483E890E00E94460B82E090E0909396
:100460009F0180939E0180E090E022243324EE24BB
:10047000FF24C757DF4F19821882C958D0408824FB
:10048000992444245524C957DF4F19821882C7582C
:10049000D04066247724F1E1AF2EB12CE4E3CE2ED8
:1004A000D12CCC0EDD1E06C0CB57DF4F8881998141
:1004B000C558D0402091A0013091A101CB57DF4F0A
:1004C00039832883C558D040281B390B220E331E90
:1004D000E20EF31EC757DF4F48815981C958D040FB
:1004E000420F531FC757DF4F59834883C958D04025
:1004F000820E931E420E531EC957DF4FA881B98149
:10050000C758D040A20FB31FC957DF4FB983A88384
:10051000C758D040620E731E81E060E00E94000761
:100520008C0181E061E00E94000720E0892B09F442
:1005300021E0012B61F4222321F081E08093A801C6
:1005400012C01092A80181E08093A6010EC0222360
:1005500041F01092A8011092A60181E08093A701BA
:1005600006C01092A8011092A6011092A7018091D6
:100570009E0190919F0182309105B1F083309105E9
:1005800030F4009759F0019709F04BC00AC083304E
:100590009105E1F0049709F044C036C021E030E055
:1005A00029C042E050E039C08091AC019091AD018A
:1005B000855F9140B0F11092AF011092AE0183E0DF
:1005C00090E090939F0180939E012BC08091AC019D
:1005D0009091AD018C52914090F48091AE01909138
:1005E000AF0101969093AF018093AE010597C8F0DB
:1005F00024E030E030939F0120939E0112C01092BE
:10060000AF011092AE010DC08091AC019091AD018F
:10061000855F914030F043E050E050939F0140935C
:100620009E0152E32516310408F44DC020E080916C
:10063000B0019091B1010A9708F421E08091B201D4
:100640009091B3010A9740F48091AC019091AD0173
:10065000855F914008F022608091B4019091B501CE
:10066000A091B601B091B701805E9E42A040B0401B
:10067000895B9B40A040B04008F024608091B801A5
:100680009091B9018F36910508F028608091A601FC
:10069000882321F48091A801882321F08091A5016D
:1006A000811120628091A701882321F48091A80103
:1006B000882321F08091A50181112064822F0E945E
:1006C000DE002224332444E6E416F10408F48BC04F
:1006D0008091A9019091AA012CB53DB5E090BA0195
:1006E000F090BB010091BC011091BD01A0E0B0E011
:1006F000DC019927882740E050E0822B932BA42B24
:10070000B52B8E199F09A00BB10B8954984EA140AF
:10071000B04028F01092A4011092A30130C0809143
:10072000A201882361F11092A2018091BE019091F3
:10073000BF01A091C001B091C1010097A105B10511
:10074000F1F02091BE013091BF014091C001509164
:10075000C10163E0220F331F441F551F6A95D1F773
:1007600060E477E78BE190E00E94431B2B3F31056B
:1007700010F020E030E03093A4012093A301809199
:10078000A201882371F58091A3019091A401892B86
:1007900041F18091C2019091C301A091C401B09137
:1007A000C5018C509E4FAF4FBF4F8093C2019093B5
:1007B000C301A093C401B093C5018091C60190917B
:1007C000C701A091C801B091C9018C509E4FAF4F95
:1007D000BF4F8093C6019093C701A093C801B09307
:1007E000C901EE24FF24C757DF4F88819981C9587A
:1007F000D0408A3F9105F0F0F8948091CA01909121
:10080000CB011092CB011092CA017894DC0128E749
:1008100030E0A29FC001A39F900DB29F900D1124C4
:100820009093AD018093AC01C757DF4F19821882B6
:10083000C958D0403AEF8316910408F4EEC04DB782
:100840005EB74A5050400FB6F8945EBF0FBE4DBF22
:10085000EDB7FEB7319623E230E02C0F3D1FADB768
:10086000BEB712963C932E931197B382A28245E9AC
:1008700050E0558344838091A3019091A401978314
:1008800086838091AC019091AD01918780870E9411
:10089000651B8091AB01ADB7BEB71A960FB6F89441
:1008A000BEBF0FBEADBF81FF11C000D000D000D0D1
:1008B000EDB7FEB73196ADB7BEB71296DC92CE92C9
:1008C0001197B382A28225EA30E088C083FF11C06D
:1008D00000D000D000D0EDB7FEB73196ADB7BEB7AF
:1008E0001296DC92CE921197B382A28226EB30E070
:1008F00075C082FF11C000D000D000D0EDB7FEB7A8
:100900003196ADB7BEB71296DC92CE921197B382F4
:10091000A28227EC30E062C080FF11C000D000D07E
:1009200000D0EDB7FEB73196ADB7BEB71296DC92E8
:10093000CE921197B382A28228ED30E04FC0809111
:10094000A801882389F000D000D000D0EDB7FEB711
:100950003196ADB7BEB71296DC92CE921197B382A4
:10096000A28229EE30E03AC08091A601882389F066
:1009700000D000D000D0EDB7FEB73196ADB7BEB70E
:100980001296DC92CE921197B382A2822AEF30E0C7
:1009900025C08091A701882389F000D000D000D025
:1009A000EDB7FEB73196ADB7BEB71296DC92CE92D8
:1009B0001197B382A2822BE031E010C000D000D0AA
:1009C00000D0EDB7FEB73196ADB7BEB71296DC9248
:1009D000CE921197B382A2822CE131E03583248339
:1009E0000E94651B4DB75EB74A5F5F4F0FB6F89424
:1009F0005EBF0FBE4DBF80ED91E060E040E09E0124
:100A00002D5D3F4F0E94791480ED91E061E040E060
:100A100096010E9479148824992452EC651651E0BD
:100A2000750600F18091A50191E089278093A501C9
:100A30008823B1F08091A601882341F48091A70119
:100A4000882321F48091A801882351F081E00E943D
:100A5000080180E49CE90197F1F780E00E94080119
:100A60006624772484EF481681E0580608F470C0A5
:100A700080E0BE016F5F7F4F0E94880669817A81A6
:100A800080E090E024E630E040E050E00E94101B5F
:100A90002FEF33E040E050E00E94431B3093B10160
:100AA0002093B00181E0BE016F5F7F4F0E948806F6
:100AB00069817A8180E090E02AEA30E040E050E00D
:100AC0000E94101B2FEF33E040E050E00E94431BD8
:100AD000285D3F4F3093B9012093B80182E0BE01F9
:100AE0006F5F7F4F0E94880669817A8180E090E085
:100AF00020E83EE340E050E00E94101B2FEF33E07F
:100B000040E050E00E94431B2093B4013093B501B4
:100B10004093B6015093B70183E0BE016F5F7F4FF2
:100B20000E94880669817A8180E090E024E630E0C6
:100B300040E050E00E94101B2FEF33E040E050E017
:100B40000E94431B3093B3012093B20144245524E7
:100B5000C957DF4FA881B981C758D040A858B341C1
:100B600008F45DC04DB75EB7445150400FB6F894DD
:100B70005EBF0FBE4DBFEDB7FEB7319625E430E046
:100B80002C0F3D1FADB7BEB712963C932E93119715
:100B900040E450E0538342838DE291E09583848367
:100BA0008091A3019091A401978386838091AC01E9
:100BB0009091AD01918780878091B0019091B101B2
:100BC000938782878091B8019091B9019587848736
:100BD0008091B4019091B501A091B601B091B70197
:100BE00086879787A08BB18B8091B2019091B301DA
:100BF000938B828B0E94651BADB7BEB754960FB620
:100C0000F894BEBF0FBEADBFCE018B5B9F4F0E945D
:100C1000460BC957DF4F19821882C758D0408091C0
:100C2000A3019091A4018837910508F43DCC81E09F
:100C30000E94080184EF91E0E8ECF0E03197F1F7D1
:100C40000197D1F780E00E9408012ECCFC010097AB
:100C500019F421E030E020C03E983F98808180FD6B
:100C60003E9A869580FD3F9A3D98389839983A98F3
:100C70003B983C98309831983298918190FD309A09
:100C8000892F869580FD319A892F8695869580FDDE
:100C9000329A379A20E030E0C9010895379880E011
:100CA00090E00895982F883018F021E030E013C0CC
:100CB000389839983A983B983C9880FD389A892F13
:100CC000869580FD399A892F8695869580FD3A9A7A
:100CD000369A20E030E0C901089586B18295869564
:100CE00086958370809581700895FC01009719F4B2
:100CF00021E030E00BC084B145B1342F20E090E01A
:100D0000282B392B3183208320E030E0C90108955E
:100D1000CF93DF93EB010E945206BC01009781F450
:100D20003699FECF209719F461E070E009C084B1D4
:100D300045B1342F20E090E0282B392B39832883CC
:100D4000CB01DF91CF910895843090F5683080F524
:100D5000442319F0413061F515C0E82FF0E0EE0FA3
:100D6000FF1FE558FE4F0190F081E02D208181E0CA
:100D700090E002C0880F991F6A95E2F78095822360
:100D8000808313C0E82FF0E0EE0FFF1FE558FE4F01
:100D90000190F081E02D208181E090E002C0880F79
:100DA000991F6A95E2F7282B208320E030E002C0EB
:100DB00021E030E0C90108958430F0F4662319F091
:100DC0006130D1F40BC0E82FF0E0EE0FFF1FE558C3
:100DD000FE4F0190F081E02D10820BC0E82FF0E073
:100DE000EE0FFF1FE558FE4F0190F081E02D8FEFD1
:100DF000808320E030E002C021E030E0C9010895A6
:100E0000843008F56830F8F4813039F0813040F0F2
:100E1000823049F08330B9F409C0E6E3F0E008C05D
:100E2000E9E3F0E005C0E3E3F0E002C0E0E3F0E076
:100E30008081282F30E002C0359527956A95E2F72A
:100E40002170307002C020E030E0C9010895843084
:100E500088F4813049F0813028F0823039F08330D5
:100E600049F406C089B3089586B3089583B30895FD
:100E700080B3089580E00895843018F5683008F54F
:100E8000813039F0813040F0823049F08330C9F44C
:100E900009C0E8E3F0E008C0EBE3F0E005C0E5E3FB
:100EA000F0E002C0E2E3F0E0208181E090E002C0E7
:100EB000880F991F6A95E2F72827208320E030E009
:100EC00002C021E030E0C9010895843080F5683027
:100ED00070F5813039F0813040F0823049F0833054
:100EE00031F509C0E8E3F0E008C0EBE3F0E005C04D
:100EF000E5E3F0E002C0E2E3F0E0442359F42081AE
:100F000081E090E002C0880F991F6A95E2F7809512
:100F1000282309C0208181E090E002C0880F991F3A
:100F20006A95E2F7282B208320E030E002C021E020
:100F300030E0C90108958430C0F4813039F0813047
:100F400040F0823049F0833081F409C0E8E3F0E0FA
:100F500008C0EBE3F0E005C0E5E3F0E002C0E2E347
:100F6000F0E0608320E030E002C021E030E0C90121
:100F7000089581E090E0089581E090E0089581E097
:100F800090E0089581E090E0089581E090E0089578
:100F900081E090E0089581E090E0089581E090E0A4
:100FA000089580E0089581E090E0089581E090E068
:100FB000089581E090E0089581E090E0089581E057
:100FC00090E0089581E090E0089581E090E0089538
:100FD0000895089581E090E0089581E090E00895FB
:100FE00081E090E0089581E090E0089581E090E054
:100FF000089581E090E008958330910518F58130DF
:10100000910571F08130910518F00297D9F412C062
:1010100083B7887F83BF83B76770862B83BF07C082
:101020008EB5887F8EBD8EB56770862B8EBD20E015
:1010300030E00AC085B5887F85BD85B56770862B91
:1010400085BDF5CF21E030E0C9010895FC0100978E
:1010500009F494C0408151814330510508F08EC09D
:10106000228133814115510529F04230510509F0A3
:1010700043C021C02130310569F02130310520F015
:101080002230310589F409C083B78F7B83BF83B7D2
:10109000877F08C083B78F7B02C083B7806483BF1C
:1010A00083B7886083BF51C083B7806483BF83B731
:1010B000877F83BF40C02130310569F02130310581
:1010C00020F02230310589F409C085B58F7B85BDBC
:1010D00085B5877F08C085B58F7B02C085B58064E4
:1010E00085BD85B5886085BD3EC085B5806485BDFC
:1010F00085B5877F85BD1FC08FB58E7F8FBD8FB5AE
:101100008D7F8FBD8EB5877F8EBD8EB58F7E8EBD58
:101110002130310549F02130310568F022303105A8
:1011200039F48FB581608FBD8EB588608EBD03C0E8
:101130008FB581608FBD4130510561F0413051055F
:1011400020F042305105D1F40EC0868182BF8085E7
:101150008CBF0DC0868197819DBD8CBD808591859A
:101160009BBD8ABD04C0868184BD808583BD6481AA
:101170007581CA010E94FC079C0102C021E030E099
:10118000C901089583309105B8F48130910551F07B
:101190008130910518F0029779F40AC083B7887FEF
:1011A00083BF03C08EB5887F8EBD20E030E006C0CF
:1011B00085B5887F85BDF9CF21E030E0C90108956C
:1011C0008330910590F48130910541F08130910593
:1011D00018F0029751F407C062BF02C07DBD6CBD1C
:1011E00020E030E004C064BDFBCF21E030E0C90165
:1011F0000895FB0183309105C8F461157105B1F0C4
:101200008130910541F08130910518F0029771F419
:1012100009C082B708C08CB59DB59183808320E05A
:1012200030E006C084B580831182F9CF21E030E040
:10123000C90108958330910590F48130910541F002
:101240008130910518F0029751F407C06CBF02C0BD
:101250007BBD6ABD20E030E004C063BDFBCF21E070
:1012600030E0C90108958330910510F58130910572
:1012700069F08130910518F00297D1F40EC099B74A
:10128000672B11F481E00FC082E00DC099B7672B86
:1012900011F080E108C084E006C099B7672B11F017
:1012A00080E801C080E4892B89BF20E030E002C0E3
:1012B00021E030E0C90108958330910510F58130B7
:1012C000910569F08130910518F00297D1F40EC0B4
:1012D00099B7672B11F48EEF0FC08DEF0DC099B742
:1012E000672B11F08FEE08C08BEF06C099B7672B04
:1012F00011F08FE701C08FEB892389BF20E030E038
:1013000002C021E030E0C9010895CF93DF93EC01E2
:101310008330910568F560E070E00E945C09CE01C1
:1013200061E070E00E945C09C130D10551F0C1302C
:10133000D10520F0C230D105D9F408C013BE12BEC9
:1013400007C01FBC1EBC1DBC1CBC02C015BC14BC0D
:10135000CC0FDD1FCC0FDD1FFE01E052FE4F1182CE
:101360001082CE51DE4F1982188220E030E002C098
:1013700021E030E0C901DF91CF910895FC01833075
:10138000910580F44115510569F0EE0FFF1FE60F3E
:10139000F71FEE0FFF1FE052FE4F5183408320E006
:1013A00030E002C021E030E0C90108958FB78068C5
:1013B0008FBF08958FB78F778FBF08951F920F92B9
:1013C0000FB60F9211242F933F934F935F936F9318
:1013D0007F938F939F93AF93BF93EF93FF93E0918E
:1013E000E001F091E101309709F00995FF91EF914B
:1013F000BF91AF919F918F917F916F915F914F912D
:101400003F912F910F900FBE0F901F9018951F9234
:101410000F920FB60F9211242F933F934F935F9328
:101420006F937F938F939F93AF93BF93EF93FF93AC
:10143000E091E201F091E301309709F00995FF9105
:10144000EF91BF91AF919F918F917F916F915F913C
:101450004F913F912F910F900FBE0F901F901895B5
:101460001F920F920FB60F9211242F933F934F9319
:101470005F936F937F938F939F93AF93BF93EF93FC
:10148000FF93E091E401F091E501309709F00995AF
:10149000FF91EF91BF91AF919F918F917F916F914C
:1014A0005F914F913F912F910F900FBE0F901F9022
:1014B00018951F920F920FB60F9211242F933F93FE
:1014C0004F935F936F937F938F939F93AF93BF934C
:1014D000EF93FF93E091E601F091E701309709F077
:1014E0000995FF91EF91BF91AF919F918F917F915E
:1014F0006F915F914F913F912F910F900FBE0F9081
:101500001F9018951F920F920FB60F9211242F93D0
:101510003F934F935F936F937F938F939F93AF937B
:10152000BF93EF93FF93E091E801F091E9013097C9
:1015300009F00995FF91EF91BF91AF919F918F9124
:101540007F916F915F914F913F912F910F900FBEBF
:101550000F901F9018951F920F920FB60F921124A3
:101560002F933F934F935F936F937F938F939F93AB
:10157000AF93BF93EF93FF93E091EA01F091EB01FA
:10158000309709F00995FF91EF91BF91AF919F912D
:101590008F917F916F915F914F913F912F910F901C
:1015A0000FBE0F901F901895CF93DF93EC0100971B
:1015B000C9F1288139814A815B81211531054105B5
:1015C000510581F184E0220F331F441F551F8A9576
:1015D000D1F760E072E18AE790E00E94431B21505E
:1015E0003040832F8F7080BD29B92C813D819E8131
:1015F00093709295907F88858170880F880F880FEF
:10160000982B9068822F8370880F982B90BD27307D
:10161000310511F4529A01C05298539A549A20E01D
:1016200030E002C021E030E0C901DF91CF910895A0
:10163000539854985798569855981092ED011092D7
:10164000EC0180E090E008955D9BFECF8CB980E0D6
:1016500090E00895FC01009719F421E030E006C005
:101660005F9BFECF8CB1808320E030E0C9010895FC
:10167000FC01009739F05F9B05C08CB1808320E0AE
:1016800030E002C021E030E0C9010895009719F46C
:1016900021E030E00BC0FC0104C05D9BFECF8CB9A3
:1016A000319680818823C9F720E030E0C901089590
:1016B0000097D9F061157105C1F0A0E0B0E061506C
:1016C00070400AC05F9BFECF2CB1241741F0FC0193
:1016D000EA0FFB1F20831196A617B70798F3A80FF0
:1016E000B91F1C9220E030E002C021E030E0C901C7
:1016F0000895009719F421E030E007C09093ED01C0
:101700008093EC01579A20E030E0C90108951F92C0
:101710000F920FB60F9211242F933F934F935F9325
:101720006F937F938F939F93AF93BF93EF93FF93A9
:101730008CB1E091EC01F091ED01309709F0099541
:10174000FF91EF91BF91AF919F918F917F916F9199
:101750005F914F913F912F910F900FBE0F901F906F
:101760001895FB01DA018230910581F083309105F3
:1017700018F40197C1F406C08330910559F004971D
:1017800091F40CC081E0808383E00BC083E0808310
:1017900085E007C083E0808384E003C083E080832A
:1017A00087E08C93089510821C92089582309105F1
:1017B000A9F08330910518F4019751F506C08330E4
:1017C0009105A1F0049721F51AC0662319F083B79B
:1017D000806202C083B78F7D83BF0895662319F0AE
:1017E0008FB580680AC08FB58F7707C0662319F060
:1017F0008FB5806202C08FB58F7D8FBD089566233F
:1018000021F085B5806285BD089585B58F7D85BD44
:1018100008958230910571F08330910518F4019795
:10182000A1F406C08330910551F0049771F40CC007
:101830006CBF0895862F90E09BBD8ABD0895862FCA
:1018400090E099BD88BD089563BD0895FC01DB015A
:10185000009769F08185882351F06115710539F091
:10186000838594858D939C9320E030E002C021E035
:1018700030E0C9010895FC01DB01009759F0818532
:10188000882341F06115710529F082858C9320E051
:1018900030E002C021E030E0C9010895FF920F93CB
:1018A0001F93CF93DF93EC018B016230710539F008
:1018B0006330710541F06130710549F402C040E0C8
:1018C00003C041E005C041E0FF24F39402C040E0C2
:1018D000FF248885882339F0C8010197029718F4FE
:1018E0008F2DF42E482F888169810E9465078A8197
:1018F0006B814F2D0E9465071C870B87DF91CF916D
:101900001F910F91FF900895CF93DF93EC01009703
:10191000E9F089858823D1F0CE0163E070E00E9470
:101920004E0C8E819F81009731F48C816D8141E056
:101930000E94650708C06FEF0E94090C8E819F818D
:1019400061E00E94D60B20E030E002C021E030E0F0
:10195000C901DF91CF9108950F931F93DF93CF9328
:1019600000D0CDB7DEB78C01009749F1FC0181852D
:10197000882329F11A821982C80160E070E00E9470
:101980004E0CF80186819781009719F48481658156
:1019900010C0BE016F5F7F4FAE014E5F5F4F0E9470
:1019A000B10BF8018681978160E00E94D60B898196
:1019B0006A8140E00E94650720E030E002C021E03B
:1019C00030E0C9010F900F90CF91DF911F910F91DF
:1019D00008950F931F93DF93CF9300D0CDB7DEB759
:1019E0008C01009769F1FC018185882349F11A82F5
:1019F0001982C8010E94AC0CF8018681978100977A
:101A0000C9F0BE016F5F7F4FAE014E5F5F4F0E9416
:101A1000B10BF8018681978160E00E94D60BF80136
:101A20008681978160E00E94090C89816A8140E08B
:101A30000E946507F8011286118620E030E002C09E
:101A400021E030E0C9010F900F90CF91DF911F91FD
:101A50000F9108950F931F93DF93CF9300D0CDB7CD
:101A6000DEB78C0119821A82FC018681978100976A
:101A700041F440E08285811141E0F8018481658173
:101A800015C0BE016F5F7F4FAE014E5F5F4F0E947A
:101A9000B10BF801928526813781992351F4C90150
:101AA00060E00E94D60B89816A8140E00E94650750
:101AB00011C08FEF989FC001112464E670E00E946E
:101AC0002F1BC9010E94090CF8018681978161E0F2
:101AD0000E94D60B0F900F90CF91DF911F910F9125
:101AE0000895CF93DF93EC01009771F089858823E7
:101AF00059F0CE0162E070E00E944E0CCE010E94CF
:101B00002A0D20E030E002C021E030E0C901DF9181
:101B1000CF910895CF93DF93EC01009771F0898501
:101B2000882359F0CE0161E070E00E944E0CCE0196
:101B30000E942A0D20E030E002C021E030E0C9011F
:101B4000DF91CF910895FC01009789F0818588236A
:101B500071F06230710558F4672B21F4CF010E94B7
:101B60008A0D03C0CF010E94710D9C0102C021E0CB
:101B700030E0C9010895FC01009769F08185882350
:101B800051F0653608F064E66287CF010E942A0DA5
:101B900020E030E002C021E030E0C90108950F9359
:101BA0001F93DF93CF9300D0CDB7DEB78C010097A2
:101BB00009F485C0FC012081243008F080C08281B6
:101BC000843008F07CC086819781059708F077C043
:101BD00061811A821982822F41E00E94A406F801D5
:101BE0008281638141E00E94A406F80180816181C5
:101BF00040E00E946507F8018281638140E00E9415
:101C00006507F80186819781009779F48481843093
:101C100008F055C0658141E00E94A406F801848166
:101C2000658140E00E9465073BC0BE016F5F7F4F4A
:101C3000AE014E5F5F4F0E94B10B89816A8141E026
:101C40000E94A40689816A8140E00E946507F8012C
:101C5000268137812430310538F42230310560F493
:101C600021303105C9F404C024303105A9F411C074
:101C70008BE483BF1CBE10C08FB581608FBD8EB555
:101C800088608EBD8EB582608EBD8EB581608EBD42
:101C900003C08CE485BD13BCC90160E00E94D60B73
:101CA000F801128681E08187C80160E070E00E943F
:101CB0004E0CC8010E942A0D20E030E002C021E055
:101CC00030E0C9010F900F90CF91DF911F910F91DC
:101CD0000895CF92DF92EF92FF920F931F93DF93BD
:101CE000CF9300D000D0CDB7DEB78C016B01009749
:101CF00009F469C06115710509F465C08FEFFB0136
:101D00008083EE245EC0F80161816F0D808141E027
:101D10000E946507F394F4E0FF16A9F7F8016181CA
:101D20006E0D808140E00E946507FF24F801638109
:101D30006F0D82810E940007892BC1F51A821982DA
:101D400012C01C821B8205C08B819C8101969C83E2
:101D50008B838B819C8180549640B0F389819A81DA
:101D600001969A83898389819A81449750F3F80177
:101D700063816F0D82810E940007892BB9F4F801FD
:101D800063816F0D82810E940007892BC1F38E2D24
:101D900090E0880F991F880F991F080F191F0F0DCA
:101DA000111DF8018481F601808308C0F394F4E0EA
:101DB000FF1609F0BBCFE394EF1619F420E030E0F2
:101DC00004C0FF24A0CF21E030E0C9010F900F90A4
:101DD0000F900F90CF91DF911F910F91FF90EF9097
:101DE000DF90CF9008950F931F93CF93DF938C01D3
:101DF000EB01009779F06115710561F0C801BE0132
:101E00000E94690E892B31F488818F3FB9F320E05D
:101E100030E002C021E030E0C901DF91CF911F9195
:101E20000F9108951F93CF93DF93EC010097A9F1D1
:101E30008881843090F58A81843078F5898190E0BA
:101E400005975CF58B8190E005973CF510E0698182
:101E5000610F888141E00E94A406892BF1F4698119
:101E6000610F888141E00E9465071F5F143079F798
:101E700010E06B81610F8A8140E00E94A406892BEB
:101E800061F46B81610F8A8141E00E9465071F5FE9
:101E9000143079F720E030E002C021E030E0C901E1
:101EA000DF91CF911F91089581E090E0089581E046
:101EB00090E0089581E090E0089581E090E0089539
:101EC00081E090E0089581E090E0089581E090E065
:101ED000089581E090E00895CF92DF92FF920F93F2
:101EE0001F93CF93DF93EC01F62E6A0189010E94C4
:101EF000C207892B41F48881880F0E94C807892B6B
:101F000029F00E94C50721E030E018C08F2D0E9403
:101F1000C807892BB1F7C0E0D0E009C0F601EC0F8B
:101F2000FD1F80810E94C807892B59F72196C01791
:101F3000D107A0F30E94C50720E030E0C901DF917E
:101F4000CF911F910F91FF90DF90CF900895DC010A
:101F5000AB010097F9F013968C9113978823D1F079
:101F600061157105B9F020E030E002C02F5F3F4FEE
:101F7000FA01E20FF31F80818823C1F72115310593
:101F800019F420E030E008C0CD0160E40E946C0F3D
:101F90009C0102C021E030E0C9010895DF93CF9396
:101FA0000F92CDB7DEB7FC016983009789F083817A
:101FB000882371F0CF0160E4AE014F5F5F4F21E0F5
:101FC00030E00E946C0F9C0185E88A95F1F702C011
:101FD00021E030E0C9010F90CF91DF9108954F9239
:101FE0005F926F927F929F92AF92BF92CF92DF9259
:101FF000EF92FF920F931F93DF93CF93CDB7DEB78E
:1020000066970FB6F894DEBF0FBECDBF5C01009798
:1020100009F46DC0FC018381882309F468C041156F
:1020200051056105710529F4C50160E30E94CE0FD9
:102030005CC077FF16C08DE28B87EE24FF248701FA
:10204000E41AF50A060B170B992493943E010894A1
:10205000611C711C63018BE0482E512C4C0E5D1EDF
:102060001CC07A018B019924F1CFC801B7012AE085
:1020700030E040E050E00E94431B605DF601619358
:102080006F01C801B7012AE030E040E050E00E9453
:10209000431BC901DA017C018D012C2D2619E114A5
:1020A000F1040105110549F4322F992DBE01655F38
:1020B0007F4FAE014F5F5F4F0EC0C414D504A9F629
:1020C000F3CF2150FB01E90FF11DDA01A20FB11D81
:1020D0008C9180839F5F2223A1F7390DFB01E30FD1
:1020E000F11D1082C5010E94A70F9C0102C021E0D2
:1020F00030E0C90166960FB6F894DEBF0FBECDBFC3
:10210000CF91DF911F910F91FF90EF90DF90CF90D3
:10211000BF90AF909F907F906F905F904F90089589
:10212000DF93CF930F92CDB7DEB76983009719F491
:1021300021E030E00CC060E0AE014F5F5F4F21E076
:1021400030E00E946C0F9C0185E88A95F1F7C90187
:102150000F90CF91DF910895FC01009769F0838182
:10216000882351F0662311F06CE101C068E1CF01D2
:102170000E9490109C0102C021E030E0C901089546
:10218000FC01009781F08381882369F084816623B4
:1021900011F0816001C08E7F8483CF0164810E9431
:1021A00090109C0102C021E030E0C9010895FC01BB
:1021B000009781F08381882369F08481662311F080
:1021C000826001C08D7F8483CF0164810E94901062
:1021D0009C0102C021E030E0C9010895FC01009794
:1021E00081F08381882369F08481662311F0846003
:1021F00001C08B7F8483CF0164810E9490109C0179
:1022000002C021E030E0C9010895CF93DF93EC01D3
:10221000009791F08B81882379F0CE0162E00E94D3
:102220009010892B49F480EA9FE00197F1F71E8214
:102230001F8220E030E002C021E030E0C901DF91E0
:10224000CF910895CF93DF93EC01009791F08B81AC
:10225000882379F0CE0161E00E949010892B49F427
:1022600080EA9FE00197F1F71E821F8220E030E0B4
:1022700002C021E030E0C901DF91CF9108950F93B2
:102280001F93CF93DF93EC01162F042F009701F1DA
:102290008B818823E9F089816817D0F46A81461719
:1022A000B8F4123049F0133031F0113011F060E021
:1022B00003C060E401C0605C600F6068CE010E94F2
:1022C0009010892B29F41E830F8320E030E002C098
:1022D00021E030E0C901DF91CF911F910F91089566
:1022E0000F931F93CF93DF93EC0189010E943F115D
:1022F000892B19F021E030E005C0CE01B8010E9421
:10230000A70F9C01C901DF91CF911F910F910895F3
:10231000EF92FF920F93CF93DF93EC01009709F4B4
:102320005CC0888187FD59C09981992309F455C003
:102330008A81882309F451C0953008F04EC01B8271
:1023400084EF91E028EC30E0F9013197F1F7019743
:10235000D9F78981823010F008E301C000E3CE0193
:10236000602F0E949010892B09F037C080E197E21E
:102370000197F1F7CE01602F0E94901090E9E92EAD
:1023800091E0F92EC7010197F1F7CE01602F0E946D
:102390009010C7010197F1F788E08C83CE0168E0C7
:1023A0000E949010CE0161E00E94901080EA9FE0B0
:1023B0000197F1F786E08D83CE0166E00E949010D0
:1023C0008CE08C83CE016CE00E9490101E821F82F4
:1023D00081E08B8320E030E002C021E030E0C901E1
:1023E000DF91CF910F91FF90EF900895EF92FF92C0
:1023F0000F931F93DF93CF93CDB7DEB728970FB618
:10240000F894DEBF0FBECDBF8C017A010097A1F119
:10241000FC018381882381F14115510569F1683000
:1024200058F5660F660F660F6064C8010E94901031
:10243000892B11F520E030E0AE014F5F5F4FFA01CC
:10244000E20FF31FD701A20FB31F8C918F7180830E
:102450002F5F3F4F2830310591F7C80160E428E035
:1024600030E00E946C0F892B39F4C80160E040E035
:102470000E943F119C0102C021E030E0C901289672
:102480000FB6F894DEBF0FBECDBFCF91DF911F9185
:102490000F91FF90EF900895EF92FF920F931F938B
:1024A000CF93DF937C01C0E0D0E0062F10E0F7016E
:1024B00063816C0FA8010C2E02C0559547950A94B4
:1024C000E2F7417082810E9465072196C430D105F0
:1024D00071F7F7018481678141E00E94650715E08B
:1024E000812F8A95F1F7F7018481678140E00E948E
:1024F00065071A95F1F7DF91CF911F910F91FF902A
:10250000EF900895EF92FF920F931F93CF93DF9375
:10251000EC01F62E88819981019739F500E010E0F1
:10252000E62EFF246B81600FA701002E02C0559597
:1025300047950A94E2F741708A810E9465070F5F10
:102540001F4F0830110571F78C816F8141E00E94A7
:10255000650715E0812F8A95F1F78C816F8140E046
:102560000E9465071A95F1F70BC062956F70CE0156
:102570000E944C128FE0F822CE016F2D0E944C1267
:1025800085E88A95F1F7DF91CF911F910F91FF9028
:10259000EF9008951F93CF93DF93EC01162F0097D0
:1025A00079F08B85882361F08C816D8141E00E94F8
:1025B0006507CE01612F0E94821220E030E002C048
:1025C00021E030E0C901DF91CF911F9108954F9232
:1025D0005F926F927F928F929F92AF92BF92CF92B3
:1025E000DF92EF92FF920F931F93DF93CF93CDB7BC
:1025F000DEB72A970FB6F894DEBF0FBECDBF4C01F1
:102600007A018B01009709F460C0FC01838588235F
:1026100009F45BC0411551056105710531F4C40130
:1026200060E30E94CA129C0152C077FF16C0C40129
:102630006DE20E94CA12AA24BB246501AE18BF082D
:10264000C00AD10A3E010894611C711C73018BE021
:10265000482E512C4C0E5D1E1BC05A016B01F2CF4F
:10266000C601B5012AE030E040E050E00E94431B83
:10267000605DF70161937F01C601B5012AE030E09A
:1026800040E050E00E94431BC901DA015C016D018A
:102690001E2D1619A114B104C104D10469F0E4146B
:1026A000F504F1F609C01150F701E10FF11DC40165
:1026B00060810E94CA1204C07E010894E11CF11CD2
:1026C000112389F720E030E002C021E030E0C901A9
:1026D0002A960FB6F894DEBF0FBECDBFCF91DF9123
:1026E0001F910F91FF90EF90DF90CF90BF90AF9030
:1026F0009F908F907F906F905F904F9008950F9371
:102700001F93CF93DF93EC01009799F08B8588237B
:1027100081F06115710569F08B0103C0CE010E9443
:10272000CA12F80161918F016623C1F720E030E001
:1027300002C021E030E0C901DF91CF911F910F91DC
:1027400008951F93CF93DF93EC01162F009719F490
:1027500021E030E00BC08C816D8140E00E94650774
:10276000CE01612F0E94821220E030E0C901DF918A
:10277000CF911F910895FC01009769F0838588230C
:1027800051F0662311F06CE101C068E1CF010E94B5
:10279000A1139C0102C021E030E0C9010895FC01B1
:1027A000009781F08385882369F08485662311F082
:1027B000816001C08E7F8487CF0164850E94A11350
:1027C0009C0102C021E030E0C9010895FC0100979E
:1027D00081F08385882369F08485662311F0826007
:1027E00001C08D7F8487CF0164850E94A1139C0165
:1027F00002C021E030E0C9010895FC01009781F09A
:102800008385882369F08485662311F0846001C084
:102810008B7F8487CF0164850E94A1139C0102C035
:1028200021E030E0C9010895CF93DF93EC010097D8
:1028300081F08B85882369F0CE0162E00E94A113AC
:1028400080EA9FE00197F1F71E861F8620E030E0C6
:1028500002C021E030E0C901DF91CF910895CF930C
:10286000DF93EC01009781F08B85882369F0CE011E
:1028700061E00E94A11380EA9FE00197F1F71E86B4
:102880001F8620E030E002C021E030E0C901DF9186
:10289000CF9108950F931F93CF93DF93EC01162FE1
:1028A000042F0097F1F08B858823D9F0898568176C
:1028B000C0F46A854617A8F4123049F0133031F09D
:1028C000113011F060E003C060E401C0605C600F93
:1028D0006068CE010E94A1131E870F8720E030E0C0
:1028E00002C021E030E0C901DF91CF911F910F912B
:1028F00008950F931F93CF93DF93EC0189010E94FA
:102900004A14892B19F021E030E005C0CE01B8014E
:102910000E947F139C01C901DF91CF911F910F91FC
:102920000895EF92FF920F931F93CF93DF938C0143
:102930007A01009729F1FC018385882309F141156B
:102940005105F1F06830E0F4660F660F660F6064C1
:10295000C8010E94A113C0E0D0E0F701EC0FFD1FF9
:1029600060816F71C8010E94CA122196C830D105DA
:10297000A1F7C80160E040E00E944A149C0102C037
:1029800021E030E0C901DF91CF911F910F91FF90BD
:10299000EF9008950F931F93CF93DF93EC0100976F
:1029A00009F4C3C08A81843008F0BFC08C818430B0
:1029B00008F0BBC09985992309F4B7C08A8588239C
:1029C00009F4B3C0953008F0B0C0888199810197AF
:1029D00011F014E001C018E08B8190E0810F911D8F
:1029E000099708F0A2C000E06B81600F8A8141E086
:1029F0000E94A4066B81600F8A8140E00E946507F7
:102A00000F5F011788F38C816D8141E00E94A4065D
:102A10008C816F8141E00E94A4068C816D8140E031
:102A20000E9465078C816F8140E00E946507888560
:102A3000882351F08C816E8141E00E94A4068C8134
:102A40006E8140E00E94650784EF91E028EC30E061
:102A5000F9013197F1F70197D9F788819981892B8D
:102A6000E9F4CE0163E00E944C1280E197E2019705
:102A7000F1F7CE0163E00E944C120CE211E0C801B4
:102A80000197F1F7CE0163E00E944C12C801019753
:102A9000F1F7CE0162E00E944C1215C0CE0160E356
:102AA0000E94821280E197E20197F1F7CE0160E384
:102AB0000E9482120CE211E0C8010197F1F7CE01E9
:102AC00060E30E948212C8010197F1F78881998121
:102AD000019711F460E301C060E28985823008F05B
:102AE0006860CE010E94A11388E08C87CE0168E067
:102AF0000E94A113CE0161E00E94A11380EA9FE031
:102B00000197F1F786E08D87CE0166E00E94A11360
:102B10008CE08C87CE016CE00E94A1131E861F867C
:102B200081E08B8720E030E002C021E030E0C90185
:102B3000DF91CF911F910F910895FC0180819181C8
:102B4000009719F00197F1F40FC06485758580E056
:102B500090E028EE33E040E050E00E94101B0E941D
:102B6000431B3BBD2ABD08956485758580E090E0D8
:102B700028EE33E040E050E00E94101B0E94431B0F
:102B800039BD28BD0895FF920F931F93CF93DF9314
:102B9000EC01009721F18985882309F1F884F61664
:102BA000F0F06B870C811D8170E080E090E02E8159
:102BB0003F81201B310B40E050E00E94101B2F2D65
:102BC00030E040E050E00E94431B020F131F1D87BE
:102BD0000C87CE010E949D1520E030E002C021E06C
:102BE00030E0C901DF91CF911F910F91FF900895BF
:102BF0000F931F93CF93DF93EC019B01009761F13B
:102C00008985882349F16C817D812617370738F043
:102C10008E819F81B9018217930708F4BC017D87DB
:102C20006C870C811D81601B710B80E090E0288512
:102C300030E040E050E00E94101B2E813F81201BBD
:102C4000310B40E050E00E94431B2B87CE010E94D5
:102C50009D1520E030E002C021E030E0C901DF91A5
:102C6000CF911F910F910895FC01DB01009759F05E
:102C70008185882341F06115710529F083858C9346
:102C800020E030E002C021E030E0C9010895FC01FD
:102C90000097B9F081858823A1F080819181009708
:102CA00019F48FB5806804C0019719F48FB580625C
:102CB0008FBD81E08287CF010E949D1520E030E02A
:102CC00002C021E030E0C9010895FF920F931F93E5
:102CD000CF93DF9300EF11E0FF24F801C081D18191
:102CE000209719F18A85882301F18A816B8141E05F
:102CF0000E9465076C857D8580E090E020E43FE1DF
:102D000040E050E00E94101B20EA3FE040E050E02D
:102D10000E94431BC901232B11F00197F1F78A810F
:102D20006B8140E00E946507F3940E5F1F4FF2E055
:102D300000301F0791F620E030E0FF2011F421E081
:102D400030E0C901DF91CF911F910F91FF9008955D
:102D5000CF93DF93EC010097F1F089858823D9F0B8
:102D600088819981009731F48FB58F778FBD83E08B
:102D700065E00AC0019731F48FB58F7D8FBD83E088
:102D800064E002C08A816B8140E00E9465071A8678
:102D900020E030E002C021E030E0C901DF91CF91B6
:102DA0000895CF93DF93EC010097A1F189858823E3
:102DB00089F1CE010E94A816888199810297B9F401
:102DC000A0EFB1E0E0E0F0E08D919C9111978C17BD
:102DD0009D0739F4EE0FFF1FE051FE4F1182108264
:102DE00015C031961296E830F10571F70FC0809149
:102DF000EE01882319F081508093EE018091EE015D
:102E0000882321F41FBC1EBC1092EF01198620E01C
:102E100030E002C021E030E0C901DF91CF91089598
:102E2000CF92DF92FF920F931F93CF93DF93EC012A
:102E3000009709F483C0C880D98083E0C816D10404
:102E400008F07CC0F884FF2009F478C00C811D8153
:102E50002E813F810217130708F070C019861A8669
:102E60006F2D66956B8770E080E090E0201B310B42
:102E700040E050E00E94101B2F2D30E040E050E079
:102E80000E94431B020F131F1D870C8782E0C81688
:102E9000D10419F58A81843008F050C06B8141E07B
:102EA0000E94A4068A816B8140E00E946507A0EF22
:102EB000B1E0E0E0F0E08D919C911197892B39F41D
:102EC000EE0FFF1FE051FE4FD183C0832EC031961D
:102ED0001296E830F10579F731C08091EF0188232F
:102EE00069F482E08FBD8AE18EBD8FE19EE497BDDB
:102EF00086BD1DBC1CBC81E08093EF01CD2841F450
:102F000083E065E041E00E94A4068FB5806807C0B9
:102F100083E064E041E00E94A4068FB580628FBD2B
:102F20008091EE018F5F8093EE0181E089878A872F
:102F3000CE010E949D1520E030E002C021E030E08B
:102F4000C901DF91CF911F910F91FF90DF90CF903A
:102F50000895843080F4683070F490E04130510579
:102F600009F091E0492F0E946507009711F081E078
:102F700090E09C0102C021E030E0C9010895843056
:102F800080F4683070F490E04130510509F491E02C
:102F9000492F0E946507009711F081E090E09C01A5
:102FA00002C021E030E0C9010895FF920F931F9302
:102FB000CF93DF93EC01009751F18C81843038F589
:102FC0008A819B81009711F407E003C00197F9F40F
:102FD00004E08D818830D8F490E0800F911D09972E
:102FE000B4F4FF2488819981892B11F0FF24F39494
:102FF00010E06D81610F8C814F2D0E946507892B38
:1030000031F41F5F1017A8F320E030E002C021E088
:1030100030E0C901DF91CF911F910F91FF9008958A
:10302000DF92EF92FF920F931F93CF93DF938C0168
:10303000009799F16A3088F5FC01828193810097AD
:1030400041F4E62FF0E0ED57FE4F608197E0D92E76
:1030500004C0019711F584E0D82EF8018081918198
:10306000019709F46095C0E0D0E0E62EFF24F80156
:1030700065816C0FA7010C2E02C0559547950A94E7
:10308000E2F7417084810E946507892B31F4219613
:10309000CD1568F320E030E002C021E030E0C90146
:1030A000DF91CF911F910F91FF90EF90DF900895E6
:1030B0000F931F93CF93DF93EC01009749F18C811D
:1030C000843030F58A819B81009711F407E003C0BA
:1030D0000197F1F404E08D818830D0F490E0800F06
:1030E000911D0997ACF410E06D81610F8C8141E076
:1030F0000E94A406892B61F41F5F1017A8F3CE016C
:103100000E94D517009711F081E090E09C0102C069
:1031100021E030E0C901DF91CF911F910F91089517
:10312000FC01009761F08389882349F063307105C1
:1031300030F476876587148A20E030E002C021E011
:1031400030E0C9010895FC01009769F08389882364
:1031500051F06115710511F461E070E0728B618BC3
:1031600020E030E002C021E030E0C9010895EF9294
:10317000FF920F931F93CF93DF93EC01009769F1B8
:103180008B89882351F16115710539F18F859889F3
:103190007C0100E010E08D859E85029721F4EE0C05
:1031A000FF1C001F111F9B0140E050E0C801B70148
:1031B0000E94101B9B01AC0160E67AEE80E090E07B
:1031C0000E94431BC901DA010097A105B10529F04E
:1031D0003A8B298B20E030E002C021E030E0C901C9
:1031E000DF91CF911F910F91FF90EF900895CF93B2
:1031F000DF93FC01EB01009789F08389882371F04C
:103200006115710559F086899789A08DB18D8883E4
:103210009983AA83BB8320E030E002C021E030E044
:10322000C901DF91CF910895FC01009751F0838986
:10323000882339F0168A178A108E118E20E030E02C
:1032400002C021E030E0C9010895FC01DB010097D4
:1032500099F08389882381F06115710569F085856E
:10326000968527853089029711F4220F331F2D93FD
:103270003C9320E030E002C021E030E0C901089535
:103280001F93CF93DF93EC01162F462F4170888157
:1032900069810E946507412F469541708A816B8143
:1032A0000E946507412F4695469541708C816D813E
:1032B0000E946507412F46954695469541708E813F
:1032C0006F810E9465071D8A112311F081E08D8BAB
:1032D000DF91CF911F9108950F931F93CF93DF93A9
:1032E000EC01009709F452C08B89882309F44EC081
:1032F0006230710508F04AC08D859E85029711F0F5
:1033000044E001C048E08C890E891F89288D398DE1
:10331000672B61F490E00196642F70E00E942F1BF0
:103320008C8B0F5F1F4F2F4F3F4F0DC090E0840FCE
:10333000911D0197642F70E00E942F1B8C8B015010
:103340001040204030400E8B1F8B288F398FEC8926
:103350008D859E85009721F0F0E0029761F406C00C
:10336000F0E0E370F070E357FE4F09C0E770F070D3
:10337000EF56FE4F04C0E370F070E756FE4F6081D9
:10338000CE010E94401920E030E002C021E030E090
:10339000C901DF91CF911F910F910895AF92BF9214
:1033A000CF92DF92EF92FF920F931F93CF93DF9311
:1033B0008C016B017A01009719F1FC018389882344
:1033C000F9F042305105E0F4C0E0D0E020EDA22E4B
:1033D00027E0B22E0FC0C801B7010E946C19F80196
:1033E0008189928904C0F5013197F1F7019700971F
:1033F000D1F72196CC15DD0570F320E030E002C056
:1034000021E030E0C901DF91CF911F910F91FF9032
:10341000EF90DF90CF90BF90AF900895CF92DF9262
:10342000EF92FF920F931F93CF93DF93EC016A010A
:10343000009721F18B89882309F18F8598897C0178
:1034400000E010E08D859E85029721F4EE0CFF1CB4
:10345000001F111F9B0140E050E0C801B7010E940E
:10346000101B28E631E040E050E00E94431BCE01F3
:10347000B901A6010E94CE199C0102C021E030E0F2
:10348000C901DF91CF911F910F91FF90EF90DF90D5
:10349000CF900895CF93DF93EC010097C1F08B8913
:1034A0008823A9F0CE0160E00E9440198C85882312
:1034B00051F08885698540E00E9465078A856B85A3
:1034C00040E00E9465071D8A20E030E002C021E054
:1034D00030E0C901DF91CF910895CF93DF93EC01E4
:1034E000009779F18B89882361F18C85882351F0CD
:1034F0008885698541E00E9465078A856B8541E082
:103500000E946507EC898D859E85009721F0F0E08B
:10351000029761F406C0F0E0E370F070E357FE4FED
:1035200009C0E770F070EF56FE4F04C0E370F07012
:10353000E756FE4F6081CE010E94401920E030E046
:1035400002C021E030E0C901DF91CF910895CF930F
:10355000DF93EC01009709F45DC02881243008F066
:1035600059C08A81843008F055C08C81843008F0BD
:1035700051C08E81843008F04DC08F859889892B89
:1035800009F448C0822F698141E00E94A4068A8123
:103590006B8141E00E94A4068C816D8141E00E9414
:1035A000A4068E816F8141E00E94A4068C85882349
:1035B000D1F09885943070F58A85843058F5892F3C
:1035C000698541E00E94A4068A856B8541E00E94DE
:1035D000A4068885698541E00E9465078A856B8518
:1035E00041E00E94650789899A89892B21F481E04D
:1035F00090E09A8B898B1C8A1E8A1F8A188E198EDE
:103600001D8ACE0160E00E94401981E08B8B20E092
:1036100030E002C021E030E0C901DF91CF91089590
:10362000629FD001739FF001829FE00DF11D649FA6
:10363000E00DF11D929FF00D839FF00D749FF00D32
:10364000659FF00D9927729FB00DE11DF91F639FD3
:10365000B00DE11DF91FBD01CF0111240895AA1B72
:10366000BB1B51E107C0AA1FBB1FA617B70710F06D
:10367000A61BB70B881F991F5A95A9F7809590959F
:10368000BC01CD010895A1E21A2EAA1BBB1BFD01AE
:103690000DC0AA1FBB1FEE1FFF1FA217B307E40731
:1036A000F50720F0A21BB30BE40BF50B661F771F89
:1036B000881F991F1A9469F7609570958095909569
:1036C0009B01AC01BD01CF010895AEE0B0E0EBE697
:1036D000FBE10C94211E0D891E898F89988D97FF1F
:1036E00002C080E090E801979E838D831A8309834E
:1036F00086E08C839E01255E3F4FCE010196698D49
:103700007A8DA9010E94961B4D815E8157FD0AC0EA
:103710002F813885421753070CF49A01020F131FAB
:10372000F80110822E96E4E00C943D1EABE0B0E070
:10373000ECE9FBE10C94131E3C012B015A01FC0146
:1037400017821682838181FD03C06FEF7FEFC6C1B0
:103750009AE0892E1E010894211C311CF30123815B
:10376000F20123FD859123FF81912F01882309F424
:10377000B2C1853239F423FD859123FF81912F0158
:10378000853229F490E0B3010E94891DE7CF982F7C
:10379000FF24EE249924FFE1FF15D0F09B3269F05D
:1037A0009C3228F4903259F0933291F40EC09D323D
:1037B00049F0903369F441E024C052E0F52A84E0F6
:1037C000F82A28C098E0F92A25C0E0E1FE2A22C0A4
:1037D000F7FC29C0892F80538A3070F4F6FE05C0AB
:1037E000989C902C1124980E15C0E89CE02C112474
:1037F000E80EF0E2FF2A0EC09E3229F4F6FC6BC1FF
:1038000040E4F42A07C09C3619F450E8F52A02C0B7
:10381000983649F4F20123FD959123FF91912F01F0
:10382000992309F0B8CF892F8554833018F080523E
:10383000833038F444E050E0A40EB51E5FE35983B2
:103840000FC0933631F0933779F0933509F056C0B5
:1038500020C0F5018081898342E050E0A40EB51EAE
:10386000610101E010E012C0F501C080D180F6FCDA
:1038700003C06FEF7FEF02C0692D70E042E050E0BF
:10388000A40EB51EC6010E947E1D8C015FE7F522C5
:1038900014C0F501C080D180F6FC03C06FEF7FEF4C
:1038A00002C0692D70E042E050E0A40EB51EC601D2
:1038B0000E94731D8C0150E8F52AF3FE07C01AC060
:1038C00080E290E0B3010E94891DEA948E2D90E081
:1038D00008171907A8F30EC0F601F7FC8591F7FE4B
:1038E00081916F0190E0B3010E94891DE110EA947B
:1038F000015010400115110579F7EAC0943611F016
:10390000993669F5F7FE08C0F501208131814281C1
:10391000538184E090E00AC0F501808191819C018F
:10392000442737FD4095542F82E090E0A80EB91E41
:103930009FE6F92257FF09C0509540953095219593
:103940003F4F4F4F5F4FE0E8FE2ACA01B901A10186
:103950002AE030E00E94B51DD82ED21840C095371D
:1039600029F41F2D1F7E2AE030E01DC01F2D197F76
:103970009F3661F0903720F4983509F0ACC00FC045
:10398000903739F0983709F0A6C004C028E030E03D
:103990000AC0106114FD146020E130E004C014FD81
:1039A000166020E132E017FF08C0F50160817181E7
:1039B0008281938144E050E008C0F50180819181CB
:1039C000BC0180E090E042E050E0A40EB51EA101F1
:1039D0000E94B51DD82ED2188FE7F82EF122F6FEE0
:1039E0000BC05EEFF522D91438F4F4FE07C0F2FCE8
:1039F00005C08FEEF82202C01D2D01C0192DF4FE66
:103A00000DC0FE01ED0DF11D8081803319F499EE9A
:103A1000F92208C01F5FF2FE05C003C08F2D867813
:103A200009F01F5F0F2DF3FC14C0F0FE0FC01E1530
:103A300010F09D2C0BC09D2C9E0C911A1E2D06C0C3
:103A400080E290E0B3010E94891D1F5F1E15C0F344
:103A500004C01E1510F4E11A01C0EE2404FF0FC0CB
:103A600080E390E0B3010E94891D02FF1DC001FDAB
:103A700003C088E790E00EC088E590E00BC0802F7F
:103A8000867891F001FF02C08BE201C080E2F7FC72
:103A90008DE290E0B3010E94891D06C080E390E0B2
:103AA000B3010E94891D9A94D914C0F3DA94F101EC
:103AB000ED0DF11D808190E0B3010E94891DDD2094
:103AC000A9F706C080E290E0B3010E94891DEA9444
:103AD000EE20C1F743CEF30166817781CB012B96AF
:103AE000E2E10C942F1EFC01059061507040011022
:103AF000D8F7809590958E0F9F1F0895FC01615017
:103B0000704001900110D8F7809590958E0F9F1FFF
:103B100008950F931F93CF93DF938C01EB018B815B
:103B200081FF1BC082FF0DC02E813F818C819D8152
:103B30002817390764F4E881F9810193F983E88350
:103B400006C0E885F985802F0995892B31F48E818F
:103B50009F8101969F838E8302C00FEF1FEFC801E4
:103B6000DF91CF911F910F910895FA01AA27283074
:103B700051F1203181F1E8946F936E7F6E5F7F4F3A
:103B80008F4F9F4FAF4FB1E03ED0B4E03CD0670FB6
:103B9000781F891F9A1FA11D680F791F8A1F911D09
:103BA000A11D6A0F711D811D911DA11D20D009F459
:103BB00068943F912AE0269F11243019305D31939B
:103BC000DEF6CF010895462F4770405D4193B3E084
:103BD0000FD0C9F7F6CF462F4F70405D4A3318F02B
:103BE000495D31FD4052419302D0A9F7EACFB4E0DC
:103BF000A6959795879577956795BA95C9F7009794
:103C00006105710508959B01AC010A2E0694579534
:103C1000479537952795BA95C9F7620F731F841F8B
:103C2000951FA01D08952F923F924F925F926F9221
:103C30007F928F929F92AF92BF92CF92DF92EF923C
:103C4000FF920F931F93CF93DF93CDB7DEB7CA1BBD
:103C5000DB0B0FB6F894DEBF0FBECDBF09942A88E8
:103C6000398848885F846E847D848C849B84AA8490
:103C7000B984C884DF80EE80FD800C811B81AA811D
:103C8000B981CE0FD11D0FB6F894DEBF0FBECDBFE8
:083C9000ED010895F894FFCF47
:103C980056656869636C652044617368626F617218
:103CA8006400202042756C6220436865636B2E2E89
:103CB8002E200044617368626F61726420726561CE
:103CC80064790D0A005350443A2533752052504DFB
:103CD8003A253475002121204F494C205052455334
:103CE800532021212000212120434F4F4C414E5485
:103CF80020212120202000212120424154544552D6
:103D0800592021212020200020204C4F57204655A3
:103D1800454C20202020202000202048415A415294
:103D280044204F4E2020202020003C3C204C45467B
:103D380054205455524E2020202000202020524943
:103D4800474854205455524E203E3E002020202003
:103D580020202020202020202020202000535044F4
:103D68003D25752052504D3D2575204655454C3D05
:103D7800257520434F4F4C3D257520424154543DF5
:103D8800256C75204F494C3D25750D0A008025008E
:103D98000003000000000001000000030000000014
:103DA8000000000100050000004D003A0037003413
:103DB8000031003F065B4F666D7D077F6F0102048F
:0E3DC8000801030206040C080903060C09009A
:00000001FF
